{
	"Twitter_Contract.sol": {
		"TwitterContract": {
			"abi": [
				{
					"inputs": [
						{
							"internalType": "address",
							"name": "_createProfileContractAddress",
							"type": "address"
						}
					],
					"stateMutability": "nonpayable",
					"type": "constructor"
				},
				{
					"anonymous": false,
					"inputs": [
						{
							"indexed": true,
							"internalType": "address",
							"name": "previousOwner",
							"type": "address"
						},
						{
							"indexed": true,
							"internalType": "address",
							"name": "newOwner",
							"type": "address"
						}
					],
					"name": "OwnershipTransferred",
					"type": "event"
				},
				{
					"anonymous": false,
					"inputs": [
						{
							"indexed": false,
							"internalType": "uint256",
							"name": "_id",
							"type": "uint256"
						},
						{
							"indexed": true,
							"internalType": "address",
							"name": "_author",
							"type": "address"
						},
						{
							"indexed": false,
							"internalType": "string",
							"name": "_content",
							"type": "string"
						},
						{
							"indexed": false,
							"internalType": "uint256",
							"name": "_timestamp",
							"type": "uint256"
						}
					],
					"name": "TweetCreated",
					"type": "event"
				},
				{
					"anonymous": false,
					"inputs": [
						{
							"indexed": true,
							"internalType": "address",
							"name": "_liker",
							"type": "address"
						},
						{
							"indexed": false,
							"internalType": "address",
							"name": "_tweetAuthor",
							"type": "address"
						},
						{
							"indexed": false,
							"internalType": "uint256",
							"name": "_tweetId",
							"type": "uint256"
						},
						{
							"indexed": false,
							"internalType": "uint256",
							"name": "_likesCount",
							"type": "uint256"
						}
					],
					"name": "TweetLiked",
					"type": "event"
				},
				{
					"anonymous": false,
					"inputs": [
						{
							"indexed": true,
							"internalType": "address",
							"name": "_unLiker",
							"type": "address"
						},
						{
							"indexed": false,
							"internalType": "address",
							"name": "_tweetAuthor",
							"type": "address"
						},
						{
							"indexed": false,
							"internalType": "uint256",
							"name": "_tweetId",
							"type": "uint256"
						},
						{
							"indexed": false,
							"internalType": "uint256",
							"name": "_likesCount",
							"type": "uint256"
						}
					],
					"name": "TweetUnLiked",
					"type": "event"
				},
				{
					"inputs": [
						{
							"internalType": "uint16",
							"name": "_newTweetLength",
							"type": "uint16"
						}
					],
					"name": "changeTweetLength",
					"outputs": [],
					"stateMutability": "nonpayable",
					"type": "function"
				},
				{
					"inputs": [
						{
							"internalType": "string",
							"name": "_tweetText",
							"type": "string"
						}
					],
					"name": "createTweet",
					"outputs": [],
					"stateMutability": "nonpayable",
					"type": "function"
				},
				{
					"inputs": [
						{
							"internalType": "address",
							"name": "_authorAddress",
							"type": "address"
						}
					],
					"name": "getAllTweets",
					"outputs": [
						{
							"components": [
								{
									"internalType": "uint256",
									"name": "id",
									"type": "uint256"
								},
								{
									"internalType": "address",
									"name": "author",
									"type": "address"
								},
								{
									"internalType": "string",
									"name": "content",
									"type": "string"
								},
								{
									"internalType": "uint256",
									"name": "timestamp",
									"type": "uint256"
								},
								{
									"internalType": "uint256",
									"name": "likes",
									"type": "uint256"
								}
							],
							"internalType": "struct TwitterContract.TweetStruct[]",
							"name": "",
							"type": "tuple[]"
						}
					],
					"stateMutability": "view",
					"type": "function"
				},
				{
					"inputs": [
						{
							"internalType": "address",
							"name": "_authorAddress",
							"type": "address"
						}
					],
					"name": "getTotalLikes",
					"outputs": [
						{
							"internalType": "uint256",
							"name": "",
							"type": "uint256"
						}
					],
					"stateMutability": "view",
					"type": "function"
				},
				{
					"inputs": [
						{
							"internalType": "uint256",
							"name": "_i",
							"type": "uint256"
						}
					],
					"name": "getTweet",
					"outputs": [
						{
							"components": [
								{
									"internalType": "uint256",
									"name": "id",
									"type": "uint256"
								},
								{
									"internalType": "address",
									"name": "author",
									"type": "address"
								},
								{
									"internalType": "string",
									"name": "content",
									"type": "string"
								},
								{
									"internalType": "uint256",
									"name": "timestamp",
									"type": "uint256"
								},
								{
									"internalType": "uint256",
									"name": "likes",
									"type": "uint256"
								}
							],
							"internalType": "struct TwitterContract.TweetStruct",
							"name": "",
							"type": "tuple"
						}
					],
					"stateMutability": "view",
					"type": "function"
				},
				{
					"inputs": [
						{
							"internalType": "address",
							"name": "_author",
							"type": "address"
						},
						{
							"internalType": "uint256",
							"name": "_id",
							"type": "uint256"
						}
					],
					"name": "likeTweet",
					"outputs": [],
					"stateMutability": "nonpayable",
					"type": "function"
				},
				{
					"inputs": [],
					"name": "owner",
					"outputs": [
						{
							"internalType": "address",
							"name": "",
							"type": "address"
						}
					],
					"stateMutability": "view",
					"type": "function"
				},
				{
					"inputs": [],
					"name": "renounceOwnership",
					"outputs": [],
					"stateMutability": "nonpayable",
					"type": "function"
				},
				{
					"inputs": [
						{
							"internalType": "address",
							"name": "newOwner",
							"type": "address"
						}
					],
					"name": "transferOwnership",
					"outputs": [],
					"stateMutability": "nonpayable",
					"type": "function"
				},
				{
					"inputs": [
						{
							"internalType": "address",
							"name": "",
							"type": "address"
						},
						{
							"internalType": "uint256",
							"name": "",
							"type": "uint256"
						}
					],
					"name": "tweets",
					"outputs": [
						{
							"internalType": "uint256",
							"name": "id",
							"type": "uint256"
						},
						{
							"internalType": "address",
							"name": "author",
							"type": "address"
						},
						{
							"internalType": "string",
							"name": "content",
							"type": "string"
						},
						{
							"internalType": "uint256",
							"name": "timestamp",
							"type": "uint256"
						},
						{
							"internalType": "uint256",
							"name": "likes",
							"type": "uint256"
						}
					],
					"stateMutability": "view",
					"type": "function"
				},
				{
					"inputs": [
						{
							"internalType": "address",
							"name": "_author",
							"type": "address"
						},
						{
							"internalType": "uint256",
							"name": "_id",
							"type": "uint256"
						}
					],
					"name": "unLikeTweet",
					"outputs": [],
					"stateMutability": "nonpayable",
					"type": "function"
				}
			],
			"devdoc": {
				"kind": "dev",
				"methods": {
					"owner()": {
						"details": "Returns the address of the current owner."
					},
					"renounceOwnership()": {
						"details": "Leaves the contract without owner. It will not be possible to call `onlyOwner` functions. Can only be called by the current owner. NOTE: Renouncing ownership will leave the contract without an owner, thereby disabling any functionality that is only available to the owner."
					},
					"transferOwnership(address)": {
						"details": "Transfers ownership of the contract to a new account (`newOwner`). Can only be called by the current owner."
					}
				},
				"version": 1
			},
			"evm": {
				"assembly": "    /* \"Twitter_Contract.sol\":389:3675  contract TwitterContract is Ownable {... */\n  mstore(0x40, 0x80)\n    /* \"Twitter_Contract.sol\":460:463  280 */\n  0x0118\n    /* \"Twitter_Contract.sol\":434:463  uint16 MAX_TWEET_LENGTH = 280 */\n  0x00\n  exp(0x0100, 0x14)\n  dup2\n  sload\n  dup2\n  0xffff\n  mul\n  not\n  and\n  swap1\n  dup4\n  0xffff\n  and\n  mul\n  or\n  swap1\n  sstore\n  pop\n    /* \"Twitter_Contract.sol\":515:649  constructor (address _createProfileContractAddress) {... */\n  callvalue\n  dup1\n  iszero\n  tag_1\n  jumpi\n  0x00\n  dup1\n  revert\ntag_1:\n  pop\n  mload(0x40)\n  sub(codesize, bytecodeSize)\n  dup1\n  bytecodeSize\n  dup4\n  codecopy\n  dup2\n  dup2\n  add\n  0x40\n  mstore\n  dup2\n  add\n  swap1\n  tag_2\n  swap2\n  swap1\n  tag_3\n  jump\t// in\ntag_2:\n    /* \"@openzeppelin/contracts/access/Ownable.sol\":936:968  _transferOwnership(_msgSender()) */\n  tag_7\n    /* \"@openzeppelin/contracts/access/Ownable.sol\":955:967  _msgSender() */\n  tag_8\n    /* \"@openzeppelin/contracts/access/Ownable.sol\":955:965  _msgSender */\n  shl(0x20, tag_9)\n    /* \"@openzeppelin/contracts/access/Ownable.sol\":955:967  _msgSender() */\n  0x20\n  shr\n  jump\t// in\ntag_8:\n    /* \"@openzeppelin/contracts/access/Ownable.sol\":936:954  _transferOwnership */\n  shl(0x20, tag_10)\n    /* \"@openzeppelin/contracts/access/Ownable.sol\":936:968  _transferOwnership(_msgSender()) */\n  0x20\n  shr\n  jump\t// in\ntag_7:\n    /* \"Twitter_Contract.sol\":611:640  _createProfileContractAddress */\n  dup1\n    /* \"Twitter_Contract.sol\":578:599  createProfileContract */\n  0x01\n  0x00\n    /* \"Twitter_Contract.sol\":578:641  createProfileContract = IProfile(_createProfileContractAddress) */\n  0x0100\n  exp\n  dup2\n  sload\n  dup2\n  0xffffffffffffffffffffffffffffffffffffffff\n  mul\n  not\n  and\n  swap1\n  dup4\n  0xffffffffffffffffffffffffffffffffffffffff\n  and\n  mul\n  or\n  swap1\n  sstore\n  pop\n    /* \"Twitter_Contract.sol\":515:649  constructor (address _createProfileContractAddress) {... */\n  pop\n    /* \"Twitter_Contract.sol\":389:3675  contract TwitterContract is Ownable {... */\n  jump(tag_12)\n    /* \"@openzeppelin/contracts/utils/Context.sol\":640:736  function _msgSender() internal view virtual returns (address) {... */\ntag_9:\n    /* \"@openzeppelin/contracts/utils/Context.sol\":693:700  address */\n  0x00\n    /* \"@openzeppelin/contracts/utils/Context.sol\":719:729  msg.sender */\n  caller\n    /* \"@openzeppelin/contracts/utils/Context.sol\":712:729  return msg.sender */\n  swap1\n  pop\n    /* \"@openzeppelin/contracts/utils/Context.sol\":640:736  function _msgSender() internal view virtual returns (address) {... */\n  swap1\n  jump\t// out\n    /* \"@openzeppelin/contracts/access/Ownable.sol\":2426:2613  function _transferOwnership(address newOwner) internal virtual {... */\ntag_10:\n    /* \"@openzeppelin/contracts/access/Ownable.sol\":2499:2515  address oldOwner */\n  0x00\n    /* \"@openzeppelin/contracts/access/Ownable.sol\":2518:2524  _owner */\n  dup1\n  0x00\n  swap1\n  sload\n  swap1\n  0x0100\n  exp\n  swap1\n  div\n  0xffffffffffffffffffffffffffffffffffffffff\n  and\n    /* \"@openzeppelin/contracts/access/Ownable.sol\":2499:2524  address oldOwner = _owner */\n  swap1\n  pop\n    /* \"@openzeppelin/contracts/access/Ownable.sol\":2543:2551  newOwner */\n  dup2\n    /* \"@openzeppelin/contracts/access/Ownable.sol\":2534:2540  _owner */\n  0x00\n  dup1\n    /* \"@openzeppelin/contracts/access/Ownable.sol\":2534:2551  _owner = newOwner */\n  0x0100\n  exp\n  dup2\n  sload\n  dup2\n  0xffffffffffffffffffffffffffffffffffffffff\n  mul\n  not\n  and\n  swap1\n  dup4\n  0xffffffffffffffffffffffffffffffffffffffff\n  and\n  mul\n  or\n  swap1\n  sstore\n  pop\n    /* \"@openzeppelin/contracts/access/Ownable.sol\":2597:2605  newOwner */\n  dup2\n    /* \"@openzeppelin/contracts/access/Ownable.sol\":2566:2606  OwnershipTransferred(oldOwner, newOwner) */\n  0xffffffffffffffffffffffffffffffffffffffff\n  and\n    /* \"@openzeppelin/contracts/access/Ownable.sol\":2587:2595  oldOwner */\n  dup2\n    /* \"@openzeppelin/contracts/access/Ownable.sol\":2566:2606  OwnershipTransferred(oldOwner, newOwner) */\n  0xffffffffffffffffffffffffffffffffffffffff\n  and\n  0x8be0079c531659141344cd1fd0a4f28419497f9722a3daafe3b4186f6b6457e0\n  mload(0x40)\n  mload(0x40)\n  dup1\n  swap2\n  sub\n  swap1\n  log3\n    /* \"@openzeppelin/contracts/access/Ownable.sol\":2489:2613  {... */\n  pop\n    /* \"@openzeppelin/contracts/access/Ownable.sol\":2426:2613  function _transferOwnership(address newOwner) internal virtual {... */\n  pop\n  jump\t// out\n    /* \"#utility.yul\":88:205   */\ntag_16:\n    /* \"#utility.yul\":197:198   */\n  0x00\n    /* \"#utility.yul\":194:195   */\n  dup1\n    /* \"#utility.yul\":187:199   */\n  revert\n    /* \"#utility.yul\":334:460   */\ntag_18:\n    /* \"#utility.yul\":371:378   */\n  0x00\n    /* \"#utility.yul\":411:453   */\n  0xffffffffffffffffffffffffffffffffffffffff\n    /* \"#utility.yul\":404:409   */\n  dup3\n    /* \"#utility.yul\":400:454   */\n  and\n    /* \"#utility.yul\":389:454   */\n  swap1\n  pop\n    /* \"#utility.yul\":334:460   */\n  swap2\n  swap1\n  pop\n  jump\t// out\n    /* \"#utility.yul\":466:562   */\ntag_19:\n    /* \"#utility.yul\":503:510   */\n  0x00\n    /* \"#utility.yul\":532:556   */\n  tag_28\n    /* \"#utility.yul\":550:555   */\n  dup3\n    /* \"#utility.yul\":532:556   */\n  tag_18\n  jump\t// in\ntag_28:\n    /* \"#utility.yul\":521:556   */\n  swap1\n  pop\n    /* \"#utility.yul\":466:562   */\n  swap2\n  swap1\n  pop\n  jump\t// out\n    /* \"#utility.yul\":568:690   */\ntag_20:\n    /* \"#utility.yul\":641:665   */\n  tag_30\n    /* \"#utility.yul\":659:664   */\n  dup2\n    /* \"#utility.yul\":641:665   */\n  tag_19\n  jump\t// in\ntag_30:\n    /* \"#utility.yul\":634:639   */\n  dup2\n    /* \"#utility.yul\":631:666   */\n  eq\n    /* \"#utility.yul\":621:684   */\n  tag_31\n  jumpi\n    /* \"#utility.yul\":680:681   */\n  0x00\n    /* \"#utility.yul\":677:678   */\n  dup1\n    /* \"#utility.yul\":670:682   */\n  revert\n    /* \"#utility.yul\":621:684   */\ntag_31:\n    /* \"#utility.yul\":568:690   */\n  pop\n  jump\t// out\n    /* \"#utility.yul\":696:839   */\ntag_21:\n    /* \"#utility.yul\":753:758   */\n  0x00\n    /* \"#utility.yul\":784:790   */\n  dup2\n    /* \"#utility.yul\":778:791   */\n  mload\n    /* \"#utility.yul\":769:791   */\n  swap1\n  pop\n    /* \"#utility.yul\":800:833   */\n  tag_33\n    /* \"#utility.yul\":827:832   */\n  dup2\n    /* \"#utility.yul\":800:833   */\n  tag_20\n  jump\t// in\ntag_33:\n    /* \"#utility.yul\":696:839   */\n  swap3\n  swap2\n  pop\n  pop\n  jump\t// out\n    /* \"#utility.yul\":845:1196   */\ntag_3:\n    /* \"#utility.yul\":915:921   */\n  0x00\n    /* \"#utility.yul\":964:966   */\n  0x20\n    /* \"#utility.yul\":952:961   */\n  dup3\n    /* \"#utility.yul\":943:950   */\n  dup5\n    /* \"#utility.yul\":939:962   */\n  sub\n    /* \"#utility.yul\":935:967   */\n  slt\n    /* \"#utility.yul\":932:1051   */\n  iszero\n  tag_35\n  jumpi\n    /* \"#utility.yul\":970:1049   */\n  tag_36\n  tag_16\n  jump\t// in\ntag_36:\n    /* \"#utility.yul\":932:1051   */\ntag_35:\n    /* \"#utility.yul\":1090:1091   */\n  0x00\n    /* \"#utility.yul\":1115:1179   */\n  tag_37\n    /* \"#utility.yul\":1171:1178   */\n  dup5\n    /* \"#utility.yul\":1162:1168   */\n  dup3\n    /* \"#utility.yul\":1151:1160   */\n  dup6\n    /* \"#utility.yul\":1147:1169   */\n  add\n    /* \"#utility.yul\":1115:1179   */\n  tag_21\n  jump\t// in\ntag_37:\n    /* \"#utility.yul\":1105:1179   */\n  swap2\n  pop\n    /* \"#utility.yul\":1061:1189   */\n  pop\n    /* \"#utility.yul\":845:1196   */\n  swap3\n  swap2\n  pop\n  pop\n  jump\t// out\n    /* \"Twitter_Contract.sol\":389:3675  contract TwitterContract is Ownable {... */\ntag_12:\n  dataSize(sub_0)\n  dup1\n  dataOffset(sub_0)\n  0x00\n  codecopy\n  0x00\n  return\nstop\n\nsub_0: assembly {\n        /* \"Twitter_Contract.sol\":389:3675  contract TwitterContract is Ownable {... */\n      mstore(0x40, 0x80)\n      callvalue\n      dup1\n      iszero\n      tag_1\n      jumpi\n      0x00\n      dup1\n      revert\n    tag_1:\n      pop\n      jumpi(tag_2, lt(calldatasize, 0x04))\n      shr(0xe0, calldataload(0x00))\n      dup1\n      0x7c9cd2bc\n      gt\n      tag_14\n      jumpi\n      dup1\n      0x7c9cd2bc\n      eq\n      tag_8\n      jumpi\n      dup1\n      0x820785cc\n      eq\n      tag_9\n      jumpi\n      dup1\n      0x8da5cb5b\n      eq\n      tag_10\n      jumpi\n      dup1\n      0x9ef8633f\n      eq\n      tag_11\n      jumpi\n      dup1\n      0xc3ad5ecb\n      eq\n      tag_12\n      jumpi\n      dup1\n      0xf2fde38b\n      eq\n      tag_13\n      jumpi\n      jump(tag_2)\n    tag_14:\n      dup1\n      0x05a1b4a9\n      eq\n      tag_3\n      jumpi\n      dup1\n      0x12e7ee1c\n      eq\n      tag_4\n      jumpi\n      dup1\n      0x58bfa4ab\n      eq\n      tag_5\n      jumpi\n      dup1\n      0x63378216\n      eq\n      tag_6\n      jumpi\n      dup1\n      0x715018a6\n      eq\n      tag_7\n      jumpi\n    tag_2:\n      0x00\n      dup1\n      revert\n        /* \"Twitter_Contract.sol\":1064:1112  mapping (address => TweetStruct[]) public tweets */\n    tag_3:\n      tag_15\n      0x04\n      dup1\n      calldatasize\n      sub\n      dup2\n      add\n      swap1\n      tag_16\n      swap2\n      swap1\n      tag_17\n      jump\t// in\n    tag_16:\n      tag_18\n      jump\t// in\n    tag_15:\n      mload(0x40)\n      tag_19\n      swap6\n      swap5\n      swap4\n      swap3\n      swap2\n      swap1\n      tag_20\n      jump\t// in\n    tag_19:\n      mload(0x40)\n      dup1\n      swap2\n      sub\n      swap1\n      return\n        /* \"Twitter_Contract.sol\":3197:3334  function getAllTweets (address _authorAddress) public view returns(TweetStruct[] memory) {... */\n    tag_4:\n      tag_21\n      0x04\n      dup1\n      calldatasize\n      sub\n      dup2\n      add\n      swap1\n      tag_22\n      swap2\n      swap1\n      tag_23\n      jump\t// in\n    tag_22:\n      tag_24\n      jump\t// in\n    tag_21:\n      mload(0x40)\n      tag_25\n      swap2\n      swap1\n      tag_26\n      jump\t// in\n    tag_25:\n      mload(0x40)\n      dup1\n      swap2\n      sub\n      swap1\n      return\n        /* \"Twitter_Contract.sol\":2135:2257  function changeTweetLength (uint16 _newTweetLength) public onlyOwner {... */\n    tag_5:\n      tag_27\n      0x04\n      dup1\n      calldatasize\n      sub\n      dup2\n      add\n      swap1\n      tag_28\n      swap2\n      swap1\n      tag_29\n      jump\t// in\n    tag_28:\n      tag_30\n      jump\t// in\n    tag_27:\n      stop\n        /* \"Twitter_Contract.sol\":2301:2581  function likeTweet (address _author, uint256 _id) external OnlyRegistered {... */\n    tag_6:\n      tag_31\n      0x04\n      dup1\n      calldatasize\n      sub\n      dup2\n      add\n      swap1\n      tag_32\n      swap2\n      swap1\n      tag_17\n      jump\t// in\n    tag_32:\n      tag_33\n      jump\t// in\n    tag_31:\n      stop\n        /* \"@openzeppelin/contracts/access/Ownable.sol\":1824:1925  function renounceOwnership() public virtual onlyOwner {... */\n    tag_7:\n      tag_34\n      tag_35\n      jump\t// in\n    tag_34:\n      stop\n        /* \"Twitter_Contract.sol\":1524:2082  function createTweet (string memory _tweetText) public OnlyRegistered {... */\n    tag_8:\n      tag_36\n      0x04\n      dup1\n      calldatasize\n      sub\n      dup2\n      add\n      swap1\n      tag_37\n      swap2\n      swap1\n      tag_38\n      jump\t// in\n    tag_37:\n      tag_39\n      jump\t// in\n    tag_36:\n      stop\n        /* \"Twitter_Contract.sol\":3383:3672  function getTotalLikes (address _authorAddress) external view returns (uint256) {... */\n    tag_9:\n      tag_40\n      0x04\n      dup1\n      calldatasize\n      sub\n      dup2\n      add\n      swap1\n      tag_41\n      swap2\n      swap1\n      tag_23\n      jump\t// in\n    tag_41:\n      tag_42\n      jump\t// in\n    tag_40:\n      mload(0x40)\n      tag_43\n      swap2\n      swap1\n      tag_44\n      jump\t// in\n    tag_43:\n      mload(0x40)\n      dup1\n      swap2\n      sub\n      swap1\n      return\n        /* \"@openzeppelin/contracts/access/Ownable.sol\":1201:1286  function owner() public view virtual returns (address) {... */\n    tag_10:\n      tag_45\n      tag_46\n      jump\t// in\n    tag_45:\n      mload(0x40)\n      tag_47\n      swap2\n      swap1\n      tag_48\n      jump\t// in\n    tag_47:\n      mload(0x40)\n      dup1\n      swap2\n      sub\n      swap1\n      return\n        /* \"Twitter_Contract.sol\":2627:2986  function unLikeTweet (address _author, uint256 _id) external OnlyRegistered {... */\n    tag_11:\n      tag_49\n      0x04\n      dup1\n      calldatasize\n      sub\n      dup2\n      add\n      swap1\n      tag_50\n      swap2\n      swap1\n      tag_17\n      jump\t// in\n    tag_50:\n      tag_51\n      jump\t// in\n    tag_49:\n      stop\n        /* \"Twitter_Contract.sol\":3029:3149  function getTweet (uint256 _i) public view returns (TweetStruct memory) {... */\n    tag_12:\n      tag_52\n      0x04\n      dup1\n      calldatasize\n      sub\n      dup2\n      add\n      swap1\n      tag_53\n      swap2\n      swap1\n      tag_54\n      jump\t// in\n    tag_53:\n      tag_55\n      jump\t// in\n    tag_52:\n      mload(0x40)\n      tag_56\n      swap2\n      swap1\n      tag_57\n      jump\t// in\n    tag_56:\n      mload(0x40)\n      dup1\n      swap2\n      sub\n      swap1\n      return\n        /* \"@openzeppelin/contracts/access/Ownable.sol\":2074:2272  function transferOwnership(address newOwner) public virtual onlyOwner {... */\n    tag_13:\n      tag_58\n      0x04\n      dup1\n      calldatasize\n      sub\n      dup2\n      add\n      swap1\n      tag_59\n      swap2\n      swap1\n      tag_23\n      jump\t// in\n    tag_59:\n      tag_60\n      jump\t// in\n    tag_58:\n      stop\n        /* \"Twitter_Contract.sol\":1064:1112  mapping (address => TweetStruct[]) public tweets */\n    tag_18:\n      mstore(0x20, 0x02)\n      dup2\n      0x00\n      mstore\n      keccak256(0x00, 0x40)\n      dup2\n      dup2\n      sload\n      dup2\n      lt\n      tag_61\n      jumpi\n      0x00\n      dup1\n      revert\n    tag_61:\n      swap1\n      0x00\n      mstore\n      keccak256(0x00, 0x20)\n      swap1\n      0x05\n      mul\n      add\n      0x00\n      swap2\n      pop\n      swap2\n      pop\n      pop\n      dup1\n      0x00\n      add\n      sload\n      swap1\n      dup1\n      0x01\n      add\n      0x00\n      swap1\n      sload\n      swap1\n      0x0100\n      exp\n      swap1\n      div\n      0xffffffffffffffffffffffffffffffffffffffff\n      and\n      swap1\n      dup1\n      0x02\n      add\n      dup1\n      sload\n      tag_63\n      swap1\n      tag_64\n      jump\t// in\n    tag_63:\n      dup1\n      0x1f\n      add\n      0x20\n      dup1\n      swap2\n      div\n      mul\n      0x20\n      add\n      mload(0x40)\n      swap1\n      dup2\n      add\n      0x40\n      mstore\n      dup1\n      swap3\n      swap2\n      swap1\n      dup2\n      dup2\n      mstore\n      0x20\n      add\n      dup3\n      dup1\n      sload\n      tag_65\n      swap1\n      tag_64\n      jump\t// in\n    tag_65:\n      dup1\n      iszero\n      tag_66\n      jumpi\n      dup1\n      0x1f\n      lt\n      tag_67\n      jumpi\n      0x0100\n      dup1\n      dup4\n      sload\n      div\n      mul\n      dup4\n      mstore\n      swap2\n      0x20\n      add\n      swap2\n      jump(tag_66)\n    tag_67:\n      dup3\n      add\n      swap2\n      swap1\n      0x00\n      mstore\n      keccak256(0x00, 0x20)\n      swap1\n    tag_68:\n      dup2\n      sload\n      dup2\n      mstore\n      swap1\n      0x01\n      add\n      swap1\n      0x20\n      add\n      dup1\n      dup4\n      gt\n      tag_68\n      jumpi\n      dup3\n      swap1\n      sub\n      0x1f\n      and\n      dup3\n      add\n      swap2\n    tag_66:\n      pop\n      pop\n      pop\n      pop\n      pop\n      swap1\n      dup1\n      0x03\n      add\n      sload\n      swap1\n      dup1\n      0x04\n      add\n      sload\n      swap1\n      pop\n      dup6\n      jump\t// out\n        /* \"Twitter_Contract.sol\":3197:3334  function getAllTweets (address _authorAddress) public view returns(TweetStruct[] memory) {... */\n    tag_24:\n        /* \"Twitter_Contract.sol\":3264:3284  TweetStruct[] memory */\n      0x60\n        /* \"Twitter_Contract.sol\":3304:3310  tweets */\n      0x02\n        /* \"Twitter_Contract.sol\":3304:3326  tweets[_authorAddress] */\n      0x00\n        /* \"Twitter_Contract.sol\":3311:3325  _authorAddress */\n      dup4\n        /* \"Twitter_Contract.sol\":3304:3326  tweets[_authorAddress] */\n      0xffffffffffffffffffffffffffffffffffffffff\n      and\n      0xffffffffffffffffffffffffffffffffffffffff\n      and\n      dup2\n      mstore\n      0x20\n      add\n      swap1\n      dup2\n      mstore\n      0x20\n      add\n      0x00\n      keccak256\n        /* \"Twitter_Contract.sol\":3297:3326  return tweets[_authorAddress] */\n      dup1\n      sload\n      dup1\n      0x20\n      mul\n      0x20\n      add\n      mload(0x40)\n      swap1\n      dup2\n      add\n      0x40\n      mstore\n      dup1\n      swap3\n      swap2\n      swap1\n      dup2\n      dup2\n      mstore\n      0x20\n      add\n      0x00\n      swap1\n    tag_70:\n      dup3\n      dup3\n      lt\n      iszero\n      tag_71\n      jumpi\n      dup4\n      dup3\n      swap1\n      0x00\n      mstore\n      keccak256(0x00, 0x20)\n      swap1\n      0x05\n      mul\n      add\n      mload(0x40)\n      dup1\n      0xa0\n      add\n      0x40\n      mstore\n      swap1\n      dup2\n      0x00\n      dup3\n      add\n      sload\n      dup2\n      mstore\n      0x20\n      add\n      0x01\n      dup3\n      add\n      0x00\n      swap1\n      sload\n      swap1\n      0x0100\n      exp\n      swap1\n      div\n      0xffffffffffffffffffffffffffffffffffffffff\n      and\n      0xffffffffffffffffffffffffffffffffffffffff\n      and\n      0xffffffffffffffffffffffffffffffffffffffff\n      and\n      dup2\n      mstore\n      0x20\n      add\n      0x02\n      dup3\n      add\n      dup1\n      sload\n      tag_73\n      swap1\n      tag_64\n      jump\t// in\n    tag_73:\n      dup1\n      0x1f\n      add\n      0x20\n      dup1\n      swap2\n      div\n      mul\n      0x20\n      add\n      mload(0x40)\n      swap1\n      dup2\n      add\n      0x40\n      mstore\n      dup1\n      swap3\n      swap2\n      swap1\n      dup2\n      dup2\n      mstore\n      0x20\n      add\n      dup3\n      dup1\n      sload\n      tag_74\n      swap1\n      tag_64\n      jump\t// in\n    tag_74:\n      dup1\n      iszero\n      tag_75\n      jumpi\n      dup1\n      0x1f\n      lt\n      tag_76\n      jumpi\n      0x0100\n      dup1\n      dup4\n      sload\n      div\n      mul\n      dup4\n      mstore\n      swap2\n      0x20\n      add\n      swap2\n      jump(tag_75)\n    tag_76:\n      dup3\n      add\n      swap2\n      swap1\n      0x00\n      mstore\n      keccak256(0x00, 0x20)\n      swap1\n    tag_77:\n      dup2\n      sload\n      dup2\n      mstore\n      swap1\n      0x01\n      add\n      swap1\n      0x20\n      add\n      dup1\n      dup4\n      gt\n      tag_77\n      jumpi\n      dup3\n      swap1\n      sub\n      0x1f\n      and\n      dup3\n      add\n      swap2\n    tag_75:\n      pop\n      pop\n      pop\n      pop\n      pop\n      dup2\n      mstore\n      0x20\n      add\n      0x03\n      dup3\n      add\n      sload\n      dup2\n      mstore\n      0x20\n      add\n      0x04\n      dup3\n      add\n      sload\n      dup2\n      mstore\n      pop\n      pop\n      dup2\n      mstore\n      0x20\n      add\n      swap1\n      0x01\n      add\n      swap1\n      jump(tag_70)\n    tag_71:\n      pop\n      pop\n      pop\n      pop\n      swap1\n      pop\n        /* \"Twitter_Contract.sol\":3197:3334  function getAllTweets (address _authorAddress) public view returns(TweetStruct[] memory) {... */\n      swap2\n      swap1\n      pop\n      jump\t// out\n        /* \"Twitter_Contract.sol\":2135:2257  function changeTweetLength (uint16 _newTweetLength) public onlyOwner {... */\n    tag_30:\n        /* \"@openzeppelin/contracts/access/Ownable.sol\":1094:1107  _checkOwner() */\n      tag_79\n        /* \"@openzeppelin/contracts/access/Ownable.sol\":1094:1105  _checkOwner */\n      tag_80\n        /* \"@openzeppelin/contracts/access/Ownable.sol\":1094:1107  _checkOwner() */\n      jump\t// in\n    tag_79:\n        /* \"Twitter_Contract.sol\":2234:2249  _newTweetLength */\n      dup1\n        /* \"Twitter_Contract.sol\":2215:2231  MAX_TWEET_LENGTH */\n      0x00\n      0x14\n        /* \"Twitter_Contract.sol\":2215:2249  MAX_TWEET_LENGTH = _newTweetLength */\n      0x0100\n      exp\n      dup2\n      sload\n      dup2\n      0xffff\n      mul\n      not\n      and\n      swap1\n      dup4\n      0xffff\n      and\n      mul\n      or\n      swap1\n      sstore\n      pop\n        /* \"Twitter_Contract.sol\":2135:2257  function changeTweetLength (uint16 _newTweetLength) public onlyOwner {... */\n      pop\n      jump\t// out\n        /* \"Twitter_Contract.sol\":2301:2581  function likeTweet (address _author, uint256 _id) external OnlyRegistered {... */\n    tag_33:\n        /* \"Twitter_Contract.sol\":695:740  IProfile.UserProfileStruct memory userProfile */\n      0x00\n        /* \"Twitter_Contract.sol\":743:764  createProfileContract */\n      0x01\n      0x00\n      swap1\n      sload\n      swap1\n      0x0100\n      exp\n      swap1\n      div\n      0xffffffffffffffffffffffffffffffffffffffff\n      and\n        /* \"Twitter_Contract.sol\":743:775  createProfileContract.getProfile */\n      0xffffffffffffffffffffffffffffffffffffffff\n      and\n      0x0f53a470\n        /* \"Twitter_Contract.sol\":776:786  msg.sender */\n      caller\n        /* \"Twitter_Contract.sol\":743:787  createProfileContract.getProfile(msg.sender) */\n      mload(0x40)\n      dup3\n      0xffffffff\n      and\n      0xe0\n      shl\n      dup2\n      mstore\n      0x04\n      add\n      tag_83\n      swap2\n      swap1\n      tag_48\n      jump\t// in\n    tag_83:\n      0x00\n      mload(0x40)\n      dup1\n      dup4\n      sub\n      dup2\n      dup7\n      gas\n      staticcall\n      iszero\n      dup1\n      iszero\n      tag_85\n      jumpi\n      returndatasize\n      0x00\n      dup1\n      returndatacopy\n      revert(0x00, returndatasize)\n    tag_85:\n      pop\n      pop\n      pop\n      pop\n      mload(0x40)\n      returndatasize\n      0x00\n      dup3\n      returndatacopy\n      returndatasize\n      not(0x1f)\n      0x1f\n      dup3\n      add\n      and\n      dup3\n      add\n      dup1\n      0x40\n      mstore\n      pop\n      dup2\n      add\n      swap1\n      tag_86\n      swap2\n      swap1\n      tag_87\n      jump\t// in\n    tag_86:\n        /* \"Twitter_Contract.sol\":695:787  IProfile.UserProfileStruct memory userProfile = createProfileContract.getProfile(msg.sender) */\n      swap1\n      pop\n        /* \"Twitter_Contract.sol\":846:847  0 */\n      0x00\n        /* \"Twitter_Contract.sol\":812:823  userProfile */\n      dup2\n        /* \"Twitter_Contract.sol\":812:835  userProfile.displayName */\n      0x00\n      add\n      mload\n        /* \"Twitter_Contract.sol\":806:843  bytes(userProfile.displayName).length */\n      mload\n        /* \"Twitter_Contract.sol\":806:847  bytes(userProfile.displayName).length > 0 */\n      gt\n        /* \"Twitter_Contract.sol\":798:872  require(bytes(userProfile.displayName).length > 0, \"User Not Registered!\") */\n      tag_88\n      jumpi\n      mload(0x40)\n      0x08c379a000000000000000000000000000000000000000000000000000000000\n      dup2\n      mstore\n      0x04\n      add\n      tag_89\n      swap1\n      tag_90\n      jump\t// in\n    tag_89:\n      mload(0x40)\n      dup1\n      swap2\n      sub\n      swap1\n      revert\n    tag_88:\n        /* \"Twitter_Contract.sol\":2421:2424  _id */\n      dup2\n        /* \"Twitter_Contract.sol\":2394:2400  tweets */\n      0x02\n        /* \"Twitter_Contract.sol\":2394:2409  tweets[_author] */\n      0x00\n        /* \"Twitter_Contract.sol\":2401:2408  _author */\n      dup6\n        /* \"Twitter_Contract.sol\":2394:2409  tweets[_author] */\n      0xffffffffffffffffffffffffffffffffffffffff\n      and\n      0xffffffffffffffffffffffffffffffffffffffff\n      and\n      dup2\n      mstore\n      0x20\n      add\n      swap1\n      dup2\n      mstore\n      0x20\n      add\n      0x00\n      keccak256\n        /* \"Twitter_Contract.sol\":2410:2413  _id */\n      dup4\n        /* \"Twitter_Contract.sol\":2394:2414  tweets[_author][_id] */\n      dup2\n      sload\n      dup2\n      lt\n      tag_92\n      jumpi\n      tag_93\n      tag_94\n      jump\t// in\n    tag_93:\n    tag_92:\n      swap1\n      0x00\n      mstore\n      keccak256(0x00, 0x20)\n      swap1\n      0x05\n      mul\n      add\n        /* \"Twitter_Contract.sol\":2394:2417  tweets[_author][_id].id */\n      0x00\n      add\n      sload\n        /* \"Twitter_Contract.sol\":2394:2424  tweets[_author][_id].id == _id */\n      eq\n        /* \"Twitter_Contract.sol\":2386:2449  require(tweets[_author][_id].id == _id, \"Tweet Doesn't Exist!\") */\n      tag_96\n      jumpi\n      mload(0x40)\n      0x08c379a000000000000000000000000000000000000000000000000000000000\n      dup2\n      mstore\n      0x04\n      add\n      tag_97\n      swap1\n      tag_98\n      jump\t// in\n    tag_97:\n      mload(0x40)\n      dup1\n      swap2\n      sub\n      swap1\n      revert\n    tag_96:\n        /* \"Twitter_Contract.sol\":2490:2491  1 */\n      0x01\n        /* \"Twitter_Contract.sol\":2460:2466  tweets */\n      0x02\n        /* \"Twitter_Contract.sol\":2460:2475  tweets[_author] */\n      0x00\n        /* \"Twitter_Contract.sol\":2467:2474  _author */\n      dup6\n        /* \"Twitter_Contract.sol\":2460:2475  tweets[_author] */\n      0xffffffffffffffffffffffffffffffffffffffff\n      and\n      0xffffffffffffffffffffffffffffffffffffffff\n      and\n      dup2\n      mstore\n      0x20\n      add\n      swap1\n      dup2\n      mstore\n      0x20\n      add\n      0x00\n      keccak256\n        /* \"Twitter_Contract.sol\":2476:2479  _id */\n      dup4\n        /* \"Twitter_Contract.sol\":2460:2480  tweets[_author][_id] */\n      dup2\n      sload\n      dup2\n      lt\n      tag_99\n      jumpi\n      tag_100\n      tag_94\n      jump\t// in\n    tag_100:\n    tag_99:\n      swap1\n      0x00\n      mstore\n      keccak256(0x00, 0x20)\n      swap1\n      0x05\n      mul\n      add\n        /* \"Twitter_Contract.sol\":2460:2486  tweets[_author][_id].likes */\n      0x04\n      add\n      0x00\n        /* \"Twitter_Contract.sol\":2460:2491  tweets[_author][_id].likes += 1 */\n      dup3\n      dup3\n      sload\n      tag_102\n      swap2\n      swap1\n      tag_103\n      jump\t// in\n    tag_102:\n      swap3\n      pop\n      pop\n      dup2\n      swap1\n      sstore\n      pop\n        /* \"Twitter_Contract.sol\":2520:2530  msg.sender */\n      caller\n        /* \"Twitter_Contract.sol\":2509:2573  TweetLiked(msg.sender, _author, _id, tweets[_author][_id].likes) */\n      0xffffffffffffffffffffffffffffffffffffffff\n      and\n      0xe8a76fc0f16d11a00d1e93b689b63d76cf60af914dd3d915375dc41d01a0c3c8\n        /* \"Twitter_Contract.sol\":2532:2539  _author */\n      dup5\n        /* \"Twitter_Contract.sol\":2541:2544  _id */\n      dup5\n        /* \"Twitter_Contract.sol\":2546:2552  tweets */\n      0x02\n        /* \"Twitter_Contract.sol\":2546:2561  tweets[_author] */\n      0x00\n        /* \"Twitter_Contract.sol\":2553:2560  _author */\n      dup9\n        /* \"Twitter_Contract.sol\":2546:2561  tweets[_author] */\n      0xffffffffffffffffffffffffffffffffffffffff\n      and\n      0xffffffffffffffffffffffffffffffffffffffff\n      and\n      dup2\n      mstore\n      0x20\n      add\n      swap1\n      dup2\n      mstore\n      0x20\n      add\n      0x00\n      keccak256\n        /* \"Twitter_Contract.sol\":2562:2565  _id */\n      dup7\n        /* \"Twitter_Contract.sol\":2546:2566  tweets[_author][_id] */\n      dup2\n      sload\n      dup2\n      lt\n      tag_104\n      jumpi\n      tag_105\n      tag_94\n      jump\t// in\n    tag_105:\n    tag_104:\n      swap1\n      0x00\n      mstore\n      keccak256(0x00, 0x20)\n      swap1\n      0x05\n      mul\n      add\n        /* \"Twitter_Contract.sol\":2546:2572  tweets[_author][_id].likes */\n      0x04\n      add\n      sload\n        /* \"Twitter_Contract.sol\":2509:2573  TweetLiked(msg.sender, _author, _id, tweets[_author][_id].likes) */\n      mload(0x40)\n      tag_107\n      swap4\n      swap3\n      swap2\n      swap1\n      tag_108\n      jump\t// in\n    tag_107:\n      mload(0x40)\n      dup1\n      swap2\n      sub\n      swap1\n      log2\n        /* \"Twitter_Contract.sol\":684:892  {... */\n      pop\n        /* \"Twitter_Contract.sol\":2301:2581  function likeTweet (address _author, uint256 _id) external OnlyRegistered {... */\n      pop\n      pop\n      jump\t// out\n        /* \"@openzeppelin/contracts/access/Ownable.sol\":1824:1925  function renounceOwnership() public virtual onlyOwner {... */\n    tag_35:\n        /* \"@openzeppelin/contracts/access/Ownable.sol\":1094:1107  _checkOwner() */\n      tag_110\n        /* \"@openzeppelin/contracts/access/Ownable.sol\":1094:1105  _checkOwner */\n      tag_80\n        /* \"@openzeppelin/contracts/access/Ownable.sol\":1094:1107  _checkOwner() */\n      jump\t// in\n    tag_110:\n        /* \"@openzeppelin/contracts/access/Ownable.sol\":1888:1918  _transferOwnership(address(0)) */\n      tag_112\n        /* \"@openzeppelin/contracts/access/Ownable.sol\":1915:1916  0 */\n      0x00\n        /* \"@openzeppelin/contracts/access/Ownable.sol\":1888:1906  _transferOwnership */\n      tag_113\n        /* \"@openzeppelin/contracts/access/Ownable.sol\":1888:1918  _transferOwnership(address(0)) */\n      jump\t// in\n    tag_112:\n        /* \"@openzeppelin/contracts/access/Ownable.sol\":1824:1925  function renounceOwnership() public virtual onlyOwner {... */\n      jump\t// out\n        /* \"Twitter_Contract.sol\":1524:2082  function createTweet (string memory _tweetText) public OnlyRegistered {... */\n    tag_39:\n        /* \"Twitter_Contract.sol\":695:740  IProfile.UserProfileStruct memory userProfile */\n      0x00\n        /* \"Twitter_Contract.sol\":743:764  createProfileContract */\n      0x01\n      0x00\n      swap1\n      sload\n      swap1\n      0x0100\n      exp\n      swap1\n      div\n      0xffffffffffffffffffffffffffffffffffffffff\n      and\n        /* \"Twitter_Contract.sol\":743:775  createProfileContract.getProfile */\n      0xffffffffffffffffffffffffffffffffffffffff\n      and\n      0x0f53a470\n        /* \"Twitter_Contract.sol\":776:786  msg.sender */\n      caller\n        /* \"Twitter_Contract.sol\":743:787  createProfileContract.getProfile(msg.sender) */\n      mload(0x40)\n      dup3\n      0xffffffff\n      and\n      0xe0\n      shl\n      dup2\n      mstore\n      0x04\n      add\n      tag_115\n      swap2\n      swap1\n      tag_48\n      jump\t// in\n    tag_115:\n      0x00\n      mload(0x40)\n      dup1\n      dup4\n      sub\n      dup2\n      dup7\n      gas\n      staticcall\n      iszero\n      dup1\n      iszero\n      tag_117\n      jumpi\n      returndatasize\n      0x00\n      dup1\n      returndatacopy\n      revert(0x00, returndatasize)\n    tag_117:\n      pop\n      pop\n      pop\n      pop\n      mload(0x40)\n      returndatasize\n      0x00\n      dup3\n      returndatacopy\n      returndatasize\n      not(0x1f)\n      0x1f\n      dup3\n      add\n      and\n      dup3\n      add\n      dup1\n      0x40\n      mstore\n      pop\n      dup2\n      add\n      swap1\n      tag_118\n      swap2\n      swap1\n      tag_87\n      jump\t// in\n    tag_118:\n        /* \"Twitter_Contract.sol\":695:787  IProfile.UserProfileStruct memory userProfile = createProfileContract.getProfile(msg.sender) */\n      swap1\n      pop\n        /* \"Twitter_Contract.sol\":846:847  0 */\n      0x00\n        /* \"Twitter_Contract.sol\":812:823  userProfile */\n      dup2\n        /* \"Twitter_Contract.sol\":812:835  userProfile.displayName */\n      0x00\n      add\n      mload\n        /* \"Twitter_Contract.sol\":806:843  bytes(userProfile.displayName).length */\n      mload\n        /* \"Twitter_Contract.sol\":806:847  bytes(userProfile.displayName).length > 0 */\n      gt\n        /* \"Twitter_Contract.sol\":798:872  require(bytes(userProfile.displayName).length > 0, \"User Not Registered!\") */\n      tag_119\n      jumpi\n      mload(0x40)\n      0x08c379a000000000000000000000000000000000000000000000000000000000\n      dup2\n      mstore\n      0x04\n      add\n      tag_120\n      swap1\n      tag_90\n      jump\t// in\n    tag_120:\n      mload(0x40)\n      dup1\n      swap2\n      sub\n      swap1\n      revert\n    tag_119:\n        /* \"Twitter_Contract.sol\":1641:1657  MAX_TWEET_LENGTH */\n      0x00\n      0x14\n      swap1\n      sload\n      swap1\n      0x0100\n      exp\n      swap1\n      div\n      0xffff\n      and\n        /* \"Twitter_Contract.sol\":1613:1657  bytes(_tweetText).length <= MAX_TWEET_LENGTH */\n      0xffff\n      and\n        /* \"Twitter_Contract.sol\":1619:1629  _tweetText */\n      dup3\n        /* \"Twitter_Contract.sol\":1613:1637  bytes(_tweetText).length */\n      mload\n        /* \"Twitter_Contract.sol\":1613:1657  bytes(_tweetText).length <= MAX_TWEET_LENGTH */\n      gt\n      iszero\n        /* \"Twitter_Contract.sol\":1605:1680  require(bytes(_tweetText).length <= MAX_TWEET_LENGTH, \"Tweet is too long!\") */\n      tag_122\n      jumpi\n      mload(0x40)\n      0x08c379a000000000000000000000000000000000000000000000000000000000\n      dup2\n      mstore\n      0x04\n      add\n      tag_123\n      swap1\n      tag_124\n      jump\t// in\n    tag_123:\n      mload(0x40)\n      dup1\n      swap2\n      sub\n      swap1\n      revert\n    tag_122:\n        /* \"Twitter_Contract.sol\":1693:1720  TweetStruct memory newTweet */\n      0x00\n        /* \"Twitter_Contract.sol\":1723:1922  TweetStruct({... */\n      mload(0x40)\n      dup1\n      0xa0\n      add\n      0x40\n      mstore\n      dup1\n        /* \"Twitter_Contract.sol\":1754:1760  tweets */\n      0x02\n        /* \"Twitter_Contract.sol\":1754:1772  tweets[msg.sender] */\n      0x00\n        /* \"Twitter_Contract.sol\":1761:1771  msg.sender */\n      caller\n        /* \"Twitter_Contract.sol\":1754:1772  tweets[msg.sender] */\n      0xffffffffffffffffffffffffffffffffffffffff\n      and\n      0xffffffffffffffffffffffffffffffffffffffff\n      and\n      dup2\n      mstore\n      0x20\n      add\n      swap1\n      dup2\n      mstore\n      0x20\n      add\n      0x00\n      keccak256\n        /* \"Twitter_Contract.sol\":1754:1779  tweets[msg.sender].length */\n      dup1\n      sload\n      swap1\n      pop\n        /* \"Twitter_Contract.sol\":1723:1922  TweetStruct({... */\n      dup2\n      mstore\n      0x20\n      add\n        /* \"Twitter_Contract.sol\":1802:1812  msg.sender */\n      caller\n        /* \"Twitter_Contract.sol\":1723:1922  TweetStruct({... */\n      0xffffffffffffffffffffffffffffffffffffffff\n      and\n      dup2\n      mstore\n      0x20\n      add\n        /* \"Twitter_Contract.sol\":1836:1846  _tweetText */\n      dup5\n        /* \"Twitter_Contract.sol\":1723:1922  TweetStruct({... */\n      dup2\n      mstore\n      0x20\n      add\n        /* \"Twitter_Contract.sol\":1872:1887  block.timestamp */\n      timestamp\n        /* \"Twitter_Contract.sol\":1723:1922  TweetStruct({... */\n      dup2\n      mstore\n      0x20\n      add\n        /* \"Twitter_Contract.sol\":1909:1910  0 */\n      0x00\n        /* \"Twitter_Contract.sol\":1723:1922  TweetStruct({... */\n      dup2\n      mstore\n      pop\n        /* \"Twitter_Contract.sol\":1693:1922  TweetStruct memory newTweet = TweetStruct({... */\n      swap1\n      pop\n        /* \"Twitter_Contract.sol\":1945:1951  tweets */\n      0x02\n        /* \"Twitter_Contract.sol\":1945:1963  tweets[msg.sender] */\n      0x00\n        /* \"Twitter_Contract.sol\":1952:1962  msg.sender */\n      caller\n        /* \"Twitter_Contract.sol\":1945:1963  tweets[msg.sender] */\n      0xffffffffffffffffffffffffffffffffffffffff\n      and\n      0xffffffffffffffffffffffffffffffffffffffff\n      and\n      dup2\n      mstore\n      0x20\n      add\n      swap1\n      dup2\n      mstore\n      0x20\n      add\n      0x00\n      keccak256\n        /* \"Twitter_Contract.sol\":1969:1977  newTweet */\n      dup2\n        /* \"Twitter_Contract.sol\":1945:1978  tweets[msg.sender].push(newTweet) */\n      swap1\n      dup1\n      0x01\n      dup2\n      sload\n      add\n      dup1\n      dup3\n      sstore\n      dup1\n      swap2\n      pop\n      pop\n      0x01\n      swap1\n      sub\n      swap1\n      0x00\n      mstore\n      keccak256(0x00, 0x20)\n      swap1\n      0x05\n      mul\n      add\n      0x00\n      swap1\n      swap2\n      swap1\n      swap2\n      swap1\n      swap2\n      pop\n      0x00\n      dup3\n      add\n      mload\n      dup2\n      0x00\n      add\n      sstore\n      0x20\n      dup3\n      add\n      mload\n      dup2\n      0x01\n      add\n      exp(0x0100, 0x00)\n      dup2\n      sload\n      dup2\n      0xffffffffffffffffffffffffffffffffffffffff\n      mul\n      not\n      and\n      swap1\n      dup4\n      0xffffffffffffffffffffffffffffffffffffffff\n      and\n      mul\n      or\n      swap1\n      sstore\n      pop\n      0x40\n      dup3\n      add\n      mload\n      dup2\n      0x02\n      add\n      swap1\n      dup2\n      tag_126\n      swap2\n      swap1\n      tag_127\n      jump\t// in\n    tag_126:\n      pop\n      0x60\n      dup3\n      add\n      mload\n      dup2\n      0x03\n      add\n      sstore\n      0x80\n      dup3\n      add\n      mload\n      dup2\n      0x04\n      add\n      sstore\n      pop\n      pop\n        /* \"Twitter_Contract.sol\":2020:2028  newTweet */\n      dup1\n        /* \"Twitter_Contract.sol\":2020:2035  newTweet.author */\n      0x20\n      add\n      mload\n        /* \"Twitter_Contract.sol\":1994:2074  TweetCreated(newTweet.id, newTweet.author, newTweet.content, newTweet.timestamp) */\n      0xffffffffffffffffffffffffffffffffffffffff\n      and\n      0x16fd3c13e9d46923e0a8bce11c7b473ec508a72e6c96cd2404b29ce972afc29e\n        /* \"Twitter_Contract.sol\":2007:2015  newTweet */\n      dup3\n        /* \"Twitter_Contract.sol\":2007:2018  newTweet.id */\n      0x00\n      add\n      mload\n        /* \"Twitter_Contract.sol\":2037:2045  newTweet */\n      dup4\n        /* \"Twitter_Contract.sol\":2037:2053  newTweet.content */\n      0x40\n      add\n      mload\n        /* \"Twitter_Contract.sol\":2055:2063  newTweet */\n      dup5\n        /* \"Twitter_Contract.sol\":2055:2073  newTweet.timestamp */\n      0x60\n      add\n      mload\n        /* \"Twitter_Contract.sol\":1994:2074  TweetCreated(newTweet.id, newTweet.author, newTweet.content, newTweet.timestamp) */\n      mload(0x40)\n      tag_128\n      swap4\n      swap3\n      swap2\n      swap1\n      tag_129\n      jump\t// in\n    tag_128:\n      mload(0x40)\n      dup1\n      swap2\n      sub\n      swap1\n      log2\n        /* \"Twitter_Contract.sol\":1594:2082  {... */\n      pop\n        /* \"Twitter_Contract.sol\":684:892  {... */\n      pop\n        /* \"Twitter_Contract.sol\":1524:2082  function createTweet (string memory _tweetText) public OnlyRegistered {... */\n      pop\n      jump\t// out\n        /* \"Twitter_Contract.sol\":3383:3672  function getTotalLikes (address _authorAddress) external view returns (uint256) {... */\n    tag_42:\n        /* \"Twitter_Contract.sol\":3454:3461  uint256 */\n      0x00\n        /* \"Twitter_Contract.sol\":3474:3492  uint256 totalLikes */\n      dup1\n        /* \"Twitter_Contract.sol\":3510:3519  uint256 i */\n      0x00\n        /* \"Twitter_Contract.sol\":3505:3637  for (uint256 i = 0; i < tweets[_authorAddress].length; i++) {... */\n    tag_131:\n        /* \"Twitter_Contract.sol\":3529:3535  tweets */\n      0x02\n        /* \"Twitter_Contract.sol\":3529:3551  tweets[_authorAddress] */\n      0x00\n        /* \"Twitter_Contract.sol\":3536:3550  _authorAddress */\n      dup6\n        /* \"Twitter_Contract.sol\":3529:3551  tweets[_authorAddress] */\n      0xffffffffffffffffffffffffffffffffffffffff\n      and\n      0xffffffffffffffffffffffffffffffffffffffff\n      and\n      dup2\n      mstore\n      0x20\n      add\n      swap1\n      dup2\n      mstore\n      0x20\n      add\n      0x00\n      keccak256\n        /* \"Twitter_Contract.sol\":3529:3558  tweets[_authorAddress].length */\n      dup1\n      sload\n      swap1\n      pop\n        /* \"Twitter_Contract.sol\":3525:3526  i */\n      dup2\n        /* \"Twitter_Contract.sol\":3525:3558  i < tweets[_authorAddress].length */\n      lt\n        /* \"Twitter_Contract.sol\":3505:3637  for (uint256 i = 0; i < tweets[_authorAddress].length; i++) {... */\n      iszero\n      tag_132\n      jumpi\n        /* \"Twitter_Contract.sol\":3594:3600  tweets */\n      0x02\n        /* \"Twitter_Contract.sol\":3594:3616  tweets[_authorAddress] */\n      0x00\n        /* \"Twitter_Contract.sol\":3601:3615  _authorAddress */\n      dup6\n        /* \"Twitter_Contract.sol\":3594:3616  tweets[_authorAddress] */\n      0xffffffffffffffffffffffffffffffffffffffff\n      and\n      0xffffffffffffffffffffffffffffffffffffffff\n      and\n      dup2\n      mstore\n      0x20\n      add\n      swap1\n      dup2\n      mstore\n      0x20\n      add\n      0x00\n      keccak256\n        /* \"Twitter_Contract.sol\":3617:3618  i */\n      dup2\n        /* \"Twitter_Contract.sol\":3594:3619  tweets[_authorAddress][i] */\n      dup2\n      sload\n      dup2\n      lt\n      tag_134\n      jumpi\n      tag_135\n      tag_94\n      jump\t// in\n    tag_135:\n    tag_134:\n      swap1\n      0x00\n      mstore\n      keccak256(0x00, 0x20)\n      swap1\n      0x05\n      mul\n      add\n        /* \"Twitter_Contract.sol\":3594:3625  tweets[_authorAddress][i].likes */\n      0x04\n      add\n      sload\n        /* \"Twitter_Contract.sol\":3580:3625  totalLikes += tweets[_authorAddress][i].likes */\n      dup3\n      tag_137\n      swap2\n      swap1\n      tag_103\n      jump\t// in\n    tag_137:\n      swap2\n      pop\n        /* \"Twitter_Contract.sol\":3560:3563  i++ */\n      dup1\n      dup1\n      tag_138\n      swap1\n      tag_139\n      jump\t// in\n    tag_138:\n      swap2\n      pop\n      pop\n        /* \"Twitter_Contract.sol\":3505:3637  for (uint256 i = 0; i < tweets[_authorAddress].length; i++) {... */\n      jump(tag_131)\n    tag_132:\n      pop\n        /* \"Twitter_Contract.sol\":3654:3664  totalLikes */\n      dup1\n        /* \"Twitter_Contract.sol\":3647:3664  return totalLikes */\n      swap2\n      pop\n      pop\n        /* \"Twitter_Contract.sol\":3383:3672  function getTotalLikes (address _authorAddress) external view returns (uint256) {... */\n      swap2\n      swap1\n      pop\n      jump\t// out\n        /* \"@openzeppelin/contracts/access/Ownable.sol\":1201:1286  function owner() public view virtual returns (address) {... */\n    tag_46:\n        /* \"@openzeppelin/contracts/access/Ownable.sol\":1247:1254  address */\n      0x00\n        /* \"@openzeppelin/contracts/access/Ownable.sol\":1273:1279  _owner */\n      dup1\n      0x00\n      swap1\n      sload\n      swap1\n      0x0100\n      exp\n      swap1\n      div\n      0xffffffffffffffffffffffffffffffffffffffff\n      and\n        /* \"@openzeppelin/contracts/access/Ownable.sol\":1266:1279  return _owner */\n      swap1\n      pop\n        /* \"@openzeppelin/contracts/access/Ownable.sol\":1201:1286  function owner() public view virtual returns (address) {... */\n      swap1\n      jump\t// out\n        /* \"Twitter_Contract.sol\":2627:2986  function unLikeTweet (address _author, uint256 _id) external OnlyRegistered {... */\n    tag_51:\n        /* \"Twitter_Contract.sol\":695:740  IProfile.UserProfileStruct memory userProfile */\n      0x00\n        /* \"Twitter_Contract.sol\":743:764  createProfileContract */\n      0x01\n      0x00\n      swap1\n      sload\n      swap1\n      0x0100\n      exp\n      swap1\n      div\n      0xffffffffffffffffffffffffffffffffffffffff\n      and\n        /* \"Twitter_Contract.sol\":743:775  createProfileContract.getProfile */\n      0xffffffffffffffffffffffffffffffffffffffff\n      and\n      0x0f53a470\n        /* \"Twitter_Contract.sol\":776:786  msg.sender */\n      caller\n        /* \"Twitter_Contract.sol\":743:787  createProfileContract.getProfile(msg.sender) */\n      mload(0x40)\n      dup3\n      0xffffffff\n      and\n      0xe0\n      shl\n      dup2\n      mstore\n      0x04\n      add\n      tag_142\n      swap2\n      swap1\n      tag_48\n      jump\t// in\n    tag_142:\n      0x00\n      mload(0x40)\n      dup1\n      dup4\n      sub\n      dup2\n      dup7\n      gas\n      staticcall\n      iszero\n      dup1\n      iszero\n      tag_144\n      jumpi\n      returndatasize\n      0x00\n      dup1\n      returndatacopy\n      revert(0x00, returndatasize)\n    tag_144:\n      pop\n      pop\n      pop\n      pop\n      mload(0x40)\n      returndatasize\n      0x00\n      dup3\n      returndatacopy\n      returndatasize\n      not(0x1f)\n      0x1f\n      dup3\n      add\n      and\n      dup3\n      add\n      dup1\n      0x40\n      mstore\n      pop\n      dup2\n      add\n      swap1\n      tag_145\n      swap2\n      swap1\n      tag_87\n      jump\t// in\n    tag_145:\n        /* \"Twitter_Contract.sol\":695:787  IProfile.UserProfileStruct memory userProfile = createProfileContract.getProfile(msg.sender) */\n      swap1\n      pop\n        /* \"Twitter_Contract.sol\":846:847  0 */\n      0x00\n        /* \"Twitter_Contract.sol\":812:823  userProfile */\n      dup2\n        /* \"Twitter_Contract.sol\":812:835  userProfile.displayName */\n      0x00\n      add\n      mload\n        /* \"Twitter_Contract.sol\":806:843  bytes(userProfile.displayName).length */\n      mload\n        /* \"Twitter_Contract.sol\":806:847  bytes(userProfile.displayName).length > 0 */\n      gt\n        /* \"Twitter_Contract.sol\":798:872  require(bytes(userProfile.displayName).length > 0, \"User Not Registered!\") */\n      tag_146\n      jumpi\n      mload(0x40)\n      0x08c379a000000000000000000000000000000000000000000000000000000000\n      dup2\n      mstore\n      0x04\n      add\n      tag_147\n      swap1\n      tag_90\n      jump\t// in\n    tag_147:\n      mload(0x40)\n      dup1\n      swap2\n      sub\n      swap1\n      revert\n    tag_146:\n        /* \"Twitter_Contract.sol\":2749:2752  _id */\n      dup2\n        /* \"Twitter_Contract.sol\":2722:2728  tweets */\n      0x02\n        /* \"Twitter_Contract.sol\":2722:2737  tweets[_author] */\n      0x00\n        /* \"Twitter_Contract.sol\":2729:2736  _author */\n      dup6\n        /* \"Twitter_Contract.sol\":2722:2737  tweets[_author] */\n      0xffffffffffffffffffffffffffffffffffffffff\n      and\n      0xffffffffffffffffffffffffffffffffffffffff\n      and\n      dup2\n      mstore\n      0x20\n      add\n      swap1\n      dup2\n      mstore\n      0x20\n      add\n      0x00\n      keccak256\n        /* \"Twitter_Contract.sol\":2738:2741  _id */\n      dup4\n        /* \"Twitter_Contract.sol\":2722:2742  tweets[_author][_id] */\n      dup2\n      sload\n      dup2\n      lt\n      tag_149\n      jumpi\n      tag_150\n      tag_94\n      jump\t// in\n    tag_150:\n    tag_149:\n      swap1\n      0x00\n      mstore\n      keccak256(0x00, 0x20)\n      swap1\n      0x05\n      mul\n      add\n        /* \"Twitter_Contract.sol\":2722:2745  tweets[_author][_id].id */\n      0x00\n      add\n      sload\n        /* \"Twitter_Contract.sol\":2722:2752  tweets[_author][_id].id == _id */\n      eq\n        /* \"Twitter_Contract.sol\":2714:2777  require(tweets[_author][_id].id == _id, \"Tweet Doesn't Exist!\") */\n      tag_152\n      jumpi\n      mload(0x40)\n      0x08c379a000000000000000000000000000000000000000000000000000000000\n      dup2\n      mstore\n      0x04\n      add\n      tag_153\n      swap1\n      tag_98\n      jump\t// in\n    tag_153:\n      mload(0x40)\n      dup1\n      swap2\n      sub\n      swap1\n      revert\n    tag_152:\n        /* \"Twitter_Contract.sol\":2825:2826  0 */\n      0x00\n        /* \"Twitter_Contract.sol\":2796:2802  tweets */\n      0x02\n        /* \"Twitter_Contract.sol\":2796:2811  tweets[_author] */\n      0x00\n        /* \"Twitter_Contract.sol\":2803:2810  _author */\n      dup6\n        /* \"Twitter_Contract.sol\":2796:2811  tweets[_author] */\n      0xffffffffffffffffffffffffffffffffffffffff\n      and\n      0xffffffffffffffffffffffffffffffffffffffff\n      and\n      dup2\n      mstore\n      0x20\n      add\n      swap1\n      dup2\n      mstore\n      0x20\n      add\n      0x00\n      keccak256\n        /* \"Twitter_Contract.sol\":2812:2815  _id */\n      dup4\n        /* \"Twitter_Contract.sol\":2796:2816  tweets[_author][_id] */\n      dup2\n      sload\n      dup2\n      lt\n      tag_154\n      jumpi\n      tag_155\n      tag_94\n      jump\t// in\n    tag_155:\n    tag_154:\n      swap1\n      0x00\n      mstore\n      keccak256(0x00, 0x20)\n      swap1\n      0x05\n      mul\n      add\n        /* \"Twitter_Contract.sol\":2796:2822  tweets[_author][_id].likes */\n      0x04\n      add\n      sload\n        /* \"Twitter_Contract.sol\":2796:2826  tweets[_author][_id].likes > 0 */\n      gt\n        /* \"Twitter_Contract.sol\":2788:2850  require(tweets[_author][_id].likes > 0, \"Tweet Has No Likes!\") */\n      tag_157\n      jumpi\n      mload(0x40)\n      0x08c379a000000000000000000000000000000000000000000000000000000000\n      dup2\n      mstore\n      0x04\n      add\n      tag_158\n      swap1\n      tag_159\n      jump\t// in\n    tag_158:\n      mload(0x40)\n      dup1\n      swap2\n      sub\n      swap1\n      revert\n    tag_157:\n        /* \"Twitter_Contract.sol\":2893:2894  1 */\n      0x01\n        /* \"Twitter_Contract.sol\":2863:2869  tweets */\n      0x02\n        /* \"Twitter_Contract.sol\":2863:2878  tweets[_author] */\n      0x00\n        /* \"Twitter_Contract.sol\":2870:2877  _author */\n      dup6\n        /* \"Twitter_Contract.sol\":2863:2878  tweets[_author] */\n      0xffffffffffffffffffffffffffffffffffffffff\n      and\n      0xffffffffffffffffffffffffffffffffffffffff\n      and\n      dup2\n      mstore\n      0x20\n      add\n      swap1\n      dup2\n      mstore\n      0x20\n      add\n      0x00\n      keccak256\n        /* \"Twitter_Contract.sol\":2879:2882  _id */\n      dup4\n        /* \"Twitter_Contract.sol\":2863:2883  tweets[_author][_id] */\n      dup2\n      sload\n      dup2\n      lt\n      tag_160\n      jumpi\n      tag_161\n      tag_94\n      jump\t// in\n    tag_161:\n    tag_160:\n      swap1\n      0x00\n      mstore\n      keccak256(0x00, 0x20)\n      swap1\n      0x05\n      mul\n      add\n        /* \"Twitter_Contract.sol\":2863:2889  tweets[_author][_id].likes */\n      0x04\n      add\n      0x00\n        /* \"Twitter_Contract.sol\":2863:2894  tweets[_author][_id].likes -= 1 */\n      dup3\n      dup3\n      sload\n      tag_163\n      swap2\n      swap1\n      tag_164\n      jump\t// in\n    tag_163:\n      swap3\n      pop\n      pop\n      dup2\n      swap1\n      sstore\n      pop\n        /* \"Twitter_Contract.sol\":2925:2935  msg.sender */\n      caller\n        /* \"Twitter_Contract.sol\":2912:2978  TweetUnLiked(msg.sender, _author, _id, tweets[_author][_id].likes) */\n      0xffffffffffffffffffffffffffffffffffffffff\n      and\n      0x273883c252143c4abce776697615e41ca9bc1aac5968c585d1c8ba8ffaa8b3c1\n        /* \"Twitter_Contract.sol\":2937:2944  _author */\n      dup5\n        /* \"Twitter_Contract.sol\":2946:2949  _id */\n      dup5\n        /* \"Twitter_Contract.sol\":2951:2957  tweets */\n      0x02\n        /* \"Twitter_Contract.sol\":2951:2966  tweets[_author] */\n      0x00\n        /* \"Twitter_Contract.sol\":2958:2965  _author */\n      dup9\n        /* \"Twitter_Contract.sol\":2951:2966  tweets[_author] */\n      0xffffffffffffffffffffffffffffffffffffffff\n      and\n      0xffffffffffffffffffffffffffffffffffffffff\n      and\n      dup2\n      mstore\n      0x20\n      add\n      swap1\n      dup2\n      mstore\n      0x20\n      add\n      0x00\n      keccak256\n        /* \"Twitter_Contract.sol\":2967:2970  _id */\n      dup7\n        /* \"Twitter_Contract.sol\":2951:2971  tweets[_author][_id] */\n      dup2\n      sload\n      dup2\n      lt\n      tag_165\n      jumpi\n      tag_166\n      tag_94\n      jump\t// in\n    tag_166:\n    tag_165:\n      swap1\n      0x00\n      mstore\n      keccak256(0x00, 0x20)\n      swap1\n      0x05\n      mul\n      add\n        /* \"Twitter_Contract.sol\":2951:2977  tweets[_author][_id].likes */\n      0x04\n      add\n      sload\n        /* \"Twitter_Contract.sol\":2912:2978  TweetUnLiked(msg.sender, _author, _id, tweets[_author][_id].likes) */\n      mload(0x40)\n      tag_168\n      swap4\n      swap3\n      swap2\n      swap1\n      tag_108\n      jump\t// in\n    tag_168:\n      mload(0x40)\n      dup1\n      swap2\n      sub\n      swap1\n      log2\n        /* \"Twitter_Contract.sol\":684:892  {... */\n      pop\n        /* \"Twitter_Contract.sol\":2627:2986  function unLikeTweet (address _author, uint256 _id) external OnlyRegistered {... */\n      pop\n      pop\n      jump\t// out\n        /* \"Twitter_Contract.sol\":3029:3149  function getTweet (uint256 _i) public view returns (TweetStruct memory) {... */\n    tag_55:\n        /* \"Twitter_Contract.sol\":3081:3099  TweetStruct memory */\n      tag_169\n      tag_170\n      jump\t// in\n    tag_169:\n        /* \"Twitter_Contract.sol\":3119:3125  tweets */\n      0x02\n        /* \"Twitter_Contract.sol\":3119:3137  tweets[msg.sender] */\n      0x00\n        /* \"Twitter_Contract.sol\":3126:3136  msg.sender */\n      caller\n        /* \"Twitter_Contract.sol\":3119:3137  tweets[msg.sender] */\n      0xffffffffffffffffffffffffffffffffffffffff\n      and\n      0xffffffffffffffffffffffffffffffffffffffff\n      and\n      dup2\n      mstore\n      0x20\n      add\n      swap1\n      dup2\n      mstore\n      0x20\n      add\n      0x00\n      keccak256\n        /* \"Twitter_Contract.sol\":3138:3140  _i */\n      dup3\n        /* \"Twitter_Contract.sol\":3119:3141  tweets[msg.sender][_i] */\n      dup2\n      sload\n      dup2\n      lt\n      tag_172\n      jumpi\n      tag_173\n      tag_94\n      jump\t// in\n    tag_173:\n    tag_172:\n      swap1\n      0x00\n      mstore\n      keccak256(0x00, 0x20)\n      swap1\n      0x05\n      mul\n      add\n        /* \"Twitter_Contract.sol\":3112:3141  return tweets[msg.sender][_i] */\n      mload(0x40)\n      dup1\n      0xa0\n      add\n      0x40\n      mstore\n      swap1\n      dup2\n      0x00\n      dup3\n      add\n      sload\n      dup2\n      mstore\n      0x20\n      add\n      0x01\n      dup3\n      add\n      0x00\n      swap1\n      sload\n      swap1\n      0x0100\n      exp\n      swap1\n      div\n      0xffffffffffffffffffffffffffffffffffffffff\n      and\n      0xffffffffffffffffffffffffffffffffffffffff\n      and\n      0xffffffffffffffffffffffffffffffffffffffff\n      and\n      dup2\n      mstore\n      0x20\n      add\n      0x02\n      dup3\n      add\n      dup1\n      sload\n      tag_175\n      swap1\n      tag_64\n      jump\t// in\n    tag_175:\n      dup1\n      0x1f\n      add\n      0x20\n      dup1\n      swap2\n      div\n      mul\n      0x20\n      add\n      mload(0x40)\n      swap1\n      dup2\n      add\n      0x40\n      mstore\n      dup1\n      swap3\n      swap2\n      swap1\n      dup2\n      dup2\n      mstore\n      0x20\n      add\n      dup3\n      dup1\n      sload\n      tag_176\n      swap1\n      tag_64\n      jump\t// in\n    tag_176:\n      dup1\n      iszero\n      tag_177\n      jumpi\n      dup1\n      0x1f\n      lt\n      tag_178\n      jumpi\n      0x0100\n      dup1\n      dup4\n      sload\n      div\n      mul\n      dup4\n      mstore\n      swap2\n      0x20\n      add\n      swap2\n      jump(tag_177)\n    tag_178:\n      dup3\n      add\n      swap2\n      swap1\n      0x00\n      mstore\n      keccak256(0x00, 0x20)\n      swap1\n    tag_179:\n      dup2\n      sload\n      dup2\n      mstore\n      swap1\n      0x01\n      add\n      swap1\n      0x20\n      add\n      dup1\n      dup4\n      gt\n      tag_179\n      jumpi\n      dup3\n      swap1\n      sub\n      0x1f\n      and\n      dup3\n      add\n      swap2\n    tag_177:\n      pop\n      pop\n      pop\n      pop\n      pop\n      dup2\n      mstore\n      0x20\n      add\n      0x03\n      dup3\n      add\n      sload\n      dup2\n      mstore\n      0x20\n      add\n      0x04\n      dup3\n      add\n      sload\n      dup2\n      mstore\n      pop\n      pop\n      swap1\n      pop\n        /* \"Twitter_Contract.sol\":3029:3149  function getTweet (uint256 _i) public view returns (TweetStruct memory) {... */\n      swap2\n      swap1\n      pop\n      jump\t// out\n        /* \"@openzeppelin/contracts/access/Ownable.sol\":2074:2272  function transferOwnership(address newOwner) public virtual onlyOwner {... */\n    tag_60:\n        /* \"@openzeppelin/contracts/access/Ownable.sol\":1094:1107  _checkOwner() */\n      tag_181\n        /* \"@openzeppelin/contracts/access/Ownable.sol\":1094:1105  _checkOwner */\n      tag_80\n        /* \"@openzeppelin/contracts/access/Ownable.sol\":1094:1107  _checkOwner() */\n      jump\t// in\n    tag_181:\n        /* \"@openzeppelin/contracts/access/Ownable.sol\":2182:2183  0 */\n      0x00\n        /* \"@openzeppelin/contracts/access/Ownable.sol\":2162:2184  newOwner != address(0) */\n      0xffffffffffffffffffffffffffffffffffffffff\n      and\n        /* \"@openzeppelin/contracts/access/Ownable.sol\":2162:2170  newOwner */\n      dup2\n        /* \"@openzeppelin/contracts/access/Ownable.sol\":2162:2184  newOwner != address(0) */\n      0xffffffffffffffffffffffffffffffffffffffff\n      and\n      sub\n        /* \"@openzeppelin/contracts/access/Ownable.sol\":2154:2227  require(newOwner != address(0), \"Ownable: new owner is the zero address\") */\n      tag_183\n      jumpi\n      mload(0x40)\n      0x08c379a000000000000000000000000000000000000000000000000000000000\n      dup2\n      mstore\n      0x04\n      add\n      tag_184\n      swap1\n      tag_185\n      jump\t// in\n    tag_184:\n      mload(0x40)\n      dup1\n      swap2\n      sub\n      swap1\n      revert\n    tag_183:\n        /* \"@openzeppelin/contracts/access/Ownable.sol\":2237:2265  _transferOwnership(newOwner) */\n      tag_186\n        /* \"@openzeppelin/contracts/access/Ownable.sol\":2256:2264  newOwner */\n      dup2\n        /* \"@openzeppelin/contracts/access/Ownable.sol\":2237:2255  _transferOwnership */\n      tag_113\n        /* \"@openzeppelin/contracts/access/Ownable.sol\":2237:2265  _transferOwnership(newOwner) */\n      jump\t// in\n    tag_186:\n        /* \"@openzeppelin/contracts/access/Ownable.sol\":2074:2272  function transferOwnership(address newOwner) public virtual onlyOwner {... */\n      pop\n      jump\t// out\n        /* \"@openzeppelin/contracts/access/Ownable.sol\":1359:1489  function _checkOwner() internal view virtual {... */\n    tag_80:\n        /* \"@openzeppelin/contracts/access/Ownable.sol\":1433:1445  _msgSender() */\n      tag_188\n        /* \"@openzeppelin/contracts/access/Ownable.sol\":1433:1443  _msgSender */\n      tag_189\n        /* \"@openzeppelin/contracts/access/Ownable.sol\":1433:1445  _msgSender() */\n      jump\t// in\n    tag_188:\n        /* \"@openzeppelin/contracts/access/Ownable.sol\":1422:1445  owner() == _msgSender() */\n      0xffffffffffffffffffffffffffffffffffffffff\n      and\n        /* \"@openzeppelin/contracts/access/Ownable.sol\":1422:1429  owner() */\n      tag_190\n        /* \"@openzeppelin/contracts/access/Ownable.sol\":1422:1427  owner */\n      tag_46\n        /* \"@openzeppelin/contracts/access/Ownable.sol\":1422:1429  owner() */\n      jump\t// in\n    tag_190:\n        /* \"@openzeppelin/contracts/access/Ownable.sol\":1422:1445  owner() == _msgSender() */\n      0xffffffffffffffffffffffffffffffffffffffff\n      and\n      eq\n        /* \"@openzeppelin/contracts/access/Ownable.sol\":1414:1482  require(owner() == _msgSender(), \"Ownable: caller is not the owner\") */\n      tag_191\n      jumpi\n      mload(0x40)\n      0x08c379a000000000000000000000000000000000000000000000000000000000\n      dup2\n      mstore\n      0x04\n      add\n      tag_192\n      swap1\n      tag_193\n      jump\t// in\n    tag_192:\n      mload(0x40)\n      dup1\n      swap2\n      sub\n      swap1\n      revert\n    tag_191:\n        /* \"@openzeppelin/contracts/access/Ownable.sol\":1359:1489  function _checkOwner() internal view virtual {... */\n      jump\t// out\n        /* \"@openzeppelin/contracts/access/Ownable.sol\":2426:2613  function _transferOwnership(address newOwner) internal virtual {... */\n    tag_113:\n        /* \"@openzeppelin/contracts/access/Ownable.sol\":2499:2515  address oldOwner */\n      0x00\n        /* \"@openzeppelin/contracts/access/Ownable.sol\":2518:2524  _owner */\n      dup1\n      0x00\n      swap1\n      sload\n      swap1\n      0x0100\n      exp\n      swap1\n      div\n      0xffffffffffffffffffffffffffffffffffffffff\n      and\n        /* \"@openzeppelin/contracts/access/Ownable.sol\":2499:2524  address oldOwner = _owner */\n      swap1\n      pop\n        /* \"@openzeppelin/contracts/access/Ownable.sol\":2543:2551  newOwner */\n      dup2\n        /* \"@openzeppelin/contracts/access/Ownable.sol\":2534:2540  _owner */\n      0x00\n      dup1\n        /* \"@openzeppelin/contracts/access/Ownable.sol\":2534:2551  _owner = newOwner */\n      0x0100\n      exp\n      dup2\n      sload\n      dup2\n      0xffffffffffffffffffffffffffffffffffffffff\n      mul\n      not\n      and\n      swap1\n      dup4\n      0xffffffffffffffffffffffffffffffffffffffff\n      and\n      mul\n      or\n      swap1\n      sstore\n      pop\n        /* \"@openzeppelin/contracts/access/Ownable.sol\":2597:2605  newOwner */\n      dup2\n        /* \"@openzeppelin/contracts/access/Ownable.sol\":2566:2606  OwnershipTransferred(oldOwner, newOwner) */\n      0xffffffffffffffffffffffffffffffffffffffff\n      and\n        /* \"@openzeppelin/contracts/access/Ownable.sol\":2587:2595  oldOwner */\n      dup2\n        /* \"@openzeppelin/contracts/access/Ownable.sol\":2566:2606  OwnershipTransferred(oldOwner, newOwner) */\n      0xffffffffffffffffffffffffffffffffffffffff\n      and\n      0x8be0079c531659141344cd1fd0a4f28419497f9722a3daafe3b4186f6b6457e0\n      mload(0x40)\n      mload(0x40)\n      dup1\n      swap2\n      sub\n      swap1\n      log3\n        /* \"@openzeppelin/contracts/access/Ownable.sol\":2489:2613  {... */\n      pop\n        /* \"@openzeppelin/contracts/access/Ownable.sol\":2426:2613  function _transferOwnership(address newOwner) internal virtual {... */\n      pop\n      jump\t// out\n        /* \"@openzeppelin/contracts/utils/Context.sol\":640:736  function _msgSender() internal view virtual returns (address) {... */\n    tag_189:\n        /* \"@openzeppelin/contracts/utils/Context.sol\":693:700  address */\n      0x00\n        /* \"@openzeppelin/contracts/utils/Context.sol\":719:729  msg.sender */\n      caller\n        /* \"@openzeppelin/contracts/utils/Context.sol\":712:729  return msg.sender */\n      swap1\n      pop\n        /* \"@openzeppelin/contracts/utils/Context.sol\":640:736  function _msgSender() internal view virtual returns (address) {... */\n      swap1\n      jump\t// out\n    tag_170:\n      mload(0x40)\n      dup1\n      0xa0\n      add\n      0x40\n      mstore\n      dup1\n      0x00\n      dup2\n      mstore\n      0x20\n      add\n      and(0xffffffffffffffffffffffffffffffffffffffff, 0x00)\n      dup2\n      mstore\n      0x20\n      add\n      0x60\n      dup2\n      mstore\n      0x20\n      add\n      0x00\n      dup2\n      mstore\n      0x20\n      add\n      0x00\n      dup2\n      mstore\n      pop\n      swap1\n      jump\t// out\n        /* \"#utility.yul\":7:82   */\n    tag_196:\n        /* \"#utility.yul\":40:46   */\n      0x00\n        /* \"#utility.yul\":73:75   */\n      0x40\n        /* \"#utility.yul\":67:76   */\n      mload\n        /* \"#utility.yul\":57:76   */\n      swap1\n      pop\n        /* \"#utility.yul\":7:82   */\n      swap1\n      jump\t// out\n        /* \"#utility.yul\":88:205   */\n    tag_197:\n        /* \"#utility.yul\":197:198   */\n      0x00\n        /* \"#utility.yul\":194:195   */\n      dup1\n        /* \"#utility.yul\":187:199   */\n      revert\n        /* \"#utility.yul\":211:328   */\n    tag_198:\n        /* \"#utility.yul\":320:321   */\n      0x00\n        /* \"#utility.yul\":317:318   */\n      dup1\n        /* \"#utility.yul\":310:322   */\n      revert\n        /* \"#utility.yul\":334:460   */\n    tag_199:\n        /* \"#utility.yul\":371:378   */\n      0x00\n        /* \"#utility.yul\":411:453   */\n      0xffffffffffffffffffffffffffffffffffffffff\n        /* \"#utility.yul\":404:409   */\n      dup3\n        /* \"#utility.yul\":400:454   */\n      and\n        /* \"#utility.yul\":389:454   */\n      swap1\n      pop\n        /* \"#utility.yul\":334:460   */\n      swap2\n      swap1\n      pop\n      jump\t// out\n        /* \"#utility.yul\":466:562   */\n    tag_200:\n        /* \"#utility.yul\":503:510   */\n      0x00\n        /* \"#utility.yul\":532:556   */\n      tag_277\n        /* \"#utility.yul\":550:555   */\n      dup3\n        /* \"#utility.yul\":532:556   */\n      tag_199\n      jump\t// in\n    tag_277:\n        /* \"#utility.yul\":521:556   */\n      swap1\n      pop\n        /* \"#utility.yul\":466:562   */\n      swap2\n      swap1\n      pop\n      jump\t// out\n        /* \"#utility.yul\":568:690   */\n    tag_201:\n        /* \"#utility.yul\":641:665   */\n      tag_279\n        /* \"#utility.yul\":659:664   */\n      dup2\n        /* \"#utility.yul\":641:665   */\n      tag_200\n      jump\t// in\n    tag_279:\n        /* \"#utility.yul\":634:639   */\n      dup2\n        /* \"#utility.yul\":631:666   */\n      eq\n        /* \"#utility.yul\":621:684   */\n      tag_280\n      jumpi\n        /* \"#utility.yul\":680:681   */\n      0x00\n        /* \"#utility.yul\":677:678   */\n      dup1\n        /* \"#utility.yul\":670:682   */\n      revert\n        /* \"#utility.yul\":621:684   */\n    tag_280:\n        /* \"#utility.yul\":568:690   */\n      pop\n      jump\t// out\n        /* \"#utility.yul\":696:835   */\n    tag_202:\n        /* \"#utility.yul\":742:747   */\n      0x00\n        /* \"#utility.yul\":780:786   */\n      dup2\n        /* \"#utility.yul\":767:787   */\n      calldataload\n        /* \"#utility.yul\":758:787   */\n      swap1\n      pop\n        /* \"#utility.yul\":796:829   */\n      tag_282\n        /* \"#utility.yul\":823:828   */\n      dup2\n        /* \"#utility.yul\":796:829   */\n      tag_201\n      jump\t// in\n    tag_282:\n        /* \"#utility.yul\":696:835   */\n      swap3\n      swap2\n      pop\n      pop\n      jump\t// out\n        /* \"#utility.yul\":841:918   */\n    tag_203:\n        /* \"#utility.yul\":878:885   */\n      0x00\n        /* \"#utility.yul\":907:912   */\n      dup2\n        /* \"#utility.yul\":896:912   */\n      swap1\n      pop\n        /* \"#utility.yul\":841:918   */\n      swap2\n      swap1\n      pop\n      jump\t// out\n        /* \"#utility.yul\":924:1046   */\n    tag_204:\n        /* \"#utility.yul\":997:1021   */\n      tag_285\n        /* \"#utility.yul\":1015:1020   */\n      dup2\n        /* \"#utility.yul\":997:1021   */\n      tag_203\n      jump\t// in\n    tag_285:\n        /* \"#utility.yul\":990:995   */\n      dup2\n        /* \"#utility.yul\":987:1022   */\n      eq\n        /* \"#utility.yul\":977:1040   */\n      tag_286\n      jumpi\n        /* \"#utility.yul\":1036:1037   */\n      0x00\n        /* \"#utility.yul\":1033:1034   */\n      dup1\n        /* \"#utility.yul\":1026:1038   */\n      revert\n        /* \"#utility.yul\":977:1040   */\n    tag_286:\n        /* \"#utility.yul\":924:1046   */\n      pop\n      jump\t// out\n        /* \"#utility.yul\":1052:1191   */\n    tag_205:\n        /* \"#utility.yul\":1098:1103   */\n      0x00\n        /* \"#utility.yul\":1136:1142   */\n      dup2\n        /* \"#utility.yul\":1123:1143   */\n      calldataload\n        /* \"#utility.yul\":1114:1143   */\n      swap1\n      pop\n        /* \"#utility.yul\":1152:1185   */\n      tag_288\n        /* \"#utility.yul\":1179:1184   */\n      dup2\n        /* \"#utility.yul\":1152:1185   */\n      tag_204\n      jump\t// in\n    tag_288:\n        /* \"#utility.yul\":1052:1191   */\n      swap3\n      swap2\n      pop\n      pop\n      jump\t// out\n        /* \"#utility.yul\":1197:1671   */\n    tag_17:\n        /* \"#utility.yul\":1265:1271   */\n      0x00\n        /* \"#utility.yul\":1273:1279   */\n      dup1\n        /* \"#utility.yul\":1322:1324   */\n      0x40\n        /* \"#utility.yul\":1310:1319   */\n      dup4\n        /* \"#utility.yul\":1301:1308   */\n      dup6\n        /* \"#utility.yul\":1297:1320   */\n      sub\n        /* \"#utility.yul\":1293:1325   */\n      slt\n        /* \"#utility.yul\":1290:1409   */\n      iszero\n      tag_290\n      jumpi\n        /* \"#utility.yul\":1328:1407   */\n      tag_291\n      tag_197\n      jump\t// in\n    tag_291:\n        /* \"#utility.yul\":1290:1409   */\n    tag_290:\n        /* \"#utility.yul\":1448:1449   */\n      0x00\n        /* \"#utility.yul\":1473:1526   */\n      tag_292\n        /* \"#utility.yul\":1518:1525   */\n      dup6\n        /* \"#utility.yul\":1509:1515   */\n      dup3\n        /* \"#utility.yul\":1498:1507   */\n      dup7\n        /* \"#utility.yul\":1494:1516   */\n      add\n        /* \"#utility.yul\":1473:1526   */\n      tag_202\n      jump\t// in\n    tag_292:\n        /* \"#utility.yul\":1463:1526   */\n      swap3\n      pop\n        /* \"#utility.yul\":1419:1536   */\n      pop\n        /* \"#utility.yul\":1575:1577   */\n      0x20\n        /* \"#utility.yul\":1601:1654   */\n      tag_293\n        /* \"#utility.yul\":1646:1653   */\n      dup6\n        /* \"#utility.yul\":1637:1643   */\n      dup3\n        /* \"#utility.yul\":1626:1635   */\n      dup7\n        /* \"#utility.yul\":1622:1644   */\n      add\n        /* \"#utility.yul\":1601:1654   */\n      tag_205\n      jump\t// in\n    tag_293:\n        /* \"#utility.yul\":1591:1654   */\n      swap2\n      pop\n        /* \"#utility.yul\":1546:1664   */\n      pop\n        /* \"#utility.yul\":1197:1671   */\n      swap3\n      pop\n      swap3\n      swap1\n      pop\n      jump\t// out\n        /* \"#utility.yul\":1677:1795   */\n    tag_206:\n        /* \"#utility.yul\":1764:1788   */\n      tag_295\n        /* \"#utility.yul\":1782:1787   */\n      dup2\n        /* \"#utility.yul\":1764:1788   */\n      tag_203\n      jump\t// in\n    tag_295:\n        /* \"#utility.yul\":1759:1762   */\n      dup3\n        /* \"#utility.yul\":1752:1789   */\n      mstore\n        /* \"#utility.yul\":1677:1795   */\n      pop\n      pop\n      jump\t// out\n        /* \"#utility.yul\":1801:1919   */\n    tag_207:\n        /* \"#utility.yul\":1888:1912   */\n      tag_297\n        /* \"#utility.yul\":1906:1911   */\n      dup2\n        /* \"#utility.yul\":1888:1912   */\n      tag_200\n      jump\t// in\n    tag_297:\n        /* \"#utility.yul\":1883:1886   */\n      dup3\n        /* \"#utility.yul\":1876:1913   */\n      mstore\n        /* \"#utility.yul\":1801:1919   */\n      pop\n      pop\n      jump\t// out\n        /* \"#utility.yul\":1925:2024   */\n    tag_208:\n        /* \"#utility.yul\":1977:1983   */\n      0x00\n        /* \"#utility.yul\":2011:2016   */\n      dup2\n        /* \"#utility.yul\":2005:2017   */\n      mload\n        /* \"#utility.yul\":1995:2017   */\n      swap1\n      pop\n        /* \"#utility.yul\":1925:2024   */\n      swap2\n      swap1\n      pop\n      jump\t// out\n        /* \"#utility.yul\":2030:2199   */\n    tag_209:\n        /* \"#utility.yul\":2114:2125   */\n      0x00\n        /* \"#utility.yul\":2148:2154   */\n      dup3\n        /* \"#utility.yul\":2143:2146   */\n      dup3\n        /* \"#utility.yul\":2136:2155   */\n      mstore\n        /* \"#utility.yul\":2188:2192   */\n      0x20\n        /* \"#utility.yul\":2183:2186   */\n      dup3\n        /* \"#utility.yul\":2179:2193   */\n      add\n        /* \"#utility.yul\":2164:2193   */\n      swap1\n      pop\n        /* \"#utility.yul\":2030:2199   */\n      swap3\n      swap2\n      pop\n      pop\n      jump\t// out\n        /* \"#utility.yul\":2205:2451   */\n    tag_210:\n        /* \"#utility.yul\":2286:2287   */\n      0x00\n        /* \"#utility.yul\":2296:2409   */\n    tag_301:\n        /* \"#utility.yul\":2310:2316   */\n      dup4\n        /* \"#utility.yul\":2307:2308   */\n      dup2\n        /* \"#utility.yul\":2304:2317   */\n      lt\n        /* \"#utility.yul\":2296:2409   */\n      iszero\n      tag_303\n      jumpi\n        /* \"#utility.yul\":2395:2396   */\n      dup1\n        /* \"#utility.yul\":2390:2393   */\n      dup3\n        /* \"#utility.yul\":2386:2397   */\n      add\n        /* \"#utility.yul\":2380:2398   */\n      mload\n        /* \"#utility.yul\":2376:2377   */\n      dup2\n        /* \"#utility.yul\":2371:2374   */\n      dup5\n        /* \"#utility.yul\":2367:2378   */\n      add\n        /* \"#utility.yul\":2360:2399   */\n      mstore\n        /* \"#utility.yul\":2332:2334   */\n      0x20\n        /* \"#utility.yul\":2329:2330   */\n      dup2\n        /* \"#utility.yul\":2325:2335   */\n      add\n        /* \"#utility.yul\":2320:2335   */\n      swap1\n      pop\n        /* \"#utility.yul\":2296:2409   */\n      jump(tag_301)\n    tag_303:\n        /* \"#utility.yul\":2443:2444   */\n      0x00\n        /* \"#utility.yul\":2434:2440   */\n      dup5\n        /* \"#utility.yul\":2429:2432   */\n      dup5\n        /* \"#utility.yul\":2425:2441   */\n      add\n        /* \"#utility.yul\":2418:2445   */\n      mstore\n        /* \"#utility.yul\":2267:2451   */\n      pop\n        /* \"#utility.yul\":2205:2451   */\n      pop\n      pop\n      pop\n      jump\t// out\n        /* \"#utility.yul\":2457:2559   */\n    tag_211:\n        /* \"#utility.yul\":2498:2504   */\n      0x00\n        /* \"#utility.yul\":2549:2551   */\n      0x1f\n        /* \"#utility.yul\":2545:2552   */\n      not\n        /* \"#utility.yul\":2540:2542   */\n      0x1f\n        /* \"#utility.yul\":2533:2538   */\n      dup4\n        /* \"#utility.yul\":2529:2543   */\n      add\n        /* \"#utility.yul\":2525:2553   */\n      and\n        /* \"#utility.yul\":2515:2553   */\n      swap1\n      pop\n        /* \"#utility.yul\":2457:2559   */\n      swap2\n      swap1\n      pop\n      jump\t// out\n        /* \"#utility.yul\":2565:2942   */\n    tag_212:\n        /* \"#utility.yul\":2653:2656   */\n      0x00\n        /* \"#utility.yul\":2681:2720   */\n      tag_306\n        /* \"#utility.yul\":2714:2719   */\n      dup3\n        /* \"#utility.yul\":2681:2720   */\n      tag_208\n      jump\t// in\n    tag_306:\n        /* \"#utility.yul\":2736:2807   */\n      tag_307\n        /* \"#utility.yul\":2800:2806   */\n      dup2\n        /* \"#utility.yul\":2795:2798   */\n      dup6\n        /* \"#utility.yul\":2736:2807   */\n      tag_209\n      jump\t// in\n    tag_307:\n        /* \"#utility.yul\":2729:2807   */\n      swap4\n      pop\n        /* \"#utility.yul\":2816:2881   */\n      tag_308\n        /* \"#utility.yul\":2874:2880   */\n      dup2\n        /* \"#utility.yul\":2869:2872   */\n      dup6\n        /* \"#utility.yul\":2862:2866   */\n      0x20\n        /* \"#utility.yul\":2855:2860   */\n      dup7\n        /* \"#utility.yul\":2851:2867   */\n      add\n        /* \"#utility.yul\":2816:2881   */\n      tag_210\n      jump\t// in\n    tag_308:\n        /* \"#utility.yul\":2906:2935   */\n      tag_309\n        /* \"#utility.yul\":2928:2934   */\n      dup2\n        /* \"#utility.yul\":2906:2935   */\n      tag_211\n      jump\t// in\n    tag_309:\n        /* \"#utility.yul\":2901:2904   */\n      dup5\n        /* \"#utility.yul\":2897:2936   */\n      add\n        /* \"#utility.yul\":2890:2936   */\n      swap2\n      pop\n        /* \"#utility.yul\":2657:2942   */\n      pop\n        /* \"#utility.yul\":2565:2942   */\n      swap3\n      swap2\n      pop\n      pop\n      jump\t// out\n        /* \"#utility.yul\":2948:3703   */\n    tag_20:\n        /* \"#utility.yul\":3173:3177   */\n      0x00\n        /* \"#utility.yul\":3211:3214   */\n      0xa0\n        /* \"#utility.yul\":3200:3209   */\n      dup3\n        /* \"#utility.yul\":3196:3215   */\n      add\n        /* \"#utility.yul\":3188:3215   */\n      swap1\n      pop\n        /* \"#utility.yul\":3225:3296   */\n      tag_311\n        /* \"#utility.yul\":3293:3294   */\n      0x00\n        /* \"#utility.yul\":3282:3291   */\n      dup4\n        /* \"#utility.yul\":3278:3295   */\n      add\n        /* \"#utility.yul\":3269:3275   */\n      dup9\n        /* \"#utility.yul\":3225:3296   */\n      tag_206\n      jump\t// in\n    tag_311:\n        /* \"#utility.yul\":3306:3378   */\n      tag_312\n        /* \"#utility.yul\":3374:3376   */\n      0x20\n        /* \"#utility.yul\":3363:3372   */\n      dup4\n        /* \"#utility.yul\":3359:3377   */\n      add\n        /* \"#utility.yul\":3350:3356   */\n      dup8\n        /* \"#utility.yul\":3306:3378   */\n      tag_207\n      jump\t// in\n    tag_312:\n        /* \"#utility.yul\":3425:3434   */\n      dup2\n        /* \"#utility.yul\":3419:3423   */\n      dup2\n        /* \"#utility.yul\":3415:3435   */\n      sub\n        /* \"#utility.yul\":3410:3412   */\n      0x40\n        /* \"#utility.yul\":3399:3408   */\n      dup4\n        /* \"#utility.yul\":3395:3413   */\n      add\n        /* \"#utility.yul\":3388:3436   */\n      mstore\n        /* \"#utility.yul\":3453:3531   */\n      tag_313\n        /* \"#utility.yul\":3526:3530   */\n      dup2\n        /* \"#utility.yul\":3517:3523   */\n      dup7\n        /* \"#utility.yul\":3453:3531   */\n      tag_212\n      jump\t// in\n    tag_313:\n        /* \"#utility.yul\":3445:3531   */\n      swap1\n      pop\n        /* \"#utility.yul\":3541:3613   */\n      tag_314\n        /* \"#utility.yul\":3609:3611   */\n      0x60\n        /* \"#utility.yul\":3598:3607   */\n      dup4\n        /* \"#utility.yul\":3594:3612   */\n      add\n        /* \"#utility.yul\":3585:3591   */\n      dup6\n        /* \"#utility.yul\":3541:3613   */\n      tag_206\n      jump\t// in\n    tag_314:\n        /* \"#utility.yul\":3623:3696   */\n      tag_315\n        /* \"#utility.yul\":3691:3694   */\n      0x80\n        /* \"#utility.yul\":3680:3689   */\n      dup4\n        /* \"#utility.yul\":3676:3695   */\n      add\n        /* \"#utility.yul\":3667:3673   */\n      dup5\n        /* \"#utility.yul\":3623:3696   */\n      tag_206\n      jump\t// in\n    tag_315:\n        /* \"#utility.yul\":2948:3703   */\n      swap7\n      swap6\n      pop\n      pop\n      pop\n      pop\n      pop\n      pop\n      jump\t// out\n        /* \"#utility.yul\":3709:4038   */\n    tag_23:\n        /* \"#utility.yul\":3768:3774   */\n      0x00\n        /* \"#utility.yul\":3817:3819   */\n      0x20\n        /* \"#utility.yul\":3805:3814   */\n      dup3\n        /* \"#utility.yul\":3796:3803   */\n      dup5\n        /* \"#utility.yul\":3792:3815   */\n      sub\n        /* \"#utility.yul\":3788:3820   */\n      slt\n        /* \"#utility.yul\":3785:3904   */\n      iszero\n      tag_317\n      jumpi\n        /* \"#utility.yul\":3823:3902   */\n      tag_318\n      tag_197\n      jump\t// in\n    tag_318:\n        /* \"#utility.yul\":3785:3904   */\n    tag_317:\n        /* \"#utility.yul\":3943:3944   */\n      0x00\n        /* \"#utility.yul\":3968:4021   */\n      tag_319\n        /* \"#utility.yul\":4013:4020   */\n      dup5\n        /* \"#utility.yul\":4004:4010   */\n      dup3\n        /* \"#utility.yul\":3993:4002   */\n      dup6\n        /* \"#utility.yul\":3989:4011   */\n      add\n        /* \"#utility.yul\":3968:4021   */\n      tag_202\n      jump\t// in\n    tag_319:\n        /* \"#utility.yul\":3958:4021   */\n      swap2\n      pop\n        /* \"#utility.yul\":3914:4031   */\n      pop\n        /* \"#utility.yul\":3709:4038   */\n      swap3\n      swap2\n      pop\n      pop\n      jump\t// out\n        /* \"#utility.yul\":4044:4186   */\n    tag_213:\n        /* \"#utility.yul\":4139:4145   */\n      0x00\n        /* \"#utility.yul\":4173:4178   */\n      dup2\n        /* \"#utility.yul\":4167:4179   */\n      mload\n        /* \"#utility.yul\":4157:4179   */\n      swap1\n      pop\n        /* \"#utility.yul\":4044:4186   */\n      swap2\n      swap1\n      pop\n      jump\t// out\n        /* \"#utility.yul\":4192:4404   */\n    tag_214:\n        /* \"#utility.yul\":4319:4330   */\n      0x00\n        /* \"#utility.yul\":4353:4359   */\n      dup3\n        /* \"#utility.yul\":4348:4351   */\n      dup3\n        /* \"#utility.yul\":4341:4360   */\n      mstore\n        /* \"#utility.yul\":4393:4397   */\n      0x20\n        /* \"#utility.yul\":4388:4391   */\n      dup3\n        /* \"#utility.yul\":4384:4398   */\n      add\n        /* \"#utility.yul\":4369:4398   */\n      swap1\n      pop\n        /* \"#utility.yul\":4192:4404   */\n      swap3\n      swap2\n      pop\n      pop\n      jump\t// out\n        /* \"#utility.yul\":4410:4570   */\n    tag_215:\n        /* \"#utility.yul\":4505:4509   */\n      0x00\n        /* \"#utility.yul\":4528:4531   */\n      dup2\n        /* \"#utility.yul\":4520:4531   */\n      swap1\n      pop\n        /* \"#utility.yul\":4558:4562   */\n      0x20\n        /* \"#utility.yul\":4553:4556   */\n      dup3\n        /* \"#utility.yul\":4549:4563   */\n      add\n        /* \"#utility.yul\":4541:4563   */\n      swap1\n      pop\n        /* \"#utility.yul\":4410:4570   */\n      swap2\n      swap1\n      pop\n      jump\t// out\n        /* \"#utility.yul\":4576:4684   */\n    tag_216:\n        /* \"#utility.yul\":4653:4677   */\n      tag_324\n        /* \"#utility.yul\":4671:4676   */\n      dup2\n        /* \"#utility.yul\":4653:4677   */\n      tag_203\n      jump\t// in\n    tag_324:\n        /* \"#utility.yul\":4648:4651   */\n      dup3\n        /* \"#utility.yul\":4641:4678   */\n      mstore\n        /* \"#utility.yul\":4576:4684   */\n      pop\n      pop\n      jump\t// out\n        /* \"#utility.yul\":4690:4798   */\n    tag_217:\n        /* \"#utility.yul\":4767:4791   */\n      tag_326\n        /* \"#utility.yul\":4785:4790   */\n      dup2\n        /* \"#utility.yul\":4767:4791   */\n      tag_200\n      jump\t// in\n    tag_326:\n        /* \"#utility.yul\":4762:4765   */\n      dup3\n        /* \"#utility.yul\":4755:4792   */\n      mstore\n        /* \"#utility.yul\":4690:4798   */\n      pop\n      pop\n      jump\t// out\n        /* \"#utility.yul\":4804:4963   */\n    tag_218:\n        /* \"#utility.yul\":4878:4889   */\n      0x00\n        /* \"#utility.yul\":4912:4918   */\n      dup3\n        /* \"#utility.yul\":4907:4910   */\n      dup3\n        /* \"#utility.yul\":4900:4919   */\n      mstore\n        /* \"#utility.yul\":4952:4956   */\n      0x20\n        /* \"#utility.yul\":4947:4950   */\n      dup3\n        /* \"#utility.yul\":4943:4957   */\n      add\n        /* \"#utility.yul\":4928:4957   */\n      swap1\n      pop\n        /* \"#utility.yul\":4804:4963   */\n      swap3\n      swap2\n      pop\n      pop\n      jump\t// out\n        /* \"#utility.yul\":4969:5326   */\n    tag_219:\n        /* \"#utility.yul\":5047:5050   */\n      0x00\n        /* \"#utility.yul\":5075:5114   */\n      tag_329\n        /* \"#utility.yul\":5108:5113   */\n      dup3\n        /* \"#utility.yul\":5075:5114   */\n      tag_208\n      jump\t// in\n    tag_329:\n        /* \"#utility.yul\":5130:5191   */\n      tag_330\n        /* \"#utility.yul\":5184:5190   */\n      dup2\n        /* \"#utility.yul\":5179:5182   */\n      dup6\n        /* \"#utility.yul\":5130:5191   */\n      tag_218\n      jump\t// in\n    tag_330:\n        /* \"#utility.yul\":5123:5191   */\n      swap4\n      pop\n        /* \"#utility.yul\":5200:5265   */\n      tag_331\n        /* \"#utility.yul\":5258:5264   */\n      dup2\n        /* \"#utility.yul\":5253:5256   */\n      dup6\n        /* \"#utility.yul\":5246:5250   */\n      0x20\n        /* \"#utility.yul\":5239:5244   */\n      dup7\n        /* \"#utility.yul\":5235:5251   */\n      add\n        /* \"#utility.yul\":5200:5265   */\n      tag_210\n      jump\t// in\n    tag_331:\n        /* \"#utility.yul\":5290:5319   */\n      tag_332\n        /* \"#utility.yul\":5312:5318   */\n      dup2\n        /* \"#utility.yul\":5290:5319   */\n      tag_211\n      jump\t// in\n    tag_332:\n        /* \"#utility.yul\":5285:5288   */\n      dup5\n        /* \"#utility.yul\":5281:5320   */\n      add\n        /* \"#utility.yul\":5274:5320   */\n      swap2\n      pop\n        /* \"#utility.yul\":5051:5326   */\n      pop\n        /* \"#utility.yul\":4969:5326   */\n      swap3\n      swap2\n      pop\n      pop\n      jump\t// out\n        /* \"#utility.yul\":5412:6545   */\n    tag_220:\n        /* \"#utility.yul\":5527:5530   */\n      0x00\n        /* \"#utility.yul\":5563:5567   */\n      0xa0\n        /* \"#utility.yul\":5558:5561   */\n      dup4\n        /* \"#utility.yul\":5554:5568   */\n      add\n        /* \"#utility.yul\":5648:5652   */\n      0x00\n        /* \"#utility.yul\":5641:5646   */\n      dup4\n        /* \"#utility.yul\":5637:5653   */\n      add\n        /* \"#utility.yul\":5631:5654   */\n      mload\n        /* \"#utility.yul\":5667:5730   */\n      tag_334\n        /* \"#utility.yul\":5724:5728   */\n      0x00\n        /* \"#utility.yul\":5719:5722   */\n      dup7\n        /* \"#utility.yul\":5715:5729   */\n      add\n        /* \"#utility.yul\":5701:5713   */\n      dup3\n        /* \"#utility.yul\":5667:5730   */\n      tag_216\n      jump\t// in\n    tag_334:\n        /* \"#utility.yul\":5578:5740   */\n      pop\n        /* \"#utility.yul\":5824:5828   */\n      0x20\n        /* \"#utility.yul\":5817:5822   */\n      dup4\n        /* \"#utility.yul\":5813:5829   */\n      add\n        /* \"#utility.yul\":5807:5830   */\n      mload\n        /* \"#utility.yul\":5843:5906   */\n      tag_335\n        /* \"#utility.yul\":5900:5904   */\n      0x20\n        /* \"#utility.yul\":5895:5898   */\n      dup7\n        /* \"#utility.yul\":5891:5905   */\n      add\n        /* \"#utility.yul\":5877:5889   */\n      dup3\n        /* \"#utility.yul\":5843:5906   */\n      tag_217\n      jump\t// in\n    tag_335:\n        /* \"#utility.yul\":5750:5916   */\n      pop\n        /* \"#utility.yul\":6001:6005   */\n      0x40\n        /* \"#utility.yul\":5994:5999   */\n      dup4\n        /* \"#utility.yul\":5990:6006   */\n      add\n        /* \"#utility.yul\":5984:6007   */\n      mload\n        /* \"#utility.yul\":6054:6057   */\n      dup5\n        /* \"#utility.yul\":6048:6052   */\n      dup3\n        /* \"#utility.yul\":6044:6058   */\n      sub\n        /* \"#utility.yul\":6037:6041   */\n      0x40\n        /* \"#utility.yul\":6032:6035   */\n      dup7\n        /* \"#utility.yul\":6028:6042   */\n      add\n        /* \"#utility.yul\":6021:6059   */\n      mstore\n        /* \"#utility.yul\":6080:6153   */\n      tag_336\n        /* \"#utility.yul\":6148:6152   */\n      dup3\n        /* \"#utility.yul\":6134:6146   */\n      dup3\n        /* \"#utility.yul\":6080:6153   */\n      tag_219\n      jump\t// in\n    tag_336:\n        /* \"#utility.yul\":6072:6153   */\n      swap2\n      pop\n        /* \"#utility.yul\":5926:6164   */\n      pop\n        /* \"#utility.yul\":6251:6255   */\n      0x60\n        /* \"#utility.yul\":6244:6249   */\n      dup4\n        /* \"#utility.yul\":6240:6256   */\n      add\n        /* \"#utility.yul\":6234:6257   */\n      mload\n        /* \"#utility.yul\":6270:6333   */\n      tag_337\n        /* \"#utility.yul\":6327:6331   */\n      0x60\n        /* \"#utility.yul\":6322:6325   */\n      dup7\n        /* \"#utility.yul\":6318:6332   */\n      add\n        /* \"#utility.yul\":6304:6316   */\n      dup3\n        /* \"#utility.yul\":6270:6333   */\n      tag_216\n      jump\t// in\n    tag_337:\n        /* \"#utility.yul\":6174:6343   */\n      pop\n        /* \"#utility.yul\":6426:6430   */\n      0x80\n        /* \"#utility.yul\":6419:6424   */\n      dup4\n        /* \"#utility.yul\":6415:6431   */\n      add\n        /* \"#utility.yul\":6409:6432   */\n      mload\n        /* \"#utility.yul\":6445:6508   */\n      tag_338\n        /* \"#utility.yul\":6502:6506   */\n      0x80\n        /* \"#utility.yul\":6497:6500   */\n      dup7\n        /* \"#utility.yul\":6493:6507   */\n      add\n        /* \"#utility.yul\":6479:6491   */\n      dup3\n        /* \"#utility.yul\":6445:6508   */\n      tag_216\n      jump\t// in\n    tag_338:\n        /* \"#utility.yul\":6353:6518   */\n      pop\n        /* \"#utility.yul\":6535:6539   */\n      dup1\n        /* \"#utility.yul\":6528:6539   */\n      swap2\n      pop\n        /* \"#utility.yul\":5532:6545   */\n      pop\n        /* \"#utility.yul\":5412:6545   */\n      swap3\n      swap2\n      pop\n      pop\n      jump\t// out\n        /* \"#utility.yul\":6551:6819   */\n    tag_221:\n        /* \"#utility.yul\":6676:6686   */\n      0x00\n        /* \"#utility.yul\":6711:6813   */\n      tag_340\n        /* \"#utility.yul\":6809:6812   */\n      dup4\n        /* \"#utility.yul\":6801:6807   */\n      dup4\n        /* \"#utility.yul\":6711:6813   */\n      tag_220\n      jump\t// in\n    tag_340:\n        /* \"#utility.yul\":6697:6813   */\n      swap1\n      pop\n        /* \"#utility.yul\":6551:6819   */\n      swap3\n      swap2\n      pop\n      pop\n      jump\t// out\n        /* \"#utility.yul\":6825:6966   */\n    tag_222:\n        /* \"#utility.yul\":6923:6927   */\n      0x00\n        /* \"#utility.yul\":6955:6959   */\n      0x20\n        /* \"#utility.yul\":6950:6953   */\n      dup3\n        /* \"#utility.yul\":6946:6960   */\n      add\n        /* \"#utility.yul\":6938:6960   */\n      swap1\n      pop\n        /* \"#utility.yul\":6825:6966   */\n      swap2\n      swap1\n      pop\n      jump\t// out\n        /* \"#utility.yul\":7056:8191   */\n    tag_223:\n        /* \"#utility.yul\":7231:7234   */\n      0x00\n        /* \"#utility.yul\":7260:7342   */\n      tag_343\n        /* \"#utility.yul\":7336:7341   */\n      dup3\n        /* \"#utility.yul\":7260:7342   */\n      tag_213\n      jump\t// in\n    tag_343:\n        /* \"#utility.yul\":7358:7472   */\n      tag_344\n        /* \"#utility.yul\":7465:7471   */\n      dup2\n        /* \"#utility.yul\":7460:7463   */\n      dup6\n        /* \"#utility.yul\":7358:7472   */\n      tag_214\n      jump\t// in\n    tag_344:\n        /* \"#utility.yul\":7351:7472   */\n      swap4\n      pop\n        /* \"#utility.yul\":7498:7501   */\n      dup4\n        /* \"#utility.yul\":7543:7547   */\n      0x20\n        /* \"#utility.yul\":7535:7541   */\n      dup3\n        /* \"#utility.yul\":7531:7548   */\n      mul\n        /* \"#utility.yul\":7526:7529   */\n      dup6\n        /* \"#utility.yul\":7522:7549   */\n      add\n        /* \"#utility.yul\":7573:7657   */\n      tag_345\n        /* \"#utility.yul\":7651:7656   */\n      dup6\n        /* \"#utility.yul\":7573:7657   */\n      tag_215\n      jump\t// in\n    tag_345:\n        /* \"#utility.yul\":7680:7687   */\n      dup1\n        /* \"#utility.yul\":7711:7712   */\n      0x00\n        /* \"#utility.yul\":7696:8146   */\n    tag_346:\n        /* \"#utility.yul\":7721:7727   */\n      dup6\n        /* \"#utility.yul\":7718:7719   */\n      dup2\n        /* \"#utility.yul\":7715:7728   */\n      lt\n        /* \"#utility.yul\":7696:8146   */\n      iszero\n      tag_348\n      jumpi\n        /* \"#utility.yul\":7792:7801   */\n      dup5\n        /* \"#utility.yul\":7786:7790   */\n      dup5\n        /* \"#utility.yul\":7782:7802   */\n      sub\n        /* \"#utility.yul\":7777:7780   */\n      dup10\n        /* \"#utility.yul\":7770:7803   */\n      mstore\n        /* \"#utility.yul\":7843:7849   */\n      dup2\n        /* \"#utility.yul\":7837:7850   */\n      mload\n        /* \"#utility.yul\":7871:7991   */\n      tag_349\n        /* \"#utility.yul\":7986:7990   */\n      dup6\n        /* \"#utility.yul\":7971:7984   */\n      dup3\n        /* \"#utility.yul\":7871:7991   */\n      tag_221\n      jump\t// in\n    tag_349:\n        /* \"#utility.yul\":7863:7991   */\n      swap5\n      pop\n        /* \"#utility.yul\":8014:8102   */\n      tag_350\n        /* \"#utility.yul\":8095:8101   */\n      dup4\n        /* \"#utility.yul\":8014:8102   */\n      tag_222\n      jump\t// in\n    tag_350:\n        /* \"#utility.yul\":8004:8102   */\n      swap3\n      pop\n        /* \"#utility.yul\":8131:8135   */\n      0x20\n        /* \"#utility.yul\":8126:8129   */\n      dup11\n        /* \"#utility.yul\":8122:8136   */\n      add\n        /* \"#utility.yul\":8115:8136   */\n      swap10\n      pop\n        /* \"#utility.yul\":7756:8146   */\n      pop\n        /* \"#utility.yul\":7743:7744   */\n      0x01\n        /* \"#utility.yul\":7740:7741   */\n      dup2\n        /* \"#utility.yul\":7736:7745   */\n      add\n        /* \"#utility.yul\":7731:7745   */\n      swap1\n      pop\n        /* \"#utility.yul\":7696:8146   */\n      jump(tag_346)\n    tag_348:\n        /* \"#utility.yul\":7700:7714   */\n      pop\n        /* \"#utility.yul\":8162:8166   */\n      dup3\n        /* \"#utility.yul\":8155:8166   */\n      swap8\n      pop\n        /* \"#utility.yul\":8182:8185   */\n      dup8\n        /* \"#utility.yul\":8175:8185   */\n      swap6\n      pop\n        /* \"#utility.yul\":7236:8191   */\n      pop\n      pop\n      pop\n      pop\n      pop\n        /* \"#utility.yul\":7056:8191   */\n      swap3\n      swap2\n      pop\n      pop\n      jump\t// out\n        /* \"#utility.yul\":8197:8682   */\n    tag_26:\n        /* \"#utility.yul\":8396:8400   */\n      0x00\n        /* \"#utility.yul\":8434:8436   */\n      0x20\n        /* \"#utility.yul\":8423:8432   */\n      dup3\n        /* \"#utility.yul\":8419:8437   */\n      add\n        /* \"#utility.yul\":8411:8437   */\n      swap1\n      pop\n        /* \"#utility.yul\":8483:8492   */\n      dup2\n        /* \"#utility.yul\":8477:8481   */\n      dup2\n        /* \"#utility.yul\":8473:8493   */\n      sub\n        /* \"#utility.yul\":8469:8470   */\n      0x00\n        /* \"#utility.yul\":8458:8467   */\n      dup4\n        /* \"#utility.yul\":8454:8471   */\n      add\n        /* \"#utility.yul\":8447:8494   */\n      mstore\n        /* \"#utility.yul\":8511:8675   */\n      tag_352\n        /* \"#utility.yul\":8670:8674   */\n      dup2\n        /* \"#utility.yul\":8661:8667   */\n      dup5\n        /* \"#utility.yul\":8511:8675   */\n      tag_223\n      jump\t// in\n    tag_352:\n        /* \"#utility.yul\":8503:8675   */\n      swap1\n      pop\n        /* \"#utility.yul\":8197:8682   */\n      swap3\n      swap2\n      pop\n      pop\n      jump\t// out\n        /* \"#utility.yul\":8688:8777   */\n    tag_224:\n        /* \"#utility.yul\":8724:8731   */\n      0x00\n        /* \"#utility.yul\":8764:8770   */\n      0xffff\n        /* \"#utility.yul\":8757:8762   */\n      dup3\n        /* \"#utility.yul\":8753:8771   */\n      and\n        /* \"#utility.yul\":8742:8771   */\n      swap1\n      pop\n        /* \"#utility.yul\":8688:8777   */\n      swap2\n      swap1\n      pop\n      jump\t// out\n        /* \"#utility.yul\":8783:8903   */\n    tag_225:\n        /* \"#utility.yul\":8855:8878   */\n      tag_355\n        /* \"#utility.yul\":8872:8877   */\n      dup2\n        /* \"#utility.yul\":8855:8878   */\n      tag_224\n      jump\t// in\n    tag_355:\n        /* \"#utility.yul\":8848:8853   */\n      dup2\n        /* \"#utility.yul\":8845:8879   */\n      eq\n        /* \"#utility.yul\":8835:8897   */\n      tag_356\n      jumpi\n        /* \"#utility.yul\":8893:8894   */\n      0x00\n        /* \"#utility.yul\":8890:8891   */\n      dup1\n        /* \"#utility.yul\":8883:8895   */\n      revert\n        /* \"#utility.yul\":8835:8897   */\n    tag_356:\n        /* \"#utility.yul\":8783:8903   */\n      pop\n      jump\t// out\n        /* \"#utility.yul\":8909:9046   */\n    tag_226:\n        /* \"#utility.yul\":8954:8959   */\n      0x00\n        /* \"#utility.yul\":8992:8998   */\n      dup2\n        /* \"#utility.yul\":8979:8999   */\n      calldataload\n        /* \"#utility.yul\":8970:8999   */\n      swap1\n      pop\n        /* \"#utility.yul\":9008:9040   */\n      tag_358\n        /* \"#utility.yul\":9034:9039   */\n      dup2\n        /* \"#utility.yul\":9008:9040   */\n      tag_225\n      jump\t// in\n    tag_358:\n        /* \"#utility.yul\":8909:9046   */\n      swap3\n      swap2\n      pop\n      pop\n      jump\t// out\n        /* \"#utility.yul\":9052:9379   */\n    tag_29:\n        /* \"#utility.yul\":9110:9116   */\n      0x00\n        /* \"#utility.yul\":9159:9161   */\n      0x20\n        /* \"#utility.yul\":9147:9156   */\n      dup3\n        /* \"#utility.yul\":9138:9145   */\n      dup5\n        /* \"#utility.yul\":9134:9157   */\n      sub\n        /* \"#utility.yul\":9130:9162   */\n      slt\n        /* \"#utility.yul\":9127:9246   */\n      iszero\n      tag_360\n      jumpi\n        /* \"#utility.yul\":9165:9244   */\n      tag_361\n      tag_197\n      jump\t// in\n    tag_361:\n        /* \"#utility.yul\":9127:9246   */\n    tag_360:\n        /* \"#utility.yul\":9285:9286   */\n      0x00\n        /* \"#utility.yul\":9310:9362   */\n      tag_362\n        /* \"#utility.yul\":9354:9361   */\n      dup5\n        /* \"#utility.yul\":9345:9351   */\n      dup3\n        /* \"#utility.yul\":9334:9343   */\n      dup6\n        /* \"#utility.yul\":9330:9352   */\n      add\n        /* \"#utility.yul\":9310:9362   */\n      tag_226\n      jump\t// in\n    tag_362:\n        /* \"#utility.yul\":9300:9362   */\n      swap2\n      pop\n        /* \"#utility.yul\":9256:9372   */\n      pop\n        /* \"#utility.yul\":9052:9379   */\n      swap3\n      swap2\n      pop\n      pop\n      jump\t// out\n        /* \"#utility.yul\":9385:9502   */\n    tag_227:\n        /* \"#utility.yul\":9494:9495   */\n      0x00\n        /* \"#utility.yul\":9491:9492   */\n      dup1\n        /* \"#utility.yul\":9484:9496   */\n      revert\n        /* \"#utility.yul\":9508:9625   */\n    tag_228:\n        /* \"#utility.yul\":9617:9618   */\n      0x00\n        /* \"#utility.yul\":9614:9615   */\n      dup1\n        /* \"#utility.yul\":9607:9619   */\n      revert\n        /* \"#utility.yul\":9631:9811   */\n    tag_229:\n        /* \"#utility.yul\":9679:9756   */\n      0x4e487b7100000000000000000000000000000000000000000000000000000000\n        /* \"#utility.yul\":9676:9677   */\n      0x00\n        /* \"#utility.yul\":9669:9757   */\n      mstore\n        /* \"#utility.yul\":9776:9780   */\n      0x41\n        /* \"#utility.yul\":9773:9774   */\n      0x04\n        /* \"#utility.yul\":9766:9781   */\n      mstore\n        /* \"#utility.yul\":9800:9804   */\n      0x24\n        /* \"#utility.yul\":9797:9798   */\n      0x00\n        /* \"#utility.yul\":9790:9805   */\n      revert\n        /* \"#utility.yul\":9817:10098   */\n    tag_230:\n        /* \"#utility.yul\":9900:9927   */\n      tag_367\n        /* \"#utility.yul\":9922:9926   */\n      dup3\n        /* \"#utility.yul\":9900:9927   */\n      tag_211\n      jump\t// in\n    tag_367:\n        /* \"#utility.yul\":9892:9898   */\n      dup2\n        /* \"#utility.yul\":9888:9928   */\n      add\n        /* \"#utility.yul\":10030:10036   */\n      dup2\n        /* \"#utility.yul\":10018:10028   */\n      dup2\n        /* \"#utility.yul\":10015:10037   */\n      lt\n        /* \"#utility.yul\":9994:10012   */\n      0xffffffffffffffff\n        /* \"#utility.yul\":9982:9992   */\n      dup3\n        /* \"#utility.yul\":9979:10013   */\n      gt\n        /* \"#utility.yul\":9976:10038   */\n      or\n        /* \"#utility.yul\":9973:10061   */\n      iszero\n      tag_368\n      jumpi\n        /* \"#utility.yul\":10041:10059   */\n      tag_369\n      tag_229\n      jump\t// in\n    tag_369:\n        /* \"#utility.yul\":9973:10061   */\n    tag_368:\n        /* \"#utility.yul\":10081:10091   */\n      dup1\n        /* \"#utility.yul\":10077:10079   */\n      0x40\n        /* \"#utility.yul\":10070:10092   */\n      mstore\n        /* \"#utility.yul\":9860:10098   */\n      pop\n        /* \"#utility.yul\":9817:10098   */\n      pop\n      pop\n      jump\t// out\n        /* \"#utility.yul\":10104:10233   */\n    tag_231:\n        /* \"#utility.yul\":10138:10144   */\n      0x00\n        /* \"#utility.yul\":10165:10185   */\n      tag_371\n      tag_196\n      jump\t// in\n    tag_371:\n        /* \"#utility.yul\":10155:10185   */\n      swap1\n      pop\n        /* \"#utility.yul\":10194:10227   */\n      tag_372\n        /* \"#utility.yul\":10222:10226   */\n      dup3\n        /* \"#utility.yul\":10214:10220   */\n      dup3\n        /* \"#utility.yul\":10194:10227   */\n      tag_230\n      jump\t// in\n    tag_372:\n        /* \"#utility.yul\":10104:10233   */\n      swap2\n      swap1\n      pop\n      jump\t// out\n        /* \"#utility.yul\":10239:10547   */\n    tag_232:\n        /* \"#utility.yul\":10301:10305   */\n      0x00\n        /* \"#utility.yul\":10391:10409   */\n      0xffffffffffffffff\n        /* \"#utility.yul\":10383:10389   */\n      dup3\n        /* \"#utility.yul\":10380:10410   */\n      gt\n        /* \"#utility.yul\":10377:10433   */\n      iszero\n      tag_374\n      jumpi\n        /* \"#utility.yul\":10413:10431   */\n      tag_375\n      tag_229\n      jump\t// in\n    tag_375:\n        /* \"#utility.yul\":10377:10433   */\n    tag_374:\n        /* \"#utility.yul\":10451:10480   */\n      tag_376\n        /* \"#utility.yul\":10473:10479   */\n      dup3\n        /* \"#utility.yul\":10451:10480   */\n      tag_211\n      jump\t// in\n    tag_376:\n        /* \"#utility.yul\":10443:10480   */\n      swap1\n      pop\n        /* \"#utility.yul\":10535:10539   */\n      0x20\n        /* \"#utility.yul\":10529:10533   */\n      dup2\n        /* \"#utility.yul\":10525:10540   */\n      add\n        /* \"#utility.yul\":10517:10540   */\n      swap1\n      pop\n        /* \"#utility.yul\":10239:10547   */\n      swap2\n      swap1\n      pop\n      jump\t// out\n        /* \"#utility.yul\":10553:10699   */\n    tag_233:\n        /* \"#utility.yul\":10650:10656   */\n      dup3\n        /* \"#utility.yul\":10645:10648   */\n      dup2\n        /* \"#utility.yul\":10640:10643   */\n      dup4\n        /* \"#utility.yul\":10627:10657   */\n      calldatacopy\n        /* \"#utility.yul\":10691:10692   */\n      0x00\n        /* \"#utility.yul\":10682:10688   */\n      dup4\n        /* \"#utility.yul\":10677:10680   */\n      dup4\n        /* \"#utility.yul\":10673:10689   */\n      add\n        /* \"#utility.yul\":10666:10693   */\n      mstore\n        /* \"#utility.yul\":10553:10699   */\n      pop\n      pop\n      pop\n      jump\t// out\n        /* \"#utility.yul\":10705:11130   */\n    tag_234:\n        /* \"#utility.yul\":10783:10788   */\n      0x00\n        /* \"#utility.yul\":10808:10874   */\n      tag_379\n        /* \"#utility.yul\":10824:10873   */\n      tag_380\n        /* \"#utility.yul\":10866:10872   */\n      dup5\n        /* \"#utility.yul\":10824:10873   */\n      tag_232\n      jump\t// in\n    tag_380:\n        /* \"#utility.yul\":10808:10874   */\n      tag_231\n      jump\t// in\n    tag_379:\n        /* \"#utility.yul\":10799:10874   */\n      swap1\n      pop\n        /* \"#utility.yul\":10897:10903   */\n      dup3\n        /* \"#utility.yul\":10890:10895   */\n      dup2\n        /* \"#utility.yul\":10883:10904   */\n      mstore\n        /* \"#utility.yul\":10935:10939   */\n      0x20\n        /* \"#utility.yul\":10928:10933   */\n      dup2\n        /* \"#utility.yul\":10924:10940   */\n      add\n        /* \"#utility.yul\":10973:10976   */\n      dup5\n        /* \"#utility.yul\":10964:10970   */\n      dup5\n        /* \"#utility.yul\":10959:10962   */\n      dup5\n        /* \"#utility.yul\":10955:10971   */\n      add\n        /* \"#utility.yul\":10952:10977   */\n      gt\n        /* \"#utility.yul\":10949:11061   */\n      iszero\n      tag_381\n      jumpi\n        /* \"#utility.yul\":10980:11059   */\n      tag_382\n      tag_228\n      jump\t// in\n    tag_382:\n        /* \"#utility.yul\":10949:11061   */\n    tag_381:\n        /* \"#utility.yul\":11070:11124   */\n      tag_383\n        /* \"#utility.yul\":11117:11123   */\n      dup5\n        /* \"#utility.yul\":11112:11115   */\n      dup3\n        /* \"#utility.yul\":11107:11110   */\n      dup6\n        /* \"#utility.yul\":11070:11124   */\n      tag_233\n      jump\t// in\n    tag_383:\n        /* \"#utility.yul\":10789:11130   */\n      pop\n        /* \"#utility.yul\":10705:11130   */\n      swap4\n      swap3\n      pop\n      pop\n      pop\n      jump\t// out\n        /* \"#utility.yul\":11150:11490   */\n    tag_235:\n        /* \"#utility.yul\":11206:11211   */\n      0x00\n        /* \"#utility.yul\":11255:11258   */\n      dup3\n        /* \"#utility.yul\":11248:11252   */\n      0x1f\n        /* \"#utility.yul\":11240:11246   */\n      dup4\n        /* \"#utility.yul\":11236:11253   */\n      add\n        /* \"#utility.yul\":11232:11259   */\n      slt\n        /* \"#utility.yul\":11222:11344   */\n      tag_385\n      jumpi\n        /* \"#utility.yul\":11263:11342   */\n      tag_386\n      tag_227\n      jump\t// in\n    tag_386:\n        /* \"#utility.yul\":11222:11344   */\n    tag_385:\n        /* \"#utility.yul\":11380:11386   */\n      dup2\n        /* \"#utility.yul\":11367:11387   */\n      calldataload\n        /* \"#utility.yul\":11405:11484   */\n      tag_387\n        /* \"#utility.yul\":11480:11483   */\n      dup5\n        /* \"#utility.yul\":11472:11478   */\n      dup3\n        /* \"#utility.yul\":11465:11469   */\n      0x20\n        /* \"#utility.yul\":11457:11463   */\n      dup7\n        /* \"#utility.yul\":11453:11470   */\n      add\n        /* \"#utility.yul\":11405:11484   */\n      tag_234\n      jump\t// in\n    tag_387:\n        /* \"#utility.yul\":11396:11484   */\n      swap2\n      pop\n        /* \"#utility.yul\":11212:11490   */\n      pop\n        /* \"#utility.yul\":11150:11490   */\n      swap3\n      swap2\n      pop\n      pop\n      jump\t// out\n        /* \"#utility.yul\":11496:12005   */\n    tag_38:\n        /* \"#utility.yul\":11565:11571   */\n      0x00\n        /* \"#utility.yul\":11614:11616   */\n      0x20\n        /* \"#utility.yul\":11602:11611   */\n      dup3\n        /* \"#utility.yul\":11593:11600   */\n      dup5\n        /* \"#utility.yul\":11589:11612   */\n      sub\n        /* \"#utility.yul\":11585:11617   */\n      slt\n        /* \"#utility.yul\":11582:11701   */\n      iszero\n      tag_389\n      jumpi\n        /* \"#utility.yul\":11620:11699   */\n      tag_390\n      tag_197\n      jump\t// in\n    tag_390:\n        /* \"#utility.yul\":11582:11701   */\n    tag_389:\n        /* \"#utility.yul\":11768:11769   */\n      0x00\n        /* \"#utility.yul\":11757:11766   */\n      dup3\n        /* \"#utility.yul\":11753:11770   */\n      add\n        /* \"#utility.yul\":11740:11771   */\n      calldataload\n        /* \"#utility.yul\":11798:11816   */\n      0xffffffffffffffff\n        /* \"#utility.yul\":11790:11796   */\n      dup2\n        /* \"#utility.yul\":11787:11817   */\n      gt\n        /* \"#utility.yul\":11784:11901   */\n      iszero\n      tag_391\n      jumpi\n        /* \"#utility.yul\":11820:11899   */\n      tag_392\n      tag_198\n      jump\t// in\n    tag_392:\n        /* \"#utility.yul\":11784:11901   */\n    tag_391:\n        /* \"#utility.yul\":11925:11988   */\n      tag_393\n        /* \"#utility.yul\":11980:11987   */\n      dup5\n        /* \"#utility.yul\":11971:11977   */\n      dup3\n        /* \"#utility.yul\":11960:11969   */\n      dup6\n        /* \"#utility.yul\":11956:11978   */\n      add\n        /* \"#utility.yul\":11925:11988   */\n      tag_235\n      jump\t// in\n    tag_393:\n        /* \"#utility.yul\":11915:11988   */\n      swap2\n      pop\n        /* \"#utility.yul\":11711:11998   */\n      pop\n        /* \"#utility.yul\":11496:12005   */\n      swap3\n      swap2\n      pop\n      pop\n      jump\t// out\n        /* \"#utility.yul\":12011:12233   */\n    tag_44:\n        /* \"#utility.yul\":12104:12108   */\n      0x00\n        /* \"#utility.yul\":12142:12144   */\n      0x20\n        /* \"#utility.yul\":12131:12140   */\n      dup3\n        /* \"#utility.yul\":12127:12145   */\n      add\n        /* \"#utility.yul\":12119:12145   */\n      swap1\n      pop\n        /* \"#utility.yul\":12155:12226   */\n      tag_395\n        /* \"#utility.yul\":12223:12224   */\n      0x00\n        /* \"#utility.yul\":12212:12221   */\n      dup4\n        /* \"#utility.yul\":12208:12225   */\n      add\n        /* \"#utility.yul\":12199:12205   */\n      dup5\n        /* \"#utility.yul\":12155:12226   */\n      tag_206\n      jump\t// in\n    tag_395:\n        /* \"#utility.yul\":12011:12233   */\n      swap3\n      swap2\n      pop\n      pop\n      jump\t// out\n        /* \"#utility.yul\":12239:12461   */\n    tag_48:\n        /* \"#utility.yul\":12332:12336   */\n      0x00\n        /* \"#utility.yul\":12370:12372   */\n      0x20\n        /* \"#utility.yul\":12359:12368   */\n      dup3\n        /* \"#utility.yul\":12355:12373   */\n      add\n        /* \"#utility.yul\":12347:12373   */\n      swap1\n      pop\n        /* \"#utility.yul\":12383:12454   */\n      tag_397\n        /* \"#utility.yul\":12451:12452   */\n      0x00\n        /* \"#utility.yul\":12440:12449   */\n      dup4\n        /* \"#utility.yul\":12436:12453   */\n      add\n        /* \"#utility.yul\":12427:12433   */\n      dup5\n        /* \"#utility.yul\":12383:12454   */\n      tag_207\n      jump\t// in\n    tag_397:\n        /* \"#utility.yul\":12239:12461   */\n      swap3\n      swap2\n      pop\n      pop\n      jump\t// out\n        /* \"#utility.yul\":12467:12796   */\n    tag_54:\n        /* \"#utility.yul\":12526:12532   */\n      0x00\n        /* \"#utility.yul\":12575:12577   */\n      0x20\n        /* \"#utility.yul\":12563:12572   */\n      dup3\n        /* \"#utility.yul\":12554:12561   */\n      dup5\n        /* \"#utility.yul\":12550:12573   */\n      sub\n        /* \"#utility.yul\":12546:12578   */\n      slt\n        /* \"#utility.yul\":12543:12662   */\n      iszero\n      tag_399\n      jumpi\n        /* \"#utility.yul\":12581:12660   */\n      tag_400\n      tag_197\n      jump\t// in\n    tag_400:\n        /* \"#utility.yul\":12543:12662   */\n    tag_399:\n        /* \"#utility.yul\":12701:12702   */\n      0x00\n        /* \"#utility.yul\":12726:12779   */\n      tag_401\n        /* \"#utility.yul\":12771:12778   */\n      dup5\n        /* \"#utility.yul\":12762:12768   */\n      dup3\n        /* \"#utility.yul\":12751:12760   */\n      dup6\n        /* \"#utility.yul\":12747:12769   */\n      add\n        /* \"#utility.yul\":12726:12779   */\n      tag_205\n      jump\t// in\n    tag_401:\n        /* \"#utility.yul\":12716:12779   */\n      swap2\n      pop\n        /* \"#utility.yul\":12672:12789   */\n      pop\n        /* \"#utility.yul\":12467:12796   */\n      swap3\n      swap2\n      pop\n      pop\n      jump\t// out\n        /* \"#utility.yul\":12882:14025   */\n    tag_236:\n        /* \"#utility.yul\":13007:13010   */\n      0x00\n        /* \"#utility.yul\":13043:13047   */\n      0xa0\n        /* \"#utility.yul\":13038:13041   */\n      dup4\n        /* \"#utility.yul\":13034:13048   */\n      add\n        /* \"#utility.yul\":13128:13132   */\n      0x00\n        /* \"#utility.yul\":13121:13126   */\n      dup4\n        /* \"#utility.yul\":13117:13133   */\n      add\n        /* \"#utility.yul\":13111:13134   */\n      mload\n        /* \"#utility.yul\":13147:13210   */\n      tag_403\n        /* \"#utility.yul\":13204:13208   */\n      0x00\n        /* \"#utility.yul\":13199:13202   */\n      dup7\n        /* \"#utility.yul\":13195:13209   */\n      add\n        /* \"#utility.yul\":13181:13193   */\n      dup3\n        /* \"#utility.yul\":13147:13210   */\n      tag_216\n      jump\t// in\n    tag_403:\n        /* \"#utility.yul\":13058:13220   */\n      pop\n        /* \"#utility.yul\":13304:13308   */\n      0x20\n        /* \"#utility.yul\":13297:13302   */\n      dup4\n        /* \"#utility.yul\":13293:13309   */\n      add\n        /* \"#utility.yul\":13287:13310   */\n      mload\n        /* \"#utility.yul\":13323:13386   */\n      tag_404\n        /* \"#utility.yul\":13380:13384   */\n      0x20\n        /* \"#utility.yul\":13375:13378   */\n      dup7\n        /* \"#utility.yul\":13371:13385   */\n      add\n        /* \"#utility.yul\":13357:13369   */\n      dup3\n        /* \"#utility.yul\":13323:13386   */\n      tag_217\n      jump\t// in\n    tag_404:\n        /* \"#utility.yul\":13230:13396   */\n      pop\n        /* \"#utility.yul\":13481:13485   */\n      0x40\n        /* \"#utility.yul\":13474:13479   */\n      dup4\n        /* \"#utility.yul\":13470:13486   */\n      add\n        /* \"#utility.yul\":13464:13487   */\n      mload\n        /* \"#utility.yul\":13534:13537   */\n      dup5\n        /* \"#utility.yul\":13528:13532   */\n      dup3\n        /* \"#utility.yul\":13524:13538   */\n      sub\n        /* \"#utility.yul\":13517:13521   */\n      0x40\n        /* \"#utility.yul\":13512:13515   */\n      dup7\n        /* \"#utility.yul\":13508:13522   */\n      add\n        /* \"#utility.yul\":13501:13539   */\n      mstore\n        /* \"#utility.yul\":13560:13633   */\n      tag_405\n        /* \"#utility.yul\":13628:13632   */\n      dup3\n        /* \"#utility.yul\":13614:13626   */\n      dup3\n        /* \"#utility.yul\":13560:13633   */\n      tag_219\n      jump\t// in\n    tag_405:\n        /* \"#utility.yul\":13552:13633   */\n      swap2\n      pop\n        /* \"#utility.yul\":13406:13644   */\n      pop\n        /* \"#utility.yul\":13731:13735   */\n      0x60\n        /* \"#utility.yul\":13724:13729   */\n      dup4\n        /* \"#utility.yul\":13720:13736   */\n      add\n        /* \"#utility.yul\":13714:13737   */\n      mload\n        /* \"#utility.yul\":13750:13813   */\n      tag_406\n        /* \"#utility.yul\":13807:13811   */\n      0x60\n        /* \"#utility.yul\":13802:13805   */\n      dup7\n        /* \"#utility.yul\":13798:13812   */\n      add\n        /* \"#utility.yul\":13784:13796   */\n      dup3\n        /* \"#utility.yul\":13750:13813   */\n      tag_216\n      jump\t// in\n    tag_406:\n        /* \"#utility.yul\":13654:13823   */\n      pop\n        /* \"#utility.yul\":13906:13910   */\n      0x80\n        /* \"#utility.yul\":13899:13904   */\n      dup4\n        /* \"#utility.yul\":13895:13911   */\n      add\n        /* \"#utility.yul\":13889:13912   */\n      mload\n        /* \"#utility.yul\":13925:13988   */\n      tag_407\n        /* \"#utility.yul\":13982:13986   */\n      0x80\n        /* \"#utility.yul\":13977:13980   */\n      dup7\n        /* \"#utility.yul\":13973:13987   */\n      add\n        /* \"#utility.yul\":13959:13971   */\n      dup3\n        /* \"#utility.yul\":13925:13988   */\n      tag_216\n      jump\t// in\n    tag_407:\n        /* \"#utility.yul\":13833:13998   */\n      pop\n        /* \"#utility.yul\":14015:14019   */\n      dup1\n        /* \"#utility.yul\":14008:14019   */\n      swap2\n      pop\n        /* \"#utility.yul\":13012:14025   */\n      pop\n        /* \"#utility.yul\":12882:14025   */\n      swap3\n      swap2\n      pop\n      pop\n      jump\t// out\n        /* \"#utility.yul\":14031:14416   */\n    tag_57:\n        /* \"#utility.yul\":14180:14184   */\n      0x00\n        /* \"#utility.yul\":14218:14220   */\n      0x20\n        /* \"#utility.yul\":14207:14216   */\n      dup3\n        /* \"#utility.yul\":14203:14221   */\n      add\n        /* \"#utility.yul\":14195:14221   */\n      swap1\n      pop\n        /* \"#utility.yul\":14267:14276   */\n      dup2\n        /* \"#utility.yul\":14261:14265   */\n      dup2\n        /* \"#utility.yul\":14257:14277   */\n      sub\n        /* \"#utility.yul\":14253:14254   */\n      0x00\n        /* \"#utility.yul\":14242:14251   */\n      dup4\n        /* \"#utility.yul\":14238:14255   */\n      add\n        /* \"#utility.yul\":14231:14278   */\n      mstore\n        /* \"#utility.yul\":14295:14409   */\n      tag_409\n        /* \"#utility.yul\":14404:14408   */\n      dup2\n        /* \"#utility.yul\":14395:14401   */\n      dup5\n        /* \"#utility.yul\":14295:14409   */\n      tag_236\n      jump\t// in\n    tag_409:\n        /* \"#utility.yul\":14287:14409   */\n      swap1\n      pop\n        /* \"#utility.yul\":14031:14416   */\n      swap3\n      swap2\n      pop\n      pop\n      jump\t// out\n        /* \"#utility.yul\":14422:14602   */\n    tag_237:\n        /* \"#utility.yul\":14470:14547   */\n      0x4e487b7100000000000000000000000000000000000000000000000000000000\n        /* \"#utility.yul\":14467:14468   */\n      0x00\n        /* \"#utility.yul\":14460:14548   */\n      mstore\n        /* \"#utility.yul\":14567:14571   */\n      0x22\n        /* \"#utility.yul\":14564:14565   */\n      0x04\n        /* \"#utility.yul\":14557:14572   */\n      mstore\n        /* \"#utility.yul\":14591:14595   */\n      0x24\n        /* \"#utility.yul\":14588:14589   */\n      0x00\n        /* \"#utility.yul\":14581:14596   */\n      revert\n        /* \"#utility.yul\":14608:14928   */\n    tag_64:\n        /* \"#utility.yul\":14652:14658   */\n      0x00\n        /* \"#utility.yul\":14689:14690   */\n      0x02\n        /* \"#utility.yul\":14683:14687   */\n      dup3\n        /* \"#utility.yul\":14679:14691   */\n      div\n        /* \"#utility.yul\":14669:14691   */\n      swap1\n      pop\n        /* \"#utility.yul\":14736:14737   */\n      0x01\n        /* \"#utility.yul\":14730:14734   */\n      dup3\n        /* \"#utility.yul\":14726:14738   */\n      and\n        /* \"#utility.yul\":14757:14775   */\n      dup1\n        /* \"#utility.yul\":14747:14828   */\n      tag_412\n      jumpi\n        /* \"#utility.yul\":14813:14817   */\n      0x7f\n        /* \"#utility.yul\":14805:14811   */\n      dup3\n        /* \"#utility.yul\":14801:14818   */\n      and\n        /* \"#utility.yul\":14791:14818   */\n      swap2\n      pop\n        /* \"#utility.yul\":14747:14828   */\n    tag_412:\n        /* \"#utility.yul\":14875:14877   */\n      0x20\n        /* \"#utility.yul\":14867:14873   */\n      dup3\n        /* \"#utility.yul\":14864:14878   */\n      lt\n        /* \"#utility.yul\":14844:14862   */\n      dup2\n        /* \"#utility.yul\":14841:14879   */\n      sub\n        /* \"#utility.yul\":14838:14922   */\n      tag_413\n      jumpi\n        /* \"#utility.yul\":14894:14912   */\n      tag_414\n      tag_237\n      jump\t// in\n    tag_414:\n        /* \"#utility.yul\":14838:14922   */\n    tag_413:\n        /* \"#utility.yul\":14659:14928   */\n      pop\n        /* \"#utility.yul\":14608:14928   */\n      swap2\n      swap1\n      pop\n      jump\t// out\n        /* \"#utility.yul\":14934:15051   */\n    tag_238:\n        /* \"#utility.yul\":15043:15044   */\n      0x00\n        /* \"#utility.yul\":15040:15041   */\n      dup1\n        /* \"#utility.yul\":15033:15045   */\n      revert\n        /* \"#utility.yul\":15057:15174   */\n    tag_239:\n        /* \"#utility.yul\":15166:15167   */\n      0x00\n        /* \"#utility.yul\":15163:15164   */\n      dup1\n        /* \"#utility.yul\":15156:15168   */\n      revert\n        /* \"#utility.yul\":15180:15614   */\n    tag_240:\n        /* \"#utility.yul\":15269:15274   */\n      0x00\n        /* \"#utility.yul\":15294:15360   */\n      tag_418\n        /* \"#utility.yul\":15310:15359   */\n      tag_419\n        /* \"#utility.yul\":15352:15358   */\n      dup5\n        /* \"#utility.yul\":15310:15359   */\n      tag_232\n      jump\t// in\n    tag_419:\n        /* \"#utility.yul\":15294:15360   */\n      tag_231\n      jump\t// in\n    tag_418:\n        /* \"#utility.yul\":15285:15360   */\n      swap1\n      pop\n        /* \"#utility.yul\":15383:15389   */\n      dup3\n        /* \"#utility.yul\":15376:15381   */\n      dup2\n        /* \"#utility.yul\":15369:15390   */\n      mstore\n        /* \"#utility.yul\":15421:15425   */\n      0x20\n        /* \"#utility.yul\":15414:15419   */\n      dup2\n        /* \"#utility.yul\":15410:15426   */\n      add\n        /* \"#utility.yul\":15459:15462   */\n      dup5\n        /* \"#utility.yul\":15450:15456   */\n      dup5\n        /* \"#utility.yul\":15445:15448   */\n      dup5\n        /* \"#utility.yul\":15441:15457   */\n      add\n        /* \"#utility.yul\":15438:15463   */\n      gt\n        /* \"#utility.yul\":15435:15547   */\n      iszero\n      tag_420\n      jumpi\n        /* \"#utility.yul\":15466:15545   */\n      tag_421\n      tag_228\n      jump\t// in\n    tag_421:\n        /* \"#utility.yul\":15435:15547   */\n    tag_420:\n        /* \"#utility.yul\":15556:15608   */\n      tag_422\n        /* \"#utility.yul\":15601:15607   */\n      dup5\n        /* \"#utility.yul\":15596:15599   */\n      dup3\n        /* \"#utility.yul\":15591:15594   */\n      dup6\n        /* \"#utility.yul\":15556:15608   */\n      tag_210\n      jump\t// in\n    tag_422:\n        /* \"#utility.yul\":15275:15614   */\n      pop\n        /* \"#utility.yul\":15180:15614   */\n      swap4\n      swap3\n      pop\n      pop\n      pop\n      jump\t// out\n        /* \"#utility.yul\":15634:15989   */\n    tag_241:\n        /* \"#utility.yul\":15701:15706   */\n      0x00\n        /* \"#utility.yul\":15750:15753   */\n      dup3\n        /* \"#utility.yul\":15743:15747   */\n      0x1f\n        /* \"#utility.yul\":15735:15741   */\n      dup4\n        /* \"#utility.yul\":15731:15748   */\n      add\n        /* \"#utility.yul\":15727:15754   */\n      slt\n        /* \"#utility.yul\":15717:15839   */\n      tag_424\n      jumpi\n        /* \"#utility.yul\":15758:15837   */\n      tag_425\n      tag_227\n      jump\t// in\n    tag_425:\n        /* \"#utility.yul\":15717:15839   */\n    tag_424:\n        /* \"#utility.yul\":15868:15874   */\n      dup2\n        /* \"#utility.yul\":15862:15875   */\n      mload\n        /* \"#utility.yul\":15893:15983   */\n      tag_426\n        /* \"#utility.yul\":15979:15982   */\n      dup5\n        /* \"#utility.yul\":15971:15977   */\n      dup3\n        /* \"#utility.yul\":15964:15968   */\n      0x20\n        /* \"#utility.yul\":15956:15962   */\n      dup7\n        /* \"#utility.yul\":15952:15969   */\n      add\n        /* \"#utility.yul\":15893:15983   */\n      tag_240\n      jump\t// in\n    tag_426:\n        /* \"#utility.yul\":15884:15983   */\n      swap2\n      pop\n        /* \"#utility.yul\":15707:15989   */\n      pop\n        /* \"#utility.yul\":15634:15989   */\n      swap3\n      swap2\n      pop\n      pop\n      jump\t// out\n        /* \"#utility.yul\":16036:16984   */\n    tag_242:\n        /* \"#utility.yul\":16130:16135   */\n      0x00\n        /* \"#utility.yul\":16174:16178   */\n      0x40\n        /* \"#utility.yul\":16162:16171   */\n      dup3\n        /* \"#utility.yul\":16157:16160   */\n      dup5\n        /* \"#utility.yul\":16153:16172   */\n      sub\n        /* \"#utility.yul\":16149:16179   */\n      slt\n        /* \"#utility.yul\":16146:16263   */\n      iszero\n      tag_428\n      jumpi\n        /* \"#utility.yul\":16182:16261   */\n      tag_429\n      tag_238\n      jump\t// in\n    tag_429:\n        /* \"#utility.yul\":16146:16263   */\n    tag_428:\n        /* \"#utility.yul\":16281:16302   */\n      tag_430\n        /* \"#utility.yul\":16297:16301   */\n      0x40\n        /* \"#utility.yul\":16281:16302   */\n      tag_231\n      jump\t// in\n    tag_430:\n        /* \"#utility.yul\":16272:16302   */\n      swap1\n      pop\n        /* \"#utility.yul\":16389:16390   */\n      0x00\n        /* \"#utility.yul\":16378:16387   */\n      dup3\n        /* \"#utility.yul\":16374:16391   */\n      add\n        /* \"#utility.yul\":16368:16392   */\n      mload\n        /* \"#utility.yul\":16419:16437   */\n      0xffffffffffffffff\n        /* \"#utility.yul\":16411:16417   */\n      dup2\n        /* \"#utility.yul\":16408:16438   */\n      gt\n        /* \"#utility.yul\":16405:16522   */\n      iszero\n      tag_431\n      jumpi\n        /* \"#utility.yul\":16441:16520   */\n      tag_432\n      tag_239\n      jump\t// in\n    tag_432:\n        /* \"#utility.yul\":16405:16522   */\n    tag_431:\n        /* \"#utility.yul\":16561:16631   */\n      tag_433\n        /* \"#utility.yul\":16627:16630   */\n      dup5\n        /* \"#utility.yul\":16618:16624   */\n      dup3\n        /* \"#utility.yul\":16607:16616   */\n      dup6\n        /* \"#utility.yul\":16603:16625   */\n      add\n        /* \"#utility.yul\":16561:16631   */\n      tag_241\n      jump\t// in\n    tag_433:\n        /* \"#utility.yul\":16554:16558   */\n      0x00\n        /* \"#utility.yul\":16547:16552   */\n      dup4\n        /* \"#utility.yul\":16543:16559   */\n      add\n        /* \"#utility.yul\":16536:16632   */\n      mstore\n        /* \"#utility.yul\":16312:16643   */\n      pop\n        /* \"#utility.yul\":16722:16724   */\n      0x20\n        /* \"#utility.yul\":16711:16720   */\n      dup3\n        /* \"#utility.yul\":16707:16725   */\n      add\n        /* \"#utility.yul\":16701:16726   */\n      mload\n        /* \"#utility.yul\":16753:16771   */\n      0xffffffffffffffff\n        /* \"#utility.yul\":16745:16751   */\n      dup2\n        /* \"#utility.yul\":16742:16772   */\n      gt\n        /* \"#utility.yul\":16739:16856   */\n      iszero\n      tag_434\n      jumpi\n        /* \"#utility.yul\":16775:16854   */\n      tag_435\n      tag_239\n      jump\t// in\n    tag_435:\n        /* \"#utility.yul\":16739:16856   */\n    tag_434:\n        /* \"#utility.yul\":16895:16965   */\n      tag_436\n        /* \"#utility.yul\":16961:16964   */\n      dup5\n        /* \"#utility.yul\":16952:16958   */\n      dup3\n        /* \"#utility.yul\":16941:16950   */\n      dup6\n        /* \"#utility.yul\":16937:16959   */\n      add\n        /* \"#utility.yul\":16895:16965   */\n      tag_241\n      jump\t// in\n    tag_436:\n        /* \"#utility.yul\":16888:16892   */\n      0x20\n        /* \"#utility.yul\":16881:16886   */\n      dup4\n        /* \"#utility.yul\":16877:16893   */\n      add\n        /* \"#utility.yul\":16870:16966   */\n      mstore\n        /* \"#utility.yul\":16653:16977   */\n      pop\n        /* \"#utility.yul\":16036:16984   */\n      swap3\n      swap2\n      pop\n      pop\n      jump\t// out\n        /* \"#utility.yul\":16990:17562   */\n    tag_87:\n        /* \"#utility.yul\":17094:17100   */\n      0x00\n        /* \"#utility.yul\":17143:17145   */\n      0x20\n        /* \"#utility.yul\":17131:17140   */\n      dup3\n        /* \"#utility.yul\":17122:17129   */\n      dup5\n        /* \"#utility.yul\":17118:17141   */\n      sub\n        /* \"#utility.yul\":17114:17146   */\n      slt\n        /* \"#utility.yul\":17111:17230   */\n      iszero\n      tag_438\n      jumpi\n        /* \"#utility.yul\":17149:17228   */\n      tag_439\n      tag_197\n      jump\t// in\n    tag_439:\n        /* \"#utility.yul\":17111:17230   */\n    tag_438:\n        /* \"#utility.yul\":17290:17291   */\n      0x00\n        /* \"#utility.yul\":17279:17288   */\n      dup3\n        /* \"#utility.yul\":17275:17292   */\n      add\n        /* \"#utility.yul\":17269:17293   */\n      mload\n        /* \"#utility.yul\":17320:17338   */\n      0xffffffffffffffff\n        /* \"#utility.yul\":17312:17318   */\n      dup2\n        /* \"#utility.yul\":17309:17339   */\n      gt\n        /* \"#utility.yul\":17306:17423   */\n      iszero\n      tag_440\n      jumpi\n        /* \"#utility.yul\":17342:17421   */\n      tag_441\n      tag_198\n      jump\t// in\n    tag_441:\n        /* \"#utility.yul\":17306:17423   */\n    tag_440:\n        /* \"#utility.yul\":17447:17545   */\n      tag_442\n        /* \"#utility.yul\":17537:17544   */\n      dup5\n        /* \"#utility.yul\":17528:17534   */\n      dup3\n        /* \"#utility.yul\":17517:17526   */\n      dup6\n        /* \"#utility.yul\":17513:17535   */\n      add\n        /* \"#utility.yul\":17447:17545   */\n      tag_242\n      jump\t// in\n    tag_442:\n        /* \"#utility.yul\":17437:17545   */\n      swap2\n      pop\n        /* \"#utility.yul\":17240:17555   */\n      pop\n        /* \"#utility.yul\":16990:17562   */\n      swap3\n      swap2\n      pop\n      pop\n      jump\t// out\n        /* \"#utility.yul\":17568:17738   */\n    tag_243:\n        /* \"#utility.yul\":17708:17730   */\n      0x55736572204e6f74205265676973746572656421000000000000000000000000\n        /* \"#utility.yul\":17704:17705   */\n      0x00\n        /* \"#utility.yul\":17696:17702   */\n      dup3\n        /* \"#utility.yul\":17692:17706   */\n      add\n        /* \"#utility.yul\":17685:17731   */\n      mstore\n        /* \"#utility.yul\":17568:17738   */\n      pop\n      jump\t// out\n        /* \"#utility.yul\":17744:18110   */\n    tag_244:\n        /* \"#utility.yul\":17886:17889   */\n      0x00\n        /* \"#utility.yul\":17907:17974   */\n      tag_445\n        /* \"#utility.yul\":17971:17973   */\n      0x14\n        /* \"#utility.yul\":17966:17969   */\n      dup4\n        /* \"#utility.yul\":17907:17974   */\n      tag_209\n      jump\t// in\n    tag_445:\n        /* \"#utility.yul\":17900:17974   */\n      swap2\n      pop\n        /* \"#utility.yul\":17983:18076   */\n      tag_446\n        /* \"#utility.yul\":18072:18075   */\n      dup3\n        /* \"#utility.yul\":17983:18076   */\n      tag_243\n      jump\t// in\n    tag_446:\n        /* \"#utility.yul\":18101:18103   */\n      0x20\n        /* \"#utility.yul\":18096:18099   */\n      dup3\n        /* \"#utility.yul\":18092:18104   */\n      add\n        /* \"#utility.yul\":18085:18104   */\n      swap1\n      pop\n        /* \"#utility.yul\":17744:18110   */\n      swap2\n      swap1\n      pop\n      jump\t// out\n        /* \"#utility.yul\":18116:18535   */\n    tag_90:\n        /* \"#utility.yul\":18282:18286   */\n      0x00\n        /* \"#utility.yul\":18320:18322   */\n      0x20\n        /* \"#utility.yul\":18309:18318   */\n      dup3\n        /* \"#utility.yul\":18305:18323   */\n      add\n        /* \"#utility.yul\":18297:18323   */\n      swap1\n      pop\n        /* \"#utility.yul\":18369:18378   */\n      dup2\n        /* \"#utility.yul\":18363:18367   */\n      dup2\n        /* \"#utility.yul\":18359:18379   */\n      sub\n        /* \"#utility.yul\":18355:18356   */\n      0x00\n        /* \"#utility.yul\":18344:18353   */\n      dup4\n        /* \"#utility.yul\":18340:18357   */\n      add\n        /* \"#utility.yul\":18333:18380   */\n      mstore\n        /* \"#utility.yul\":18397:18528   */\n      tag_448\n        /* \"#utility.yul\":18523:18527   */\n      dup2\n        /* \"#utility.yul\":18397:18528   */\n      tag_244\n      jump\t// in\n    tag_448:\n        /* \"#utility.yul\":18389:18528   */\n      swap1\n      pop\n        /* \"#utility.yul\":18116:18535   */\n      swap2\n      swap1\n      pop\n      jump\t// out\n        /* \"#utility.yul\":18541:18721   */\n    tag_94:\n        /* \"#utility.yul\":18589:18666   */\n      0x4e487b7100000000000000000000000000000000000000000000000000000000\n        /* \"#utility.yul\":18586:18587   */\n      0x00\n        /* \"#utility.yul\":18579:18667   */\n      mstore\n        /* \"#utility.yul\":18686:18690   */\n      0x32\n        /* \"#utility.yul\":18683:18684   */\n      0x04\n        /* \"#utility.yul\":18676:18691   */\n      mstore\n        /* \"#utility.yul\":18710:18714   */\n      0x24\n        /* \"#utility.yul\":18707:18708   */\n      0x00\n        /* \"#utility.yul\":18700:18715   */\n      revert\n        /* \"#utility.yul\":18727:18897   */\n    tag_245:\n        /* \"#utility.yul\":18867:18889   */\n      0x547765657420446f65736e277420457869737421000000000000000000000000\n        /* \"#utility.yul\":18863:18864   */\n      0x00\n        /* \"#utility.yul\":18855:18861   */\n      dup3\n        /* \"#utility.yul\":18851:18865   */\n      add\n        /* \"#utility.yul\":18844:18890   */\n      mstore\n        /* \"#utility.yul\":18727:18897   */\n      pop\n      jump\t// out\n        /* \"#utility.yul\":18903:19269   */\n    tag_246:\n        /* \"#utility.yul\":19045:19048   */\n      0x00\n        /* \"#utility.yul\":19066:19133   */\n      tag_452\n        /* \"#utility.yul\":19130:19132   */\n      0x14\n        /* \"#utility.yul\":19125:19128   */\n      dup4\n        /* \"#utility.yul\":19066:19133   */\n      tag_209\n      jump\t// in\n    tag_452:\n        /* \"#utility.yul\":19059:19133   */\n      swap2\n      pop\n        /* \"#utility.yul\":19142:19235   */\n      tag_453\n        /* \"#utility.yul\":19231:19234   */\n      dup3\n        /* \"#utility.yul\":19142:19235   */\n      tag_245\n      jump\t// in\n    tag_453:\n        /* \"#utility.yul\":19260:19262   */\n      0x20\n        /* \"#utility.yul\":19255:19258   */\n      dup3\n        /* \"#utility.yul\":19251:19263   */\n      add\n        /* \"#utility.yul\":19244:19263   */\n      swap1\n      pop\n        /* \"#utility.yul\":18903:19269   */\n      swap2\n      swap1\n      pop\n      jump\t// out\n        /* \"#utility.yul\":19275:19694   */\n    tag_98:\n        /* \"#utility.yul\":19441:19445   */\n      0x00\n        /* \"#utility.yul\":19479:19481   */\n      0x20\n        /* \"#utility.yul\":19468:19477   */\n      dup3\n        /* \"#utility.yul\":19464:19482   */\n      add\n        /* \"#utility.yul\":19456:19482   */\n      swap1\n      pop\n        /* \"#utility.yul\":19528:19537   */\n      dup2\n        /* \"#utility.yul\":19522:19526   */\n      dup2\n        /* \"#utility.yul\":19518:19538   */\n      sub\n        /* \"#utility.yul\":19514:19515   */\n      0x00\n        /* \"#utility.yul\":19503:19512   */\n      dup4\n        /* \"#utility.yul\":19499:19516   */\n      add\n        /* \"#utility.yul\":19492:19539   */\n      mstore\n        /* \"#utility.yul\":19556:19687   */\n      tag_455\n        /* \"#utility.yul\":19682:19686   */\n      dup2\n        /* \"#utility.yul\":19556:19687   */\n      tag_246\n      jump\t// in\n    tag_455:\n        /* \"#utility.yul\":19548:19687   */\n      swap1\n      pop\n        /* \"#utility.yul\":19275:19694   */\n      swap2\n      swap1\n      pop\n      jump\t// out\n        /* \"#utility.yul\":19700:19880   */\n    tag_247:\n        /* \"#utility.yul\":19748:19825   */\n      0x4e487b7100000000000000000000000000000000000000000000000000000000\n        /* \"#utility.yul\":19745:19746   */\n      0x00\n        /* \"#utility.yul\":19738:19826   */\n      mstore\n        /* \"#utility.yul\":19845:19849   */\n      0x11\n        /* \"#utility.yul\":19842:19843   */\n      0x04\n        /* \"#utility.yul\":19835:19850   */\n      mstore\n        /* \"#utility.yul\":19869:19873   */\n      0x24\n        /* \"#utility.yul\":19866:19867   */\n      0x00\n        /* \"#utility.yul\":19859:19874   */\n      revert\n        /* \"#utility.yul\":19886:20077   */\n    tag_103:\n        /* \"#utility.yul\":19926:19929   */\n      0x00\n        /* \"#utility.yul\":19945:19965   */\n      tag_458\n        /* \"#utility.yul\":19963:19964   */\n      dup3\n        /* \"#utility.yul\":19945:19965   */\n      tag_203\n      jump\t// in\n    tag_458:\n        /* \"#utility.yul\":19940:19965   */\n      swap2\n      pop\n        /* \"#utility.yul\":19979:19999   */\n      tag_459\n        /* \"#utility.yul\":19997:19998   */\n      dup4\n        /* \"#utility.yul\":19979:19999   */\n      tag_203\n      jump\t// in\n    tag_459:\n        /* \"#utility.yul\":19974:19999   */\n      swap3\n      pop\n        /* \"#utility.yul\":20022:20023   */\n      dup3\n        /* \"#utility.yul\":20019:20020   */\n      dup3\n        /* \"#utility.yul\":20015:20024   */\n      add\n        /* \"#utility.yul\":20008:20024   */\n      swap1\n      pop\n        /* \"#utility.yul\":20043:20046   */\n      dup1\n        /* \"#utility.yul\":20040:20041   */\n      dup3\n        /* \"#utility.yul\":20037:20047   */\n      gt\n        /* \"#utility.yul\":20034:20070   */\n      iszero\n      tag_460\n      jumpi\n        /* \"#utility.yul\":20050:20068   */\n      tag_461\n      tag_247\n      jump\t// in\n    tag_461:\n        /* \"#utility.yul\":20034:20070   */\n    tag_460:\n        /* \"#utility.yul\":19886:20077   */\n      swap3\n      swap2\n      pop\n      pop\n      jump\t// out\n        /* \"#utility.yul\":20083:20525   */\n    tag_108:\n        /* \"#utility.yul\":20232:20236   */\n      0x00\n        /* \"#utility.yul\":20270:20272   */\n      0x60\n        /* \"#utility.yul\":20259:20268   */\n      dup3\n        /* \"#utility.yul\":20255:20273   */\n      add\n        /* \"#utility.yul\":20247:20273   */\n      swap1\n      pop\n        /* \"#utility.yul\":20283:20354   */\n      tag_463\n        /* \"#utility.yul\":20351:20352   */\n      0x00\n        /* \"#utility.yul\":20340:20349   */\n      dup4\n        /* \"#utility.yul\":20336:20353   */\n      add\n        /* \"#utility.yul\":20327:20333   */\n      dup7\n        /* \"#utility.yul\":20283:20354   */\n      tag_207\n      jump\t// in\n    tag_463:\n        /* \"#utility.yul\":20364:20436   */\n      tag_464\n        /* \"#utility.yul\":20432:20434   */\n      0x20\n        /* \"#utility.yul\":20421:20430   */\n      dup4\n        /* \"#utility.yul\":20417:20435   */\n      add\n        /* \"#utility.yul\":20408:20414   */\n      dup6\n        /* \"#utility.yul\":20364:20436   */\n      tag_206\n      jump\t// in\n    tag_464:\n        /* \"#utility.yul\":20446:20518   */\n      tag_465\n        /* \"#utility.yul\":20514:20516   */\n      0x40\n        /* \"#utility.yul\":20503:20512   */\n      dup4\n        /* \"#utility.yul\":20499:20517   */\n      add\n        /* \"#utility.yul\":20490:20496   */\n      dup5\n        /* \"#utility.yul\":20446:20518   */\n      tag_206\n      jump\t// in\n    tag_465:\n        /* \"#utility.yul\":20083:20525   */\n      swap5\n      swap4\n      pop\n      pop\n      pop\n      pop\n      jump\t// out\n        /* \"#utility.yul\":20531:20699   */\n    tag_248:\n        /* \"#utility.yul\":20671:20691   */\n      0x547765657420697320746f6f206c6f6e67210000000000000000000000000000\n        /* \"#utility.yul\":20667:20668   */\n      0x00\n        /* \"#utility.yul\":20659:20665   */\n      dup3\n        /* \"#utility.yul\":20655:20669   */\n      add\n        /* \"#utility.yul\":20648:20692   */\n      mstore\n        /* \"#utility.yul\":20531:20699   */\n      pop\n      jump\t// out\n        /* \"#utility.yul\":20705:21071   */\n    tag_249:\n        /* \"#utility.yul\":20847:20850   */\n      0x00\n        /* \"#utility.yul\":20868:20935   */\n      tag_468\n        /* \"#utility.yul\":20932:20934   */\n      0x12\n        /* \"#utility.yul\":20927:20930   */\n      dup4\n        /* \"#utility.yul\":20868:20935   */\n      tag_209\n      jump\t// in\n    tag_468:\n        /* \"#utility.yul\":20861:20935   */\n      swap2\n      pop\n        /* \"#utility.yul\":20944:21037   */\n      tag_469\n        /* \"#utility.yul\":21033:21036   */\n      dup3\n        /* \"#utility.yul\":20944:21037   */\n      tag_248\n      jump\t// in\n    tag_469:\n        /* \"#utility.yul\":21062:21064   */\n      0x20\n        /* \"#utility.yul\":21057:21060   */\n      dup3\n        /* \"#utility.yul\":21053:21065   */\n      add\n        /* \"#utility.yul\":21046:21065   */\n      swap1\n      pop\n        /* \"#utility.yul\":20705:21071   */\n      swap2\n      swap1\n      pop\n      jump\t// out\n        /* \"#utility.yul\":21077:21496   */\n    tag_124:\n        /* \"#utility.yul\":21243:21247   */\n      0x00\n        /* \"#utility.yul\":21281:21283   */\n      0x20\n        /* \"#utility.yul\":21270:21279   */\n      dup3\n        /* \"#utility.yul\":21266:21284   */\n      add\n        /* \"#utility.yul\":21258:21284   */\n      swap1\n      pop\n        /* \"#utility.yul\":21330:21339   */\n      dup2\n        /* \"#utility.yul\":21324:21328   */\n      dup2\n        /* \"#utility.yul\":21320:21340   */\n      sub\n        /* \"#utility.yul\":21316:21317   */\n      0x00\n        /* \"#utility.yul\":21305:21314   */\n      dup4\n        /* \"#utility.yul\":21301:21318   */\n      add\n        /* \"#utility.yul\":21294:21341   */\n      mstore\n        /* \"#utility.yul\":21358:21489   */\n      tag_471\n        /* \"#utility.yul\":21484:21488   */\n      dup2\n        /* \"#utility.yul\":21358:21489   */\n      tag_249\n      jump\t// in\n    tag_471:\n        /* \"#utility.yul\":21350:21489   */\n      swap1\n      pop\n        /* \"#utility.yul\":21077:21496   */\n      swap2\n      swap1\n      pop\n      jump\t// out\n        /* \"#utility.yul\":21502:21643   */\n    tag_250:\n        /* \"#utility.yul\":21551:21555   */\n      0x00\n        /* \"#utility.yul\":21574:21577   */\n      dup2\n        /* \"#utility.yul\":21566:21577   */\n      swap1\n      pop\n        /* \"#utility.yul\":21597:21600   */\n      dup2\n        /* \"#utility.yul\":21594:21595   */\n      0x00\n        /* \"#utility.yul\":21587:21601   */\n      mstore\n        /* \"#utility.yul\":21631:21635   */\n      0x20\n        /* \"#utility.yul\":21628:21629   */\n      0x00\n        /* \"#utility.yul\":21618:21636   */\n      keccak256\n        /* \"#utility.yul\":21610:21636   */\n      swap1\n      pop\n        /* \"#utility.yul\":21502:21643   */\n      swap2\n      swap1\n      pop\n      jump\t// out\n        /* \"#utility.yul\":21649:21742   */\n    tag_251:\n        /* \"#utility.yul\":21686:21692   */\n      0x00\n        /* \"#utility.yul\":21733:21735   */\n      0x20\n        /* \"#utility.yul\":21728:21730   */\n      0x1f\n        /* \"#utility.yul\":21721:21726   */\n      dup4\n        /* \"#utility.yul\":21717:21731   */\n      add\n        /* \"#utility.yul\":21713:21736   */\n      div\n        /* \"#utility.yul\":21703:21736   */\n      swap1\n      pop\n        /* \"#utility.yul\":21649:21742   */\n      swap2\n      swap1\n      pop\n      jump\t// out\n        /* \"#utility.yul\":21748:21855   */\n    tag_252:\n        /* \"#utility.yul\":21792:21800   */\n      0x00\n        /* \"#utility.yul\":21842:21847   */\n      dup3\n        /* \"#utility.yul\":21836:21840   */\n      dup3\n        /* \"#utility.yul\":21832:21848   */\n      shl\n        /* \"#utility.yul\":21811:21848   */\n      swap1\n      pop\n        /* \"#utility.yul\":21748:21855   */\n      swap3\n      swap2\n      pop\n      pop\n      jump\t// out\n        /* \"#utility.yul\":21861:22254   */\n    tag_253:\n        /* \"#utility.yul\":21930:21936   */\n      0x00\n        /* \"#utility.yul\":21980:21981   */\n      0x08\n        /* \"#utility.yul\":21968:21978   */\n      dup4\n        /* \"#utility.yul\":21964:21982   */\n      mul\n        /* \"#utility.yul\":22003:22100   */\n      tag_476\n        /* \"#utility.yul\":22033:22099   */\n      0xffffffffffffffffffffffffffffffffffffffffffffffffffffffffffffffff\n        /* \"#utility.yul\":22022:22031   */\n      dup3\n        /* \"#utility.yul\":22003:22100   */\n      tag_252\n      jump\t// in\n    tag_476:\n        /* \"#utility.yul\":22121:22160   */\n      tag_477\n        /* \"#utility.yul\":22151:22159   */\n      dup7\n        /* \"#utility.yul\":22140:22149   */\n      dup4\n        /* \"#utility.yul\":22121:22160   */\n      tag_252\n      jump\t// in\n    tag_477:\n        /* \"#utility.yul\":22109:22160   */\n      swap6\n      pop\n        /* \"#utility.yul\":22193:22197   */\n      dup1\n        /* \"#utility.yul\":22189:22198   */\n      not\n        /* \"#utility.yul\":22182:22187   */\n      dup5\n        /* \"#utility.yul\":22178:22199   */\n      and\n        /* \"#utility.yul\":22169:22199   */\n      swap4\n      pop\n        /* \"#utility.yul\":22242:22246   */\n      dup1\n        /* \"#utility.yul\":22232:22240   */\n      dup7\n        /* \"#utility.yul\":22228:22247   */\n      and\n        /* \"#utility.yul\":22221:22226   */\n      dup5\n        /* \"#utility.yul\":22218:22248   */\n      or\n        /* \"#utility.yul\":22208:22248   */\n      swap3\n      pop\n        /* \"#utility.yul\":21937:22254   */\n      pop\n      pop\n        /* \"#utility.yul\":21861:22254   */\n      swap4\n      swap3\n      pop\n      pop\n      pop\n      jump\t// out\n        /* \"#utility.yul\":22260:22320   */\n    tag_254:\n        /* \"#utility.yul\":22288:22291   */\n      0x00\n        /* \"#utility.yul\":22309:22314   */\n      dup2\n        /* \"#utility.yul\":22302:22314   */\n      swap1\n      pop\n        /* \"#utility.yul\":22260:22320   */\n      swap2\n      swap1\n      pop\n      jump\t// out\n        /* \"#utility.yul\":22326:22468   */\n    tag_255:\n        /* \"#utility.yul\":22376:22385   */\n      0x00\n        /* \"#utility.yul\":22409:22462   */\n      tag_480\n        /* \"#utility.yul\":22427:22461   */\n      tag_481\n        /* \"#utility.yul\":22436:22460   */\n      tag_482\n        /* \"#utility.yul\":22454:22459   */\n      dup5\n        /* \"#utility.yul\":22436:22460   */\n      tag_203\n      jump\t// in\n    tag_482:\n        /* \"#utility.yul\":22427:22461   */\n      tag_254\n      jump\t// in\n    tag_481:\n        /* \"#utility.yul\":22409:22462   */\n      tag_203\n      jump\t// in\n    tag_480:\n        /* \"#utility.yul\":22396:22462   */\n      swap1\n      pop\n        /* \"#utility.yul\":22326:22468   */\n      swap2\n      swap1\n      pop\n      jump\t// out\n        /* \"#utility.yul\":22474:22549   */\n    tag_256:\n        /* \"#utility.yul\":22517:22520   */\n      0x00\n        /* \"#utility.yul\":22538:22543   */\n      dup2\n        /* \"#utility.yul\":22531:22543   */\n      swap1\n      pop\n        /* \"#utility.yul\":22474:22549   */\n      swap2\n      swap1\n      pop\n      jump\t// out\n        /* \"#utility.yul\":22555:22824   */\n    tag_257:\n        /* \"#utility.yul\":22665:22704   */\n      tag_485\n        /* \"#utility.yul\":22696:22703   */\n      dup4\n        /* \"#utility.yul\":22665:22704   */\n      tag_255\n      jump\t// in\n    tag_485:\n        /* \"#utility.yul\":22726:22817   */\n      tag_486\n        /* \"#utility.yul\":22775:22816   */\n      tag_487\n        /* \"#utility.yul\":22799:22815   */\n      dup3\n        /* \"#utility.yul\":22775:22816   */\n      tag_256\n      jump\t// in\n    tag_487:\n        /* \"#utility.yul\":22767:22773   */\n      dup5\n        /* \"#utility.yul\":22760:22764   */\n      dup5\n        /* \"#utility.yul\":22754:22765   */\n      sload\n        /* \"#utility.yul\":22726:22817   */\n      tag_253\n      jump\t// in\n    tag_486:\n        /* \"#utility.yul\":22720:22724   */\n      dup3\n        /* \"#utility.yul\":22713:22818   */\n      sstore\n        /* \"#utility.yul\":22631:22824   */\n      pop\n        /* \"#utility.yul\":22555:22824   */\n      pop\n      pop\n      pop\n      jump\t// out\n        /* \"#utility.yul\":22830:22903   */\n    tag_258:\n        /* \"#utility.yul\":22875:22878   */\n      0x00\n        /* \"#utility.yul\":22830:22903   */\n      swap1\n      jump\t// out\n        /* \"#utility.yul\":22909:23098   */\n    tag_259:\n        /* \"#utility.yul\":22986:23018   */\n      tag_490\n      tag_258\n      jump\t// in\n    tag_490:\n        /* \"#utility.yul\":23027:23092   */\n      tag_491\n        /* \"#utility.yul\":23085:23091   */\n      dup2\n        /* \"#utility.yul\":23077:23083   */\n      dup5\n        /* \"#utility.yul\":23071:23075   */\n      dup5\n        /* \"#utility.yul\":23027:23092   */\n      tag_257\n      jump\t// in\n    tag_491:\n        /* \"#utility.yul\":22962:23098   */\n      pop\n        /* \"#utility.yul\":22909:23098   */\n      pop\n      pop\n      jump\t// out\n        /* \"#utility.yul\":23104:23290   */\n    tag_260:\n        /* \"#utility.yul\":23164:23284   */\n    tag_493:\n        /* \"#utility.yul\":23181:23184   */\n      dup2\n        /* \"#utility.yul\":23174:23179   */\n      dup2\n        /* \"#utility.yul\":23171:23185   */\n      lt\n        /* \"#utility.yul\":23164:23284   */\n      iszero\n      tag_495\n      jumpi\n        /* \"#utility.yul\":23235:23274   */\n      tag_496\n        /* \"#utility.yul\":23272:23273   */\n      0x00\n        /* \"#utility.yul\":23265:23270   */\n      dup3\n        /* \"#utility.yul\":23235:23274   */\n      tag_259\n      jump\t// in\n    tag_496:\n        /* \"#utility.yul\":23208:23209   */\n      0x01\n        /* \"#utility.yul\":23201:23206   */\n      dup2\n        /* \"#utility.yul\":23197:23210   */\n      add\n        /* \"#utility.yul\":23188:23210   */\n      swap1\n      pop\n        /* \"#utility.yul\":23164:23284   */\n      jump(tag_493)\n    tag_495:\n        /* \"#utility.yul\":23104:23290   */\n      pop\n      pop\n      jump\t// out\n        /* \"#utility.yul\":23296:23839   */\n    tag_261:\n        /* \"#utility.yul\":23397:23399   */\n      0x1f\n        /* \"#utility.yul\":23392:23395   */\n      dup3\n        /* \"#utility.yul\":23389:23400   */\n      gt\n        /* \"#utility.yul\":23386:23832   */\n      iszero\n      tag_498\n      jumpi\n        /* \"#utility.yul\":23431:23469   */\n      tag_499\n        /* \"#utility.yul\":23463:23468   */\n      dup2\n        /* \"#utility.yul\":23431:23469   */\n      tag_250\n      jump\t// in\n    tag_499:\n        /* \"#utility.yul\":23515:23544   */\n      tag_500\n        /* \"#utility.yul\":23533:23543   */\n      dup5\n        /* \"#utility.yul\":23515:23544   */\n      tag_251\n      jump\t// in\n    tag_500:\n        /* \"#utility.yul\":23505:23513   */\n      dup2\n        /* \"#utility.yul\":23501:23545   */\n      add\n        /* \"#utility.yul\":23698:23700   */\n      0x20\n        /* \"#utility.yul\":23686:23696   */\n      dup6\n        /* \"#utility.yul\":23683:23701   */\n      lt\n        /* \"#utility.yul\":23680:23729   */\n      iszero\n      tag_501\n      jumpi\n        /* \"#utility.yul\":23719:23727   */\n      dup2\n        /* \"#utility.yul\":23704:23727   */\n      swap1\n      pop\n        /* \"#utility.yul\":23680:23729   */\n    tag_501:\n        /* \"#utility.yul\":23742:23822   */\n      tag_502\n        /* \"#utility.yul\":23798:23820   */\n      tag_503\n        /* \"#utility.yul\":23816:23819   */\n      dup6\n        /* \"#utility.yul\":23798:23820   */\n      tag_251\n      jump\t// in\n    tag_503:\n        /* \"#utility.yul\":23788:23796   */\n      dup4\n        /* \"#utility.yul\":23784:23821   */\n      add\n        /* \"#utility.yul\":23771:23782   */\n      dup3\n        /* \"#utility.yul\":23742:23822   */\n      tag_260\n      jump\t// in\n    tag_502:\n        /* \"#utility.yul\":23401:23832   */\n      pop\n      pop\n        /* \"#utility.yul\":23386:23832   */\n    tag_498:\n        /* \"#utility.yul\":23296:23839   */\n      pop\n      pop\n      pop\n      jump\t// out\n        /* \"#utility.yul\":23845:23962   */\n    tag_262:\n        /* \"#utility.yul\":23899:23907   */\n      0x00\n        /* \"#utility.yul\":23949:23954   */\n      dup3\n        /* \"#utility.yul\":23943:23947   */\n      dup3\n        /* \"#utility.yul\":23939:23955   */\n      shr\n        /* \"#utility.yul\":23918:23955   */\n      swap1\n      pop\n        /* \"#utility.yul\":23845:23962   */\n      swap3\n      swap2\n      pop\n      pop\n      jump\t// out\n        /* \"#utility.yul\":23968:24137   */\n    tag_263:\n        /* \"#utility.yul\":24012:24018   */\n      0x00\n        /* \"#utility.yul\":24045:24096   */\n      tag_506\n        /* \"#utility.yul\":24093:24094   */\n      0x00\n        /* \"#utility.yul\":24089:24095   */\n      not\n        /* \"#utility.yul\":24081:24086   */\n      dup5\n        /* \"#utility.yul\":24078:24079   */\n      0x08\n        /* \"#utility.yul\":24074:24087   */\n      mul\n        /* \"#utility.yul\":24045:24096   */\n      tag_262\n      jump\t// in\n    tag_506:\n        /* \"#utility.yul\":24041:24097   */\n      not\n        /* \"#utility.yul\":24126:24130   */\n      dup1\n        /* \"#utility.yul\":24120:24124   */\n      dup4\n        /* \"#utility.yul\":24116:24131   */\n      and\n        /* \"#utility.yul\":24106:24131   */\n      swap2\n      pop\n        /* \"#utility.yul\":24019:24137   */\n      pop\n        /* \"#utility.yul\":23968:24137   */\n      swap3\n      swap2\n      pop\n      pop\n      jump\t// out\n        /* \"#utility.yul\":24142:24437   */\n    tag_264:\n        /* \"#utility.yul\":24218:24222   */\n      0x00\n        /* \"#utility.yul\":24364:24393   */\n      tag_508\n        /* \"#utility.yul\":24389:24392   */\n      dup4\n        /* \"#utility.yul\":24383:24387   */\n      dup4\n        /* \"#utility.yul\":24364:24393   */\n      tag_263\n      jump\t// in\n    tag_508:\n        /* \"#utility.yul\":24356:24393   */\n      swap2\n      pop\n        /* \"#utility.yul\":24426:24429   */\n      dup3\n        /* \"#utility.yul\":24423:24424   */\n      0x02\n        /* \"#utility.yul\":24419:24430   */\n      mul\n        /* \"#utility.yul\":24413:24417   */\n      dup3\n        /* \"#utility.yul\":24410:24431   */\n      or\n        /* \"#utility.yul\":24402:24431   */\n      swap1\n      pop\n        /* \"#utility.yul\":24142:24437   */\n      swap3\n      swap2\n      pop\n      pop\n      jump\t// out\n        /* \"#utility.yul\":24442:25837   */\n    tag_127:\n        /* \"#utility.yul\":24559:24596   */\n      tag_510\n        /* \"#utility.yul\":24592:24595   */\n      dup3\n        /* \"#utility.yul\":24559:24596   */\n      tag_208\n      jump\t// in\n    tag_510:\n        /* \"#utility.yul\":24661:24679   */\n      0xffffffffffffffff\n        /* \"#utility.yul\":24653:24659   */\n      dup2\n        /* \"#utility.yul\":24650:24680   */\n      gt\n        /* \"#utility.yul\":24647:24703   */\n      iszero\n      tag_511\n      jumpi\n        /* \"#utility.yul\":24683:24701   */\n      tag_512\n      tag_229\n      jump\t// in\n    tag_512:\n        /* \"#utility.yul\":24647:24703   */\n    tag_511:\n        /* \"#utility.yul\":24727:24765   */\n      tag_513\n        /* \"#utility.yul\":24759:24763   */\n      dup3\n        /* \"#utility.yul\":24753:24764   */\n      sload\n        /* \"#utility.yul\":24727:24765   */\n      tag_64\n      jump\t// in\n    tag_513:\n        /* \"#utility.yul\":24812:24879   */\n      tag_514\n        /* \"#utility.yul\":24872:24878   */\n      dup3\n        /* \"#utility.yul\":24864:24870   */\n      dup3\n        /* \"#utility.yul\":24858:24862   */\n      dup6\n        /* \"#utility.yul\":24812:24879   */\n      tag_261\n      jump\t// in\n    tag_514:\n        /* \"#utility.yul\":24906:24907   */\n      0x00\n        /* \"#utility.yul\":24930:24934   */\n      0x20\n        /* \"#utility.yul\":24917:24934   */\n      swap1\n      pop\n        /* \"#utility.yul\":24962:24964   */\n      0x1f\n        /* \"#utility.yul\":24954:24960   */\n      dup4\n        /* \"#utility.yul\":24951:24965   */\n      gt\n        /* \"#utility.yul\":24979:24980   */\n      0x01\n        /* \"#utility.yul\":24974:25592   */\n      dup2\n      eq\n      tag_516\n      jumpi\n        /* \"#utility.yul\":25636:25637   */\n      0x00\n        /* \"#utility.yul\":25653:25659   */\n      dup5\n        /* \"#utility.yul\":25650:25727   */\n      iszero\n      tag_517\n      jumpi\n        /* \"#utility.yul\":25702:25711   */\n      dup3\n        /* \"#utility.yul\":25697:25700   */\n      dup8\n        /* \"#utility.yul\":25693:25712   */\n      add\n        /* \"#utility.yul\":25687:25713   */\n      mload\n        /* \"#utility.yul\":25678:25713   */\n      swap1\n      pop\n        /* \"#utility.yul\":25650:25727   */\n    tag_517:\n        /* \"#utility.yul\":25753:25820   */\n      tag_518\n        /* \"#utility.yul\":25813:25819   */\n      dup6\n        /* \"#utility.yul\":25806:25811   */\n      dup3\n        /* \"#utility.yul\":25753:25820   */\n      tag_264\n      jump\t// in\n    tag_518:\n        /* \"#utility.yul\":25747:25751   */\n      dup7\n        /* \"#utility.yul\":25740:25821   */\n      sstore\n        /* \"#utility.yul\":25609:25831   */\n      pop\n        /* \"#utility.yul\":24944:25831   */\n      jump(tag_515)\n        /* \"#utility.yul\":24974:25592   */\n    tag_516:\n        /* \"#utility.yul\":25026:25030   */\n      0x1f\n        /* \"#utility.yul\":25022:25031   */\n      not\n        /* \"#utility.yul\":25014:25020   */\n      dup5\n        /* \"#utility.yul\":25010:25032   */\n      and\n        /* \"#utility.yul\":25060:25097   */\n      tag_519\n        /* \"#utility.yul\":25092:25096   */\n      dup7\n        /* \"#utility.yul\":25060:25097   */\n      tag_250\n      jump\t// in\n    tag_519:\n        /* \"#utility.yul\":25119:25120   */\n      0x00\n        /* \"#utility.yul\":25133:25341   */\n    tag_520:\n        /* \"#utility.yul\":25147:25154   */\n      dup3\n        /* \"#utility.yul\":25144:25145   */\n      dup2\n        /* \"#utility.yul\":25141:25155   */\n      lt\n        /* \"#utility.yul\":25133:25341   */\n      iszero\n      tag_522\n      jumpi\n        /* \"#utility.yul\":25226:25235   */\n      dup5\n        /* \"#utility.yul\":25221:25224   */\n      dup10\n        /* \"#utility.yul\":25217:25236   */\n      add\n        /* \"#utility.yul\":25211:25237   */\n      mload\n        /* \"#utility.yul\":25203:25209   */\n      dup3\n        /* \"#utility.yul\":25196:25238   */\n      sstore\n        /* \"#utility.yul\":25277:25278   */\n      0x01\n        /* \"#utility.yul\":25269:25275   */\n      dup3\n        /* \"#utility.yul\":25265:25279   */\n      add\n        /* \"#utility.yul\":25255:25279   */\n      swap2\n      pop\n        /* \"#utility.yul\":25324:25326   */\n      0x20\n        /* \"#utility.yul\":25313:25322   */\n      dup6\n        /* \"#utility.yul\":25309:25327   */\n      add\n        /* \"#utility.yul\":25296:25327   */\n      swap5\n      pop\n        /* \"#utility.yul\":25170:25174   */\n      0x20\n        /* \"#utility.yul\":25167:25168   */\n      dup2\n        /* \"#utility.yul\":25163:25175   */\n      add\n        /* \"#utility.yul\":25158:25175   */\n      swap1\n      pop\n        /* \"#utility.yul\":25133:25341   */\n      jump(tag_520)\n    tag_522:\n        /* \"#utility.yul\":25369:25375   */\n      dup7\n        /* \"#utility.yul\":25360:25367   */\n      dup4\n        /* \"#utility.yul\":25357:25376   */\n      lt\n        /* \"#utility.yul\":25354:25533   */\n      iszero\n      tag_523\n      jumpi\n        /* \"#utility.yul\":25427:25436   */\n      dup5\n        /* \"#utility.yul\":25422:25425   */\n      dup10\n        /* \"#utility.yul\":25418:25437   */\n      add\n        /* \"#utility.yul\":25412:25438   */\n      mload\n        /* \"#utility.yul\":25470:25518   */\n      tag_524\n        /* \"#utility.yul\":25512:25516   */\n      0x1f\n        /* \"#utility.yul\":25504:25510   */\n      dup10\n        /* \"#utility.yul\":25500:25517   */\n      and\n        /* \"#utility.yul\":25489:25498   */\n      dup3\n        /* \"#utility.yul\":25470:25518   */\n      tag_263\n      jump\t// in\n    tag_524:\n        /* \"#utility.yul\":25462:25468   */\n      dup4\n        /* \"#utility.yul\":25455:25519   */\n      sstore\n        /* \"#utility.yul\":25377:25533   */\n      pop\n        /* \"#utility.yul\":25354:25533   */\n    tag_523:\n        /* \"#utility.yul\":25579:25580   */\n      0x01\n        /* \"#utility.yul\":25575:25576   */\n      0x02\n        /* \"#utility.yul\":25567:25573   */\n      dup9\n        /* \"#utility.yul\":25563:25577   */\n      mul\n        /* \"#utility.yul\":25559:25581   */\n      add\n        /* \"#utility.yul\":25553:25557   */\n      dup9\n        /* \"#utility.yul\":25546:25582   */\n      sstore\n        /* \"#utility.yul\":24981:25592   */\n      pop\n      pop\n      pop\n        /* \"#utility.yul\":24944:25831   */\n    tag_515:\n      pop\n        /* \"#utility.yul\":24534:25837   */\n      pop\n      pop\n      pop\n        /* \"#utility.yul\":24442:25837   */\n      pop\n      pop\n      jump\t// out\n        /* \"#utility.yul\":25843:26376   */\n    tag_129:\n        /* \"#utility.yul\":26012:26016   */\n      0x00\n        /* \"#utility.yul\":26050:26052   */\n      0x60\n        /* \"#utility.yul\":26039:26048   */\n      dup3\n        /* \"#utility.yul\":26035:26053   */\n      add\n        /* \"#utility.yul\":26027:26053   */\n      swap1\n      pop\n        /* \"#utility.yul\":26063:26134   */\n      tag_526\n        /* \"#utility.yul\":26131:26132   */\n      0x00\n        /* \"#utility.yul\":26120:26129   */\n      dup4\n        /* \"#utility.yul\":26116:26133   */\n      add\n        /* \"#utility.yul\":26107:26113   */\n      dup7\n        /* \"#utility.yul\":26063:26134   */\n      tag_206\n      jump\t// in\n    tag_526:\n        /* \"#utility.yul\":26181:26190   */\n      dup2\n        /* \"#utility.yul\":26175:26179   */\n      dup2\n        /* \"#utility.yul\":26171:26191   */\n      sub\n        /* \"#utility.yul\":26166:26168   */\n      0x20\n        /* \"#utility.yul\":26155:26164   */\n      dup4\n        /* \"#utility.yul\":26151:26169   */\n      add\n        /* \"#utility.yul\":26144:26192   */\n      mstore\n        /* \"#utility.yul\":26209:26287   */\n      tag_527\n        /* \"#utility.yul\":26282:26286   */\n      dup2\n        /* \"#utility.yul\":26273:26279   */\n      dup6\n        /* \"#utility.yul\":26209:26287   */\n      tag_212\n      jump\t// in\n    tag_527:\n        /* \"#utility.yul\":26201:26287   */\n      swap1\n      pop\n        /* \"#utility.yul\":26297:26369   */\n      tag_528\n        /* \"#utility.yul\":26365:26367   */\n      0x40\n        /* \"#utility.yul\":26354:26363   */\n      dup4\n        /* \"#utility.yul\":26350:26368   */\n      add\n        /* \"#utility.yul\":26341:26347   */\n      dup5\n        /* \"#utility.yul\":26297:26369   */\n      tag_206\n      jump\t// in\n    tag_528:\n        /* \"#utility.yul\":25843:26376   */\n      swap5\n      swap4\n      pop\n      pop\n      pop\n      pop\n      jump\t// out\n        /* \"#utility.yul\":26382:26615   */\n    tag_139:\n        /* \"#utility.yul\":26421:26424   */\n      0x00\n        /* \"#utility.yul\":26444:26468   */\n      tag_530\n        /* \"#utility.yul\":26462:26467   */\n      dup3\n        /* \"#utility.yul\":26444:26468   */\n      tag_203\n      jump\t// in\n    tag_530:\n        /* \"#utility.yul\":26435:26468   */\n      swap2\n      pop\n        /* \"#utility.yul\":26490:26556   */\n      0xffffffffffffffffffffffffffffffffffffffffffffffffffffffffffffffff\n        /* \"#utility.yul\":26483:26488   */\n      dup3\n        /* \"#utility.yul\":26480:26557   */\n      sub\n        /* \"#utility.yul\":26477:26580   */\n      tag_531\n      jumpi\n        /* \"#utility.yul\":26560:26578   */\n      tag_532\n      tag_247\n      jump\t// in\n    tag_532:\n        /* \"#utility.yul\":26477:26580   */\n    tag_531:\n        /* \"#utility.yul\":26607:26608   */\n      0x01\n        /* \"#utility.yul\":26600:26605   */\n      dup3\n        /* \"#utility.yul\":26596:26609   */\n      add\n        /* \"#utility.yul\":26589:26609   */\n      swap1\n      pop\n        /* \"#utility.yul\":26382:26615   */\n      swap2\n      swap1\n      pop\n      jump\t// out\n        /* \"#utility.yul\":26621:26790   */\n    tag_265:\n        /* \"#utility.yul\":26761:26782   */\n      0x547765657420486173204e6f204c696b65732100000000000000000000000000\n        /* \"#utility.yul\":26757:26758   */\n      0x00\n        /* \"#utility.yul\":26749:26755   */\n      dup3\n        /* \"#utility.yul\":26745:26759   */\n      add\n        /* \"#utility.yul\":26738:26783   */\n      mstore\n        /* \"#utility.yul\":26621:26790   */\n      pop\n      jump\t// out\n        /* \"#utility.yul\":26796:27162   */\n    tag_266:\n        /* \"#utility.yul\":26938:26941   */\n      0x00\n        /* \"#utility.yul\":26959:27026   */\n      tag_535\n        /* \"#utility.yul\":27023:27025   */\n      0x13\n        /* \"#utility.yul\":27018:27021   */\n      dup4\n        /* \"#utility.yul\":26959:27026   */\n      tag_209\n      jump\t// in\n    tag_535:\n        /* \"#utility.yul\":26952:27026   */\n      swap2\n      pop\n        /* \"#utility.yul\":27035:27128   */\n      tag_536\n        /* \"#utility.yul\":27124:27127   */\n      dup3\n        /* \"#utility.yul\":27035:27128   */\n      tag_265\n      jump\t// in\n    tag_536:\n        /* \"#utility.yul\":27153:27155   */\n      0x20\n        /* \"#utility.yul\":27148:27151   */\n      dup3\n        /* \"#utility.yul\":27144:27156   */\n      add\n        /* \"#utility.yul\":27137:27156   */\n      swap1\n      pop\n        /* \"#utility.yul\":26796:27162   */\n      swap2\n      swap1\n      pop\n      jump\t// out\n        /* \"#utility.yul\":27168:27587   */\n    tag_159:\n        /* \"#utility.yul\":27334:27338   */\n      0x00\n        /* \"#utility.yul\":27372:27374   */\n      0x20\n        /* \"#utility.yul\":27361:27370   */\n      dup3\n        /* \"#utility.yul\":27357:27375   */\n      add\n        /* \"#utility.yul\":27349:27375   */\n      swap1\n      pop\n        /* \"#utility.yul\":27421:27430   */\n      dup2\n        /* \"#utility.yul\":27415:27419   */\n      dup2\n        /* \"#utility.yul\":27411:27431   */\n      sub\n        /* \"#utility.yul\":27407:27408   */\n      0x00\n        /* \"#utility.yul\":27396:27405   */\n      dup4\n        /* \"#utility.yul\":27392:27409   */\n      add\n        /* \"#utility.yul\":27385:27432   */\n      mstore\n        /* \"#utility.yul\":27449:27580   */\n      tag_538\n        /* \"#utility.yul\":27575:27579   */\n      dup2\n        /* \"#utility.yul\":27449:27580   */\n      tag_266\n      jump\t// in\n    tag_538:\n        /* \"#utility.yul\":27441:27580   */\n      swap1\n      pop\n        /* \"#utility.yul\":27168:27587   */\n      swap2\n      swap1\n      pop\n      jump\t// out\n        /* \"#utility.yul\":27593:27787   */\n    tag_164:\n        /* \"#utility.yul\":27633:27637   */\n      0x00\n        /* \"#utility.yul\":27653:27673   */\n      tag_540\n        /* \"#utility.yul\":27671:27672   */\n      dup3\n        /* \"#utility.yul\":27653:27673   */\n      tag_203\n      jump\t// in\n    tag_540:\n        /* \"#utility.yul\":27648:27673   */\n      swap2\n      pop\n        /* \"#utility.yul\":27687:27707   */\n      tag_541\n        /* \"#utility.yul\":27705:27706   */\n      dup4\n        /* \"#utility.yul\":27687:27707   */\n      tag_203\n      jump\t// in\n    tag_541:\n        /* \"#utility.yul\":27682:27707   */\n      swap3\n      pop\n        /* \"#utility.yul\":27731:27732   */\n      dup3\n        /* \"#utility.yul\":27728:27729   */\n      dup3\n        /* \"#utility.yul\":27724:27733   */\n      sub\n        /* \"#utility.yul\":27716:27733   */\n      swap1\n      pop\n        /* \"#utility.yul\":27755:27756   */\n      dup2\n        /* \"#utility.yul\":27749:27753   */\n      dup2\n        /* \"#utility.yul\":27746:27757   */\n      gt\n        /* \"#utility.yul\":27743:27780   */\n      iszero\n      tag_542\n      jumpi\n        /* \"#utility.yul\":27760:27778   */\n      tag_543\n      tag_247\n      jump\t// in\n    tag_543:\n        /* \"#utility.yul\":27743:27780   */\n    tag_542:\n        /* \"#utility.yul\":27593:27787   */\n      swap3\n      swap2\n      pop\n      pop\n      jump\t// out\n        /* \"#utility.yul\":27793:28018   */\n    tag_267:\n        /* \"#utility.yul\":27933:27967   */\n      0x4f776e61626c653a206e6577206f776e657220697320746865207a65726f2061\n        /* \"#utility.yul\":27929:27930   */\n      0x00\n        /* \"#utility.yul\":27921:27927   */\n      dup3\n        /* \"#utility.yul\":27917:27931   */\n      add\n        /* \"#utility.yul\":27910:27968   */\n      mstore\n        /* \"#utility.yul\":28002:28010   */\n      0x6464726573730000000000000000000000000000000000000000000000000000\n        /* \"#utility.yul\":27997:27999   */\n      0x20\n        /* \"#utility.yul\":27989:27995   */\n      dup3\n        /* \"#utility.yul\":27985:28000   */\n      add\n        /* \"#utility.yul\":27978:28011   */\n      mstore\n        /* \"#utility.yul\":27793:28018   */\n      pop\n      jump\t// out\n        /* \"#utility.yul\":28024:28390   */\n    tag_268:\n        /* \"#utility.yul\":28166:28169   */\n      0x00\n        /* \"#utility.yul\":28187:28254   */\n      tag_546\n        /* \"#utility.yul\":28251:28253   */\n      0x26\n        /* \"#utility.yul\":28246:28249   */\n      dup4\n        /* \"#utility.yul\":28187:28254   */\n      tag_209\n      jump\t// in\n    tag_546:\n        /* \"#utility.yul\":28180:28254   */\n      swap2\n      pop\n        /* \"#utility.yul\":28263:28356   */\n      tag_547\n        /* \"#utility.yul\":28352:28355   */\n      dup3\n        /* \"#utility.yul\":28263:28356   */\n      tag_267\n      jump\t// in\n    tag_547:\n        /* \"#utility.yul\":28381:28383   */\n      0x40\n        /* \"#utility.yul\":28376:28379   */\n      dup3\n        /* \"#utility.yul\":28372:28384   */\n      add\n        /* \"#utility.yul\":28365:28384   */\n      swap1\n      pop\n        /* \"#utility.yul\":28024:28390   */\n      swap2\n      swap1\n      pop\n      jump\t// out\n        /* \"#utility.yul\":28396:28815   */\n    tag_185:\n        /* \"#utility.yul\":28562:28566   */\n      0x00\n        /* \"#utility.yul\":28600:28602   */\n      0x20\n        /* \"#utility.yul\":28589:28598   */\n      dup3\n        /* \"#utility.yul\":28585:28603   */\n      add\n        /* \"#utility.yul\":28577:28603   */\n      swap1\n      pop\n        /* \"#utility.yul\":28649:28658   */\n      dup2\n        /* \"#utility.yul\":28643:28647   */\n      dup2\n        /* \"#utility.yul\":28639:28659   */\n      sub\n        /* \"#utility.yul\":28635:28636   */\n      0x00\n        /* \"#utility.yul\":28624:28633   */\n      dup4\n        /* \"#utility.yul\":28620:28637   */\n      add\n        /* \"#utility.yul\":28613:28660   */\n      mstore\n        /* \"#utility.yul\":28677:28808   */\n      tag_549\n        /* \"#utility.yul\":28803:28807   */\n      dup2\n        /* \"#utility.yul\":28677:28808   */\n      tag_268\n      jump\t// in\n    tag_549:\n        /* \"#utility.yul\":28669:28808   */\n      swap1\n      pop\n        /* \"#utility.yul\":28396:28815   */\n      swap2\n      swap1\n      pop\n      jump\t// out\n        /* \"#utility.yul\":28821:29003   */\n    tag_269:\n        /* \"#utility.yul\":28961:28995   */\n      0x4f776e61626c653a2063616c6c6572206973206e6f7420746865206f776e6572\n        /* \"#utility.yul\":28957:28958   */\n      0x00\n        /* \"#utility.yul\":28949:28955   */\n      dup3\n        /* \"#utility.yul\":28945:28959   */\n      add\n        /* \"#utility.yul\":28938:28996   */\n      mstore\n        /* \"#utility.yul\":28821:29003   */\n      pop\n      jump\t// out\n        /* \"#utility.yul\":29009:29375   */\n    tag_270:\n        /* \"#utility.yul\":29151:29154   */\n      0x00\n        /* \"#utility.yul\":29172:29239   */\n      tag_552\n        /* \"#utility.yul\":29236:29238   */\n      0x20\n        /* \"#utility.yul\":29231:29234   */\n      dup4\n        /* \"#utility.yul\":29172:29239   */\n      tag_209\n      jump\t// in\n    tag_552:\n        /* \"#utility.yul\":29165:29239   */\n      swap2\n      pop\n        /* \"#utility.yul\":29248:29341   */\n      tag_553\n        /* \"#utility.yul\":29337:29340   */\n      dup3\n        /* \"#utility.yul\":29248:29341   */\n      tag_269\n      jump\t// in\n    tag_553:\n        /* \"#utility.yul\":29366:29368   */\n      0x20\n        /* \"#utility.yul\":29361:29364   */\n      dup3\n        /* \"#utility.yul\":29357:29369   */\n      add\n        /* \"#utility.yul\":29350:29369   */\n      swap1\n      pop\n        /* \"#utility.yul\":29009:29375   */\n      swap2\n      swap1\n      pop\n      jump\t// out\n        /* \"#utility.yul\":29381:29800   */\n    tag_193:\n        /* \"#utility.yul\":29547:29551   */\n      0x00\n        /* \"#utility.yul\":29585:29587   */\n      0x20\n        /* \"#utility.yul\":29574:29583   */\n      dup3\n        /* \"#utility.yul\":29570:29588   */\n      add\n        /* \"#utility.yul\":29562:29588   */\n      swap1\n      pop\n        /* \"#utility.yul\":29634:29643   */\n      dup2\n        /* \"#utility.yul\":29628:29632   */\n      dup2\n        /* \"#utility.yul\":29624:29644   */\n      sub\n        /* \"#utility.yul\":29620:29621   */\n      0x00\n        /* \"#utility.yul\":29609:29618   */\n      dup4\n        /* \"#utility.yul\":29605:29622   */\n      add\n        /* \"#utility.yul\":29598:29645   */\n      mstore\n        /* \"#utility.yul\":29662:29793   */\n      tag_555\n        /* \"#utility.yul\":29788:29792   */\n      dup2\n        /* \"#utility.yul\":29662:29793   */\n      tag_270\n      jump\t// in\n    tag_555:\n        /* \"#utility.yul\":29654:29793   */\n      swap1\n      pop\n        /* \"#utility.yul\":29381:29800   */\n      swap2\n      swap1\n      pop\n      jump\t// out\n\n    auxdata: 0xa26469706673582212209fd9d39c55e198d3193083c7e6950cb91ed1a7063146306b7102e1ad6125f66664736f6c63430008120033\n}\n",
				"bytecode": {
					"linkReferences": {},
					"object": "6080604052610118600060146101000a81548161ffff021916908361ffff1602179055503480156200003057600080fd5b5060405162002460380380620024608339818101604052810190620000569190620001f4565b620000766200006a620000be60201b60201c565b620000c660201b60201c565b80600160006101000a81548173ffffffffffffffffffffffffffffffffffffffff021916908373ffffffffffffffffffffffffffffffffffffffff1602179055505062000226565b600033905090565b60008060009054906101000a900473ffffffffffffffffffffffffffffffffffffffff169050816000806101000a81548173ffffffffffffffffffffffffffffffffffffffff021916908373ffffffffffffffffffffffffffffffffffffffff1602179055508173ffffffffffffffffffffffffffffffffffffffff168173ffffffffffffffffffffffffffffffffffffffff167f8be0079c531659141344cd1fd0a4f28419497f9722a3daafe3b4186f6b6457e060405160405180910390a35050565b600080fd5b600073ffffffffffffffffffffffffffffffffffffffff82169050919050565b6000620001bc826200018f565b9050919050565b620001ce81620001af565b8114620001da57600080fd5b50565b600081519050620001ee81620001c3565b92915050565b6000602082840312156200020d576200020c6200018a565b5b60006200021d84828501620001dd565b91505092915050565b61222a80620002366000396000f3fe608060405234801561001057600080fd5b50600436106100a95760003560e01c80637c9cd2bc116100715780637c9cd2bc14610154578063820785cc146101705780638da5cb5b146101a05780639ef8633f146101be578063c3ad5ecb146101da578063f2fde38b1461020a576100a9565b806305a1b4a9146100ae57806312e7ee1c146100e257806358bfa4ab14610112578063633782161461012e578063715018a61461014a575b600080fd5b6100c860048036038101906100c39190611383565b610226565b6040516100d9959493929190611471565b60405180910390f35b6100fc60048036038101906100f791906114cb565b610321565b6040516101099190611698565b60405180910390f35b61012c600480360381019061012791906116f4565b6104c5565b005b61014860048036038101906101439190611383565b6104ed565b005b6101526107b1565b005b61016e60048036038101906101699190611856565b6107c5565b005b61018a600480360381019061018591906114cb565b610adb565b604051610197919061189f565b60405180910390f35b6101a8610bb8565b6040516101b591906118ba565b60405180910390f35b6101d860048036038101906101d39190611383565b610be1565b005b6101f460048036038101906101ef91906118d5565b610f4a565b6040516102019190611978565b60405180910390f35b610224600480360381019061021f91906114cb565b6110c9565b005b6002602052816000526040600020818154811061024257600080fd5b9060005260206000209060050201600091509150508060000154908060010160009054906101000a900473ffffffffffffffffffffffffffffffffffffffff1690806002018054610292906119c9565b80601f01602080910402602001604051908101604052809291908181526020018280546102be906119c9565b801561030b5780601f106102e05761010080835404028352916020019161030b565b820191906000526020600020905b8154815290600101906020018083116102ee57829003601f168201915b5050505050908060030154908060040154905085565b6060600260008373ffffffffffffffffffffffffffffffffffffffff1673ffffffffffffffffffffffffffffffffffffffff168152602001908152602001600020805480602002602001604051908101604052809291908181526020016000905b828210156104ba57838290600052602060002090600502016040518060a0016040529081600082015481526020016001820160009054906101000a900473ffffffffffffffffffffffffffffffffffffffff1673ffffffffffffffffffffffffffffffffffffffff1673ffffffffffffffffffffffffffffffffffffffff168152602001600282018054610415906119c9565b80601f0160208091040260200160405190810160405280929190818152602001828054610441906119c9565b801561048e5780601f106104635761010080835404028352916020019161048e565b820191906000526020600020905b81548152906001019060200180831161047157829003601f168201915b505050505081526020016003820154815260200160048201548152505081526020019060010190610382565b505050509050919050565b6104cd61114c565b80600060146101000a81548161ffff021916908361ffff16021790555050565b6000600160009054906101000a900473ffffffffffffffffffffffffffffffffffffffff1673ffffffffffffffffffffffffffffffffffffffff16630f53a470336040518263ffffffff1660e01b815260040161054a91906118ba565b600060405180830381865afa158015610567573d6000803e3d6000fd5b505050506040513d6000823e3d601f19601f820116820180604052508101906105909190611afc565b90506000816000015151116105da576040517f08c379a00000000000000000000000000000000000000000000000000000000081526004016105d190611b91565b60405180910390fd5b81600260008573ffffffffffffffffffffffffffffffffffffffff1673ffffffffffffffffffffffffffffffffffffffff168152602001908152602001600020838154811061062c5761062b611bb1565b5b9060005260206000209060050201600001541461067e576040517f08c379a000000000000000000000000000000000000000000000000000000000815260040161067590611c2c565b60405180910390fd5b6001600260008573ffffffffffffffffffffffffffffffffffffffff1673ffffffffffffffffffffffffffffffffffffffff16815260200190815260200160002083815481106106d1576106d0611bb1565b5b906000526020600020906005020160040160008282546106f19190611c7b565b925050819055503373ffffffffffffffffffffffffffffffffffffffff167fe8a76fc0f16d11a00d1e93b689b63d76cf60af914dd3d915375dc41d01a0c3c88484600260008873ffffffffffffffffffffffffffffffffffffffff1673ffffffffffffffffffffffffffffffffffffffff168152602001908152602001600020868154811061078357610782611bb1565b5b9060005260206000209060050201600401546040516107a493929190611caf565b60405180910390a2505050565b6107b961114c565b6107c360006111ca565b565b6000600160009054906101000a900473ffffffffffffffffffffffffffffffffffffffff1673ffffffffffffffffffffffffffffffffffffffff16630f53a470336040518263ffffffff1660e01b815260040161082291906118ba565b600060405180830381865afa15801561083f573d6000803e3d6000fd5b505050506040513d6000823e3d601f19601f820116820180604052508101906108689190611afc565b90506000816000015151116108b2576040517f08c379a00000000000000000000000000000000000000000000000000000000081526004016108a990611b91565b60405180910390fd5b600060149054906101000a900461ffff1661ffff168251111561090a576040517f08c379a000000000000000000000000000000000000000000000000000000000815260040161090190611d32565b60405180910390fd5b60006040518060a00160405280600260003373ffffffffffffffffffffffffffffffffffffffff1673ffffffffffffffffffffffffffffffffffffffff1681526020019081526020016000208054905081526020013373ffffffffffffffffffffffffffffffffffffffff16815260200184815260200142815260200160008152509050600260003373ffffffffffffffffffffffffffffffffffffffff1673ffffffffffffffffffffffffffffffffffffffff1681526020019081526020016000208190806001815401808255809150506001900390600052602060002090600502016000909190919091506000820151816000015560208201518160010160006101000a81548173ffffffffffffffffffffffffffffffffffffffff021916908373ffffffffffffffffffffffffffffffffffffffff1602179055506040820151816002019081610a5d9190611efe565b5060608201518160030155608082015181600401555050806020015173ffffffffffffffffffffffffffffffffffffffff167f16fd3c13e9d46923e0a8bce11c7b473ec508a72e6c96cd2404b29ce972afc29e826000015183604001518460600151604051610ace93929190611fd0565b60405180910390a2505050565b60008060005b600260008573ffffffffffffffffffffffffffffffffffffffff1673ffffffffffffffffffffffffffffffffffffffff16815260200190815260200160002080549050811015610bae57600260008573ffffffffffffffffffffffffffffffffffffffff1673ffffffffffffffffffffffffffffffffffffffff1681526020019081526020016000208181548110610b7c57610b7b611bb1565b5b90600052602060002090600502016004015482610b999190611c7b565b91508080610ba69061200e565b915050610ae1565b5080915050919050565b60008060009054906101000a900473ffffffffffffffffffffffffffffffffffffffff16905090565b6000600160009054906101000a900473ffffffffffffffffffffffffffffffffffffffff1673ffffffffffffffffffffffffffffffffffffffff16630f53a470336040518263ffffffff1660e01b8152600401610c3e91906118ba565b600060405180830381865afa158015610c5b573d6000803e3d6000fd5b505050506040513d6000823e3d601f19601f82011682018060405250810190610c849190611afc565b9050600081600001515111610cce576040517f08c379a0000000000000000000000000000000000000000000000000000000008152600401610cc590611b91565b60405180910390fd5b81600260008573ffffffffffffffffffffffffffffffffffffffff1673ffffffffffffffffffffffffffffffffffffffff1681526020019081526020016000208381548110610d2057610d1f611bb1565b5b90600052602060002090600502016000015414610d72576040517f08c379a0000000000000000000000000000000000000000000000000000000008152600401610d6990611c2c565b60405180910390fd5b6000600260008573ffffffffffffffffffffffffffffffffffffffff1673ffffffffffffffffffffffffffffffffffffffff1681526020019081526020016000208381548110610dc557610dc4611bb1565b5b90600052602060002090600502016004015411610e17576040517f08c379a0000000000000000000000000000000000000000000000000000000008152600401610e0e906120a2565b60405180910390fd5b6001600260008573ffffffffffffffffffffffffffffffffffffffff1673ffffffffffffffffffffffffffffffffffffffff1681526020019081526020016000208381548110610e6a57610e69611bb1565b5b90600052602060002090600502016004016000828254610e8a91906120c2565b925050819055503373ffffffffffffffffffffffffffffffffffffffff167f273883c252143c4abce776697615e41ca9bc1aac5968c585d1c8ba8ffaa8b3c18484600260008873ffffffffffffffffffffffffffffffffffffffff1673ffffffffffffffffffffffffffffffffffffffff1681526020019081526020016000208681548110610f1c57610f1b611bb1565b5b906000526020600020906005020160040154604051610f3d93929190611caf565b60405180910390a2505050565b610f52611296565b600260003373ffffffffffffffffffffffffffffffffffffffff1673ffffffffffffffffffffffffffffffffffffffff1681526020019081526020016000208281548110610fa357610fa2611bb1565b5b90600052602060002090600502016040518060a0016040529081600082015481526020016001820160009054906101000a900473ffffffffffffffffffffffffffffffffffffffff1673ffffffffffffffffffffffffffffffffffffffff1673ffffffffffffffffffffffffffffffffffffffff16815260200160028201805461102c906119c9565b80601f0160208091040260200160405190810160405280929190818152602001828054611058906119c9565b80156110a55780601f1061107a576101008083540402835291602001916110a5565b820191906000526020600020905b81548152906001019060200180831161108857829003601f168201915b50505050508152602001600382015481526020016004820154815250509050919050565b6110d161114c565b600073ffffffffffffffffffffffffffffffffffffffff168173ffffffffffffffffffffffffffffffffffffffff1603611140576040517f08c379a000000000000000000000000000000000000000000000000000000000815260040161113790612168565b60405180910390fd5b611149816111ca565b50565b61115461128e565b73ffffffffffffffffffffffffffffffffffffffff16611172610bb8565b73ffffffffffffffffffffffffffffffffffffffff16146111c8576040517f08c379a00000000000000000000000000000000000000000000000000000000081526004016111bf906121d4565b60405180910390fd5b565b60008060009054906101000a900473ffffffffffffffffffffffffffffffffffffffff169050816000806101000a81548173ffffffffffffffffffffffffffffffffffffffff021916908373ffffffffffffffffffffffffffffffffffffffff1602179055508173ffffffffffffffffffffffffffffffffffffffff168173ffffffffffffffffffffffffffffffffffffffff167f8be0079c531659141344cd1fd0a4f28419497f9722a3daafe3b4186f6b6457e060405160405180910390a35050565b600033905090565b6040518060a0016040528060008152602001600073ffffffffffffffffffffffffffffffffffffffff1681526020016060815260200160008152602001600081525090565b6000604051905090565b600080fd5b600080fd5b600073ffffffffffffffffffffffffffffffffffffffff82169050919050565b600061131a826112ef565b9050919050565b61132a8161130f565b811461133557600080fd5b50565b60008135905061134781611321565b92915050565b6000819050919050565b6113608161134d565b811461136b57600080fd5b50565b60008135905061137d81611357565b92915050565b6000806040838503121561139a576113996112e5565b5b60006113a885828601611338565b92505060206113b98582860161136e565b9150509250929050565b6113cc8161134d565b82525050565b6113db8161130f565b82525050565b600081519050919050565b600082825260208201905092915050565b60005b8381101561141b578082015181840152602081019050611400565b60008484015250505050565b6000601f19601f8301169050919050565b6000611443826113e1565b61144d81856113ec565b935061145d8185602086016113fd565b61146681611427565b840191505092915050565b600060a08201905061148660008301886113c3565b61149360208301876113d2565b81810360408301526114a58186611438565b90506114b460608301856113c3565b6114c160808301846113c3565b9695505050505050565b6000602082840312156114e1576114e06112e5565b5b60006114ef84828501611338565b91505092915050565b600081519050919050565b600082825260208201905092915050565b6000819050602082019050919050565b61152d8161134d565b82525050565b61153c8161130f565b82525050565b600082825260208201905092915050565b600061155e826113e1565b6115688185611542565b93506115788185602086016113fd565b61158181611427565b840191505092915050565b600060a0830160008301516115a46000860182611524565b5060208301516115b76020860182611533565b50604083015184820360408601526115cf8282611553565b91505060608301516115e46060860182611524565b5060808301516115f76080860182611524565b508091505092915050565b600061160e838361158c565b905092915050565b6000602082019050919050565b600061162e826114f8565b6116388185611503565b93508360208202850161164a85611514565b8060005b8581101561168657848403895281516116678582611602565b945061167283611616565b925060208a0199505060018101905061164e565b50829750879550505050505092915050565b600060208201905081810360008301526116b28184611623565b905092915050565b600061ffff82169050919050565b6116d1816116ba565b81146116dc57600080fd5b50565b6000813590506116ee816116c8565b92915050565b60006020828403121561170a576117096112e5565b5b6000611718848285016116df565b91505092915050565b600080fd5b600080fd5b7f4e487b7100000000000000000000000000000000000000000000000000000000600052604160045260246000fd5b61176382611427565b810181811067ffffffffffffffff821117156117825761178161172b565b5b80604052505050565b60006117956112db565b90506117a1828261175a565b919050565b600067ffffffffffffffff8211156117c1576117c061172b565b5b6117ca82611427565b9050602081019050919050565b82818337600083830152505050565b60006117f96117f4846117a6565b61178b565b90508281526020810184848401111561181557611814611726565b5b6118208482856117d7565b509392505050565b600082601f83011261183d5761183c611721565b5b813561184d8482602086016117e6565b91505092915050565b60006020828403121561186c5761186b6112e5565b5b600082013567ffffffffffffffff81111561188a576118896112ea565b5b61189684828501611828565b91505092915050565b60006020820190506118b460008301846113c3565b92915050565b60006020820190506118cf60008301846113d2565b92915050565b6000602082840312156118eb576118ea6112e5565b5b60006118f98482850161136e565b91505092915050565b600060a08301600083015161191a6000860182611524565b50602083015161192d6020860182611533565b50604083015184820360408601526119458282611553565b915050606083015161195a6060860182611524565b50608083015161196d6080860182611524565b508091505092915050565b600060208201905081810360008301526119928184611902565b905092915050565b7f4e487b7100000000000000000000000000000000000000000000000000000000600052602260045260246000fd5b600060028204905060018216806119e157607f821691505b6020821081036119f4576119f361199a565b5b50919050565b600080fd5b600080fd5b6000611a17611a12846117a6565b61178b565b905082815260208101848484011115611a3357611a32611726565b5b611a3e8482856113fd565b509392505050565b600082601f830112611a5b57611a5a611721565b5b8151611a6b848260208601611a04565b91505092915050565b600060408284031215611a8a57611a896119fa565b5b611a94604061178b565b9050600082015167ffffffffffffffff811115611ab457611ab36119ff565b5b611ac084828501611a46565b600083015250602082015167ffffffffffffffff811115611ae457611ae36119ff565b5b611af084828501611a46565b60208301525092915050565b600060208284031215611b1257611b116112e5565b5b600082015167ffffffffffffffff811115611b3057611b2f6112ea565b5b611b3c84828501611a74565b91505092915050565b7f55736572204e6f74205265676973746572656421000000000000000000000000600082015250565b6000611b7b6014836113ec565b9150611b8682611b45565b602082019050919050565b60006020820190508181036000830152611baa81611b6e565b9050919050565b7f4e487b7100000000000000000000000000000000000000000000000000000000600052603260045260246000fd5b7f547765657420446f65736e277420457869737421000000000000000000000000600082015250565b6000611c166014836113ec565b9150611c2182611be0565b602082019050919050565b60006020820190508181036000830152611c4581611c09565b9050919050565b7f4e487b7100000000000000000000000000000000000000000000000000000000600052601160045260246000fd5b6000611c868261134d565b9150611c918361134d565b9250828201905080821115611ca957611ca8611c4c565b5b92915050565b6000606082019050611cc460008301866113d2565b611cd160208301856113c3565b611cde60408301846113c3565b949350505050565b7f547765657420697320746f6f206c6f6e67210000000000000000000000000000600082015250565b6000611d1c6012836113ec565b9150611d2782611ce6565b602082019050919050565b60006020820190508181036000830152611d4b81611d0f565b9050919050565b60008190508160005260206000209050919050565b60006020601f8301049050919050565b600082821b905092915050565b600060088302611db47fffffffffffffffffffffffffffffffffffffffffffffffffffffffffffffffff82611d77565b611dbe8683611d77565b95508019841693508086168417925050509392505050565b6000819050919050565b6000611dfb611df6611df18461134d565b611dd6565b61134d565b9050919050565b6000819050919050565b611e1583611de0565b611e29611e2182611e02565b848454611d84565b825550505050565b600090565b611e3e611e31565b611e49818484611e0c565b505050565b5b81811015611e6d57611e62600082611e36565b600181019050611e4f565b5050565b601f821115611eb257611e8381611d52565b611e8c84611d67565b81016020851015611e9b578190505b611eaf611ea785611d67565b830182611e4e565b50505b505050565b600082821c905092915050565b6000611ed560001984600802611eb7565b1980831691505092915050565b6000611eee8383611ec4565b9150826002028217905092915050565b611f07826113e1565b67ffffffffffffffff811115611f2057611f1f61172b565b5b611f2a82546119c9565b611f35828285611e71565b600060209050601f831160018114611f685760008415611f56578287015190505b611f608582611ee2565b865550611fc8565b601f198416611f7686611d52565b60005b82811015611f9e57848901518255600182019150602085019450602081019050611f79565b86831015611fbb5784890151611fb7601f891682611ec4565b8355505b6001600288020188555050505b505050505050565b6000606082019050611fe560008301866113c3565b8181036020830152611ff78185611438565b905061200660408301846113c3565b949350505050565b60006120198261134d565b91507fffffffffffffffffffffffffffffffffffffffffffffffffffffffffffffffff820361204b5761204a611c4c565b5b600182019050919050565b7f547765657420486173204e6f204c696b65732100000000000000000000000000600082015250565b600061208c6013836113ec565b915061209782612056565b602082019050919050565b600060208201905081810360008301526120bb8161207f565b9050919050565b60006120cd8261134d565b91506120d88361134d565b92508282039050818111156120f0576120ef611c4c565b5b92915050565b7f4f776e61626c653a206e6577206f776e657220697320746865207a65726f206160008201527f6464726573730000000000000000000000000000000000000000000000000000602082015250565b60006121526026836113ec565b915061215d826120f6565b604082019050919050565b6000602082019050818103600083015261218181612145565b9050919050565b7f4f776e61626c653a2063616c6c6572206973206e6f7420746865206f776e6572600082015250565b60006121be6020836113ec565b91506121c982612188565b602082019050919050565b600060208201905081810360008301526121ed816121b1565b905091905056fea26469706673582212209fd9d39c55e198d3193083c7e6950cb91ed1a7063146306b7102e1ad6125f66664736f6c63430008120033",
					"opcodes": "PUSH1 0x80 PUSH1 0x40 MSTORE PUSH2 0x118 PUSH1 0x0 PUSH1 0x14 PUSH2 0x100 EXP DUP2 SLOAD DUP2 PUSH2 0xFFFF MUL NOT AND SWAP1 DUP4 PUSH2 0xFFFF AND MUL OR SWAP1 SSTORE POP CALLVALUE DUP1 ISZERO PUSH3 0x30 JUMPI PUSH1 0x0 DUP1 REVERT JUMPDEST POP PUSH1 0x40 MLOAD PUSH3 0x2460 CODESIZE SUB DUP1 PUSH3 0x2460 DUP4 CODECOPY DUP2 DUP2 ADD PUSH1 0x40 MSTORE DUP2 ADD SWAP1 PUSH3 0x56 SWAP2 SWAP1 PUSH3 0x1F4 JUMP JUMPDEST PUSH3 0x76 PUSH3 0x6A PUSH3 0xBE PUSH1 0x20 SHL PUSH1 0x20 SHR JUMP JUMPDEST PUSH3 0xC6 PUSH1 0x20 SHL PUSH1 0x20 SHR JUMP JUMPDEST DUP1 PUSH1 0x1 PUSH1 0x0 PUSH2 0x100 EXP DUP2 SLOAD DUP2 PUSH20 0xFFFFFFFFFFFFFFFFFFFFFFFFFFFFFFFFFFFFFFFF MUL NOT AND SWAP1 DUP4 PUSH20 0xFFFFFFFFFFFFFFFFFFFFFFFFFFFFFFFFFFFFFFFF AND MUL OR SWAP1 SSTORE POP POP PUSH3 0x226 JUMP JUMPDEST PUSH1 0x0 CALLER SWAP1 POP SWAP1 JUMP JUMPDEST PUSH1 0x0 DUP1 PUSH1 0x0 SWAP1 SLOAD SWAP1 PUSH2 0x100 EXP SWAP1 DIV PUSH20 0xFFFFFFFFFFFFFFFFFFFFFFFFFFFFFFFFFFFFFFFF AND SWAP1 POP DUP2 PUSH1 0x0 DUP1 PUSH2 0x100 EXP DUP2 SLOAD DUP2 PUSH20 0xFFFFFFFFFFFFFFFFFFFFFFFFFFFFFFFFFFFFFFFF MUL NOT AND SWAP1 DUP4 PUSH20 0xFFFFFFFFFFFFFFFFFFFFFFFFFFFFFFFFFFFFFFFF AND MUL OR SWAP1 SSTORE POP DUP2 PUSH20 0xFFFFFFFFFFFFFFFFFFFFFFFFFFFFFFFFFFFFFFFF AND DUP2 PUSH20 0xFFFFFFFFFFFFFFFFFFFFFFFFFFFFFFFFFFFFFFFF AND PUSH32 0x8BE0079C531659141344CD1FD0A4F28419497F9722A3DAAFE3B4186F6B6457E0 PUSH1 0x40 MLOAD PUSH1 0x40 MLOAD DUP1 SWAP2 SUB SWAP1 LOG3 POP POP JUMP JUMPDEST PUSH1 0x0 DUP1 REVERT JUMPDEST PUSH1 0x0 PUSH20 0xFFFFFFFFFFFFFFFFFFFFFFFFFFFFFFFFFFFFFFFF DUP3 AND SWAP1 POP SWAP2 SWAP1 POP JUMP JUMPDEST PUSH1 0x0 PUSH3 0x1BC DUP3 PUSH3 0x18F JUMP JUMPDEST SWAP1 POP SWAP2 SWAP1 POP JUMP JUMPDEST PUSH3 0x1CE DUP2 PUSH3 0x1AF JUMP JUMPDEST DUP2 EQ PUSH3 0x1DA JUMPI PUSH1 0x0 DUP1 REVERT JUMPDEST POP JUMP JUMPDEST PUSH1 0x0 DUP2 MLOAD SWAP1 POP PUSH3 0x1EE DUP2 PUSH3 0x1C3 JUMP JUMPDEST SWAP3 SWAP2 POP POP JUMP JUMPDEST PUSH1 0x0 PUSH1 0x20 DUP3 DUP5 SUB SLT ISZERO PUSH3 0x20D JUMPI PUSH3 0x20C PUSH3 0x18A JUMP JUMPDEST JUMPDEST PUSH1 0x0 PUSH3 0x21D DUP5 DUP3 DUP6 ADD PUSH3 0x1DD JUMP JUMPDEST SWAP2 POP POP SWAP3 SWAP2 POP POP JUMP JUMPDEST PUSH2 0x222A DUP1 PUSH3 0x236 PUSH1 0x0 CODECOPY PUSH1 0x0 RETURN INVALID PUSH1 0x80 PUSH1 0x40 MSTORE CALLVALUE DUP1 ISZERO PUSH2 0x10 JUMPI PUSH1 0x0 DUP1 REVERT JUMPDEST POP PUSH1 0x4 CALLDATASIZE LT PUSH2 0xA9 JUMPI PUSH1 0x0 CALLDATALOAD PUSH1 0xE0 SHR DUP1 PUSH4 0x7C9CD2BC GT PUSH2 0x71 JUMPI DUP1 PUSH4 0x7C9CD2BC EQ PUSH2 0x154 JUMPI DUP1 PUSH4 0x820785CC EQ PUSH2 0x170 JUMPI DUP1 PUSH4 0x8DA5CB5B EQ PUSH2 0x1A0 JUMPI DUP1 PUSH4 0x9EF8633F EQ PUSH2 0x1BE JUMPI DUP1 PUSH4 0xC3AD5ECB EQ PUSH2 0x1DA JUMPI DUP1 PUSH4 0xF2FDE38B EQ PUSH2 0x20A JUMPI PUSH2 0xA9 JUMP JUMPDEST DUP1 PUSH4 0x5A1B4A9 EQ PUSH2 0xAE JUMPI DUP1 PUSH4 0x12E7EE1C EQ PUSH2 0xE2 JUMPI DUP1 PUSH4 0x58BFA4AB EQ PUSH2 0x112 JUMPI DUP1 PUSH4 0x63378216 EQ PUSH2 0x12E JUMPI DUP1 PUSH4 0x715018A6 EQ PUSH2 0x14A JUMPI JUMPDEST PUSH1 0x0 DUP1 REVERT JUMPDEST PUSH2 0xC8 PUSH1 0x4 DUP1 CALLDATASIZE SUB DUP2 ADD SWAP1 PUSH2 0xC3 SWAP2 SWAP1 PUSH2 0x1383 JUMP JUMPDEST PUSH2 0x226 JUMP JUMPDEST PUSH1 0x40 MLOAD PUSH2 0xD9 SWAP6 SWAP5 SWAP4 SWAP3 SWAP2 SWAP1 PUSH2 0x1471 JUMP JUMPDEST PUSH1 0x40 MLOAD DUP1 SWAP2 SUB SWAP1 RETURN JUMPDEST PUSH2 0xFC PUSH1 0x4 DUP1 CALLDATASIZE SUB DUP2 ADD SWAP1 PUSH2 0xF7 SWAP2 SWAP1 PUSH2 0x14CB JUMP JUMPDEST PUSH2 0x321 JUMP JUMPDEST PUSH1 0x40 MLOAD PUSH2 0x109 SWAP2 SWAP1 PUSH2 0x1698 JUMP JUMPDEST PUSH1 0x40 MLOAD DUP1 SWAP2 SUB SWAP1 RETURN JUMPDEST PUSH2 0x12C PUSH1 0x4 DUP1 CALLDATASIZE SUB DUP2 ADD SWAP1 PUSH2 0x127 SWAP2 SWAP1 PUSH2 0x16F4 JUMP JUMPDEST PUSH2 0x4C5 JUMP JUMPDEST STOP JUMPDEST PUSH2 0x148 PUSH1 0x4 DUP1 CALLDATASIZE SUB DUP2 ADD SWAP1 PUSH2 0x143 SWAP2 SWAP1 PUSH2 0x1383 JUMP JUMPDEST PUSH2 0x4ED JUMP JUMPDEST STOP JUMPDEST PUSH2 0x152 PUSH2 0x7B1 JUMP JUMPDEST STOP JUMPDEST PUSH2 0x16E PUSH1 0x4 DUP1 CALLDATASIZE SUB DUP2 ADD SWAP1 PUSH2 0x169 SWAP2 SWAP1 PUSH2 0x1856 JUMP JUMPDEST PUSH2 0x7C5 JUMP JUMPDEST STOP JUMPDEST PUSH2 0x18A PUSH1 0x4 DUP1 CALLDATASIZE SUB DUP2 ADD SWAP1 PUSH2 0x185 SWAP2 SWAP1 PUSH2 0x14CB JUMP JUMPDEST PUSH2 0xADB JUMP JUMPDEST PUSH1 0x40 MLOAD PUSH2 0x197 SWAP2 SWAP1 PUSH2 0x189F JUMP JUMPDEST PUSH1 0x40 MLOAD DUP1 SWAP2 SUB SWAP1 RETURN JUMPDEST PUSH2 0x1A8 PUSH2 0xBB8 JUMP JUMPDEST PUSH1 0x40 MLOAD PUSH2 0x1B5 SWAP2 SWAP1 PUSH2 0x18BA JUMP JUMPDEST PUSH1 0x40 MLOAD DUP1 SWAP2 SUB SWAP1 RETURN JUMPDEST PUSH2 0x1D8 PUSH1 0x4 DUP1 CALLDATASIZE SUB DUP2 ADD SWAP1 PUSH2 0x1D3 SWAP2 SWAP1 PUSH2 0x1383 JUMP JUMPDEST PUSH2 0xBE1 JUMP JUMPDEST STOP JUMPDEST PUSH2 0x1F4 PUSH1 0x4 DUP1 CALLDATASIZE SUB DUP2 ADD SWAP1 PUSH2 0x1EF SWAP2 SWAP1 PUSH2 0x18D5 JUMP JUMPDEST PUSH2 0xF4A JUMP JUMPDEST PUSH1 0x40 MLOAD PUSH2 0x201 SWAP2 SWAP1 PUSH2 0x1978 JUMP JUMPDEST PUSH1 0x40 MLOAD DUP1 SWAP2 SUB SWAP1 RETURN JUMPDEST PUSH2 0x224 PUSH1 0x4 DUP1 CALLDATASIZE SUB DUP2 ADD SWAP1 PUSH2 0x21F SWAP2 SWAP1 PUSH2 0x14CB JUMP JUMPDEST PUSH2 0x10C9 JUMP JUMPDEST STOP JUMPDEST PUSH1 0x2 PUSH1 0x20 MSTORE DUP2 PUSH1 0x0 MSTORE PUSH1 0x40 PUSH1 0x0 KECCAK256 DUP2 DUP2 SLOAD DUP2 LT PUSH2 0x242 JUMPI PUSH1 0x0 DUP1 REVERT JUMPDEST SWAP1 PUSH1 0x0 MSTORE PUSH1 0x20 PUSH1 0x0 KECCAK256 SWAP1 PUSH1 0x5 MUL ADD PUSH1 0x0 SWAP2 POP SWAP2 POP POP DUP1 PUSH1 0x0 ADD SLOAD SWAP1 DUP1 PUSH1 0x1 ADD PUSH1 0x0 SWAP1 SLOAD SWAP1 PUSH2 0x100 EXP SWAP1 DIV PUSH20 0xFFFFFFFFFFFFFFFFFFFFFFFFFFFFFFFFFFFFFFFF AND SWAP1 DUP1 PUSH1 0x2 ADD DUP1 SLOAD PUSH2 0x292 SWAP1 PUSH2 0x19C9 JUMP JUMPDEST DUP1 PUSH1 0x1F ADD PUSH1 0x20 DUP1 SWAP2 DIV MUL PUSH1 0x20 ADD PUSH1 0x40 MLOAD SWAP1 DUP2 ADD PUSH1 0x40 MSTORE DUP1 SWAP3 SWAP2 SWAP1 DUP2 DUP2 MSTORE PUSH1 0x20 ADD DUP3 DUP1 SLOAD PUSH2 0x2BE SWAP1 PUSH2 0x19C9 JUMP JUMPDEST DUP1 ISZERO PUSH2 0x30B JUMPI DUP1 PUSH1 0x1F LT PUSH2 0x2E0 JUMPI PUSH2 0x100 DUP1 DUP4 SLOAD DIV MUL DUP4 MSTORE SWAP2 PUSH1 0x20 ADD SWAP2 PUSH2 0x30B JUMP JUMPDEST DUP3 ADD SWAP2 SWAP1 PUSH1 0x0 MSTORE PUSH1 0x20 PUSH1 0x0 KECCAK256 SWAP1 JUMPDEST DUP2 SLOAD DUP2 MSTORE SWAP1 PUSH1 0x1 ADD SWAP1 PUSH1 0x20 ADD DUP1 DUP4 GT PUSH2 0x2EE JUMPI DUP3 SWAP1 SUB PUSH1 0x1F AND DUP3 ADD SWAP2 JUMPDEST POP POP POP POP POP SWAP1 DUP1 PUSH1 0x3 ADD SLOAD SWAP1 DUP1 PUSH1 0x4 ADD SLOAD SWAP1 POP DUP6 JUMP JUMPDEST PUSH1 0x60 PUSH1 0x2 PUSH1 0x0 DUP4 PUSH20 0xFFFFFFFFFFFFFFFFFFFFFFFFFFFFFFFFFFFFFFFF AND PUSH20 0xFFFFFFFFFFFFFFFFFFFFFFFFFFFFFFFFFFFFFFFF AND DUP2 MSTORE PUSH1 0x20 ADD SWAP1 DUP2 MSTORE PUSH1 0x20 ADD PUSH1 0x0 KECCAK256 DUP1 SLOAD DUP1 PUSH1 0x20 MUL PUSH1 0x20 ADD PUSH1 0x40 MLOAD SWAP1 DUP2 ADD PUSH1 0x40 MSTORE DUP1 SWAP3 SWAP2 SWAP1 DUP2 DUP2 MSTORE PUSH1 0x20 ADD PUSH1 0x0 SWAP1 JUMPDEST DUP3 DUP3 LT ISZERO PUSH2 0x4BA JUMPI DUP4 DUP3 SWAP1 PUSH1 0x0 MSTORE PUSH1 0x20 PUSH1 0x0 KECCAK256 SWAP1 PUSH1 0x5 MUL ADD PUSH1 0x40 MLOAD DUP1 PUSH1 0xA0 ADD PUSH1 0x40 MSTORE SWAP1 DUP2 PUSH1 0x0 DUP3 ADD SLOAD DUP2 MSTORE PUSH1 0x20 ADD PUSH1 0x1 DUP3 ADD PUSH1 0x0 SWAP1 SLOAD SWAP1 PUSH2 0x100 EXP SWAP1 DIV PUSH20 0xFFFFFFFFFFFFFFFFFFFFFFFFFFFFFFFFFFFFFFFF AND PUSH20 0xFFFFFFFFFFFFFFFFFFFFFFFFFFFFFFFFFFFFFFFF AND PUSH20 0xFFFFFFFFFFFFFFFFFFFFFFFFFFFFFFFFFFFFFFFF AND DUP2 MSTORE PUSH1 0x20 ADD PUSH1 0x2 DUP3 ADD DUP1 SLOAD PUSH2 0x415 SWAP1 PUSH2 0x19C9 JUMP JUMPDEST DUP1 PUSH1 0x1F ADD PUSH1 0x20 DUP1 SWAP2 DIV MUL PUSH1 0x20 ADD PUSH1 0x40 MLOAD SWAP1 DUP2 ADD PUSH1 0x40 MSTORE DUP1 SWAP3 SWAP2 SWAP1 DUP2 DUP2 MSTORE PUSH1 0x20 ADD DUP3 DUP1 SLOAD PUSH2 0x441 SWAP1 PUSH2 0x19C9 JUMP JUMPDEST DUP1 ISZERO PUSH2 0x48E JUMPI DUP1 PUSH1 0x1F LT PUSH2 0x463 JUMPI PUSH2 0x100 DUP1 DUP4 SLOAD DIV MUL DUP4 MSTORE SWAP2 PUSH1 0x20 ADD SWAP2 PUSH2 0x48E JUMP JUMPDEST DUP3 ADD SWAP2 SWAP1 PUSH1 0x0 MSTORE PUSH1 0x20 PUSH1 0x0 KECCAK256 SWAP1 JUMPDEST DUP2 SLOAD DUP2 MSTORE SWAP1 PUSH1 0x1 ADD SWAP1 PUSH1 0x20 ADD DUP1 DUP4 GT PUSH2 0x471 JUMPI DUP3 SWAP1 SUB PUSH1 0x1F AND DUP3 ADD SWAP2 JUMPDEST POP POP POP POP POP DUP2 MSTORE PUSH1 0x20 ADD PUSH1 0x3 DUP3 ADD SLOAD DUP2 MSTORE PUSH1 0x20 ADD PUSH1 0x4 DUP3 ADD SLOAD DUP2 MSTORE POP POP DUP2 MSTORE PUSH1 0x20 ADD SWAP1 PUSH1 0x1 ADD SWAP1 PUSH2 0x382 JUMP JUMPDEST POP POP POP POP SWAP1 POP SWAP2 SWAP1 POP JUMP JUMPDEST PUSH2 0x4CD PUSH2 0x114C JUMP JUMPDEST DUP1 PUSH1 0x0 PUSH1 0x14 PUSH2 0x100 EXP DUP2 SLOAD DUP2 PUSH2 0xFFFF MUL NOT AND SWAP1 DUP4 PUSH2 0xFFFF AND MUL OR SWAP1 SSTORE POP POP JUMP JUMPDEST PUSH1 0x0 PUSH1 0x1 PUSH1 0x0 SWAP1 SLOAD SWAP1 PUSH2 0x100 EXP SWAP1 DIV PUSH20 0xFFFFFFFFFFFFFFFFFFFFFFFFFFFFFFFFFFFFFFFF AND PUSH20 0xFFFFFFFFFFFFFFFFFFFFFFFFFFFFFFFFFFFFFFFF AND PUSH4 0xF53A470 CALLER PUSH1 0x40 MLOAD DUP3 PUSH4 0xFFFFFFFF AND PUSH1 0xE0 SHL DUP2 MSTORE PUSH1 0x4 ADD PUSH2 0x54A SWAP2 SWAP1 PUSH2 0x18BA JUMP JUMPDEST PUSH1 0x0 PUSH1 0x40 MLOAD DUP1 DUP4 SUB DUP2 DUP7 GAS STATICCALL ISZERO DUP1 ISZERO PUSH2 0x567 JUMPI RETURNDATASIZE PUSH1 0x0 DUP1 RETURNDATACOPY RETURNDATASIZE PUSH1 0x0 REVERT JUMPDEST POP POP POP POP PUSH1 0x40 MLOAD RETURNDATASIZE PUSH1 0x0 DUP3 RETURNDATACOPY RETURNDATASIZE PUSH1 0x1F NOT PUSH1 0x1F DUP3 ADD AND DUP3 ADD DUP1 PUSH1 0x40 MSTORE POP DUP2 ADD SWAP1 PUSH2 0x590 SWAP2 SWAP1 PUSH2 0x1AFC JUMP JUMPDEST SWAP1 POP PUSH1 0x0 DUP2 PUSH1 0x0 ADD MLOAD MLOAD GT PUSH2 0x5DA JUMPI PUSH1 0x40 MLOAD PUSH32 0x8C379A000000000000000000000000000000000000000000000000000000000 DUP2 MSTORE PUSH1 0x4 ADD PUSH2 0x5D1 SWAP1 PUSH2 0x1B91 JUMP JUMPDEST PUSH1 0x40 MLOAD DUP1 SWAP2 SUB SWAP1 REVERT JUMPDEST DUP2 PUSH1 0x2 PUSH1 0x0 DUP6 PUSH20 0xFFFFFFFFFFFFFFFFFFFFFFFFFFFFFFFFFFFFFFFF AND PUSH20 0xFFFFFFFFFFFFFFFFFFFFFFFFFFFFFFFFFFFFFFFF AND DUP2 MSTORE PUSH1 0x20 ADD SWAP1 DUP2 MSTORE PUSH1 0x20 ADD PUSH1 0x0 KECCAK256 DUP4 DUP2 SLOAD DUP2 LT PUSH2 0x62C JUMPI PUSH2 0x62B PUSH2 0x1BB1 JUMP JUMPDEST JUMPDEST SWAP1 PUSH1 0x0 MSTORE PUSH1 0x20 PUSH1 0x0 KECCAK256 SWAP1 PUSH1 0x5 MUL ADD PUSH1 0x0 ADD SLOAD EQ PUSH2 0x67E JUMPI PUSH1 0x40 MLOAD PUSH32 0x8C379A000000000000000000000000000000000000000000000000000000000 DUP2 MSTORE PUSH1 0x4 ADD PUSH2 0x675 SWAP1 PUSH2 0x1C2C JUMP JUMPDEST PUSH1 0x40 MLOAD DUP1 SWAP2 SUB SWAP1 REVERT JUMPDEST PUSH1 0x1 PUSH1 0x2 PUSH1 0x0 DUP6 PUSH20 0xFFFFFFFFFFFFFFFFFFFFFFFFFFFFFFFFFFFFFFFF AND PUSH20 0xFFFFFFFFFFFFFFFFFFFFFFFFFFFFFFFFFFFFFFFF AND DUP2 MSTORE PUSH1 0x20 ADD SWAP1 DUP2 MSTORE PUSH1 0x20 ADD PUSH1 0x0 KECCAK256 DUP4 DUP2 SLOAD DUP2 LT PUSH2 0x6D1 JUMPI PUSH2 0x6D0 PUSH2 0x1BB1 JUMP JUMPDEST JUMPDEST SWAP1 PUSH1 0x0 MSTORE PUSH1 0x20 PUSH1 0x0 KECCAK256 SWAP1 PUSH1 0x5 MUL ADD PUSH1 0x4 ADD PUSH1 0x0 DUP3 DUP3 SLOAD PUSH2 0x6F1 SWAP2 SWAP1 PUSH2 0x1C7B JUMP JUMPDEST SWAP3 POP POP DUP2 SWAP1 SSTORE POP CALLER PUSH20 0xFFFFFFFFFFFFFFFFFFFFFFFFFFFFFFFFFFFFFFFF AND PUSH32 0xE8A76FC0F16D11A00D1E93B689B63D76CF60AF914DD3D915375DC41D01A0C3C8 DUP5 DUP5 PUSH1 0x2 PUSH1 0x0 DUP9 PUSH20 0xFFFFFFFFFFFFFFFFFFFFFFFFFFFFFFFFFFFFFFFF AND PUSH20 0xFFFFFFFFFFFFFFFFFFFFFFFFFFFFFFFFFFFFFFFF AND DUP2 MSTORE PUSH1 0x20 ADD SWAP1 DUP2 MSTORE PUSH1 0x20 ADD PUSH1 0x0 KECCAK256 DUP7 DUP2 SLOAD DUP2 LT PUSH2 0x783 JUMPI PUSH2 0x782 PUSH2 0x1BB1 JUMP JUMPDEST JUMPDEST SWAP1 PUSH1 0x0 MSTORE PUSH1 0x20 PUSH1 0x0 KECCAK256 SWAP1 PUSH1 0x5 MUL ADD PUSH1 0x4 ADD SLOAD PUSH1 0x40 MLOAD PUSH2 0x7A4 SWAP4 SWAP3 SWAP2 SWAP1 PUSH2 0x1CAF JUMP JUMPDEST PUSH1 0x40 MLOAD DUP1 SWAP2 SUB SWAP1 LOG2 POP POP POP JUMP JUMPDEST PUSH2 0x7B9 PUSH2 0x114C JUMP JUMPDEST PUSH2 0x7C3 PUSH1 0x0 PUSH2 0x11CA JUMP JUMPDEST JUMP JUMPDEST PUSH1 0x0 PUSH1 0x1 PUSH1 0x0 SWAP1 SLOAD SWAP1 PUSH2 0x100 EXP SWAP1 DIV PUSH20 0xFFFFFFFFFFFFFFFFFFFFFFFFFFFFFFFFFFFFFFFF AND PUSH20 0xFFFFFFFFFFFFFFFFFFFFFFFFFFFFFFFFFFFFFFFF AND PUSH4 0xF53A470 CALLER PUSH1 0x40 MLOAD DUP3 PUSH4 0xFFFFFFFF AND PUSH1 0xE0 SHL DUP2 MSTORE PUSH1 0x4 ADD PUSH2 0x822 SWAP2 SWAP1 PUSH2 0x18BA JUMP JUMPDEST PUSH1 0x0 PUSH1 0x40 MLOAD DUP1 DUP4 SUB DUP2 DUP7 GAS STATICCALL ISZERO DUP1 ISZERO PUSH2 0x83F JUMPI RETURNDATASIZE PUSH1 0x0 DUP1 RETURNDATACOPY RETURNDATASIZE PUSH1 0x0 REVERT JUMPDEST POP POP POP POP PUSH1 0x40 MLOAD RETURNDATASIZE PUSH1 0x0 DUP3 RETURNDATACOPY RETURNDATASIZE PUSH1 0x1F NOT PUSH1 0x1F DUP3 ADD AND DUP3 ADD DUP1 PUSH1 0x40 MSTORE POP DUP2 ADD SWAP1 PUSH2 0x868 SWAP2 SWAP1 PUSH2 0x1AFC JUMP JUMPDEST SWAP1 POP PUSH1 0x0 DUP2 PUSH1 0x0 ADD MLOAD MLOAD GT PUSH2 0x8B2 JUMPI PUSH1 0x40 MLOAD PUSH32 0x8C379A000000000000000000000000000000000000000000000000000000000 DUP2 MSTORE PUSH1 0x4 ADD PUSH2 0x8A9 SWAP1 PUSH2 0x1B91 JUMP JUMPDEST PUSH1 0x40 MLOAD DUP1 SWAP2 SUB SWAP1 REVERT JUMPDEST PUSH1 0x0 PUSH1 0x14 SWAP1 SLOAD SWAP1 PUSH2 0x100 EXP SWAP1 DIV PUSH2 0xFFFF AND PUSH2 0xFFFF AND DUP3 MLOAD GT ISZERO PUSH2 0x90A JUMPI PUSH1 0x40 MLOAD PUSH32 0x8C379A000000000000000000000000000000000000000000000000000000000 DUP2 MSTORE PUSH1 0x4 ADD PUSH2 0x901 SWAP1 PUSH2 0x1D32 JUMP JUMPDEST PUSH1 0x40 MLOAD DUP1 SWAP2 SUB SWAP1 REVERT JUMPDEST PUSH1 0x0 PUSH1 0x40 MLOAD DUP1 PUSH1 0xA0 ADD PUSH1 0x40 MSTORE DUP1 PUSH1 0x2 PUSH1 0x0 CALLER PUSH20 0xFFFFFFFFFFFFFFFFFFFFFFFFFFFFFFFFFFFFFFFF AND PUSH20 0xFFFFFFFFFFFFFFFFFFFFFFFFFFFFFFFFFFFFFFFF AND DUP2 MSTORE PUSH1 0x20 ADD SWAP1 DUP2 MSTORE PUSH1 0x20 ADD PUSH1 0x0 KECCAK256 DUP1 SLOAD SWAP1 POP DUP2 MSTORE PUSH1 0x20 ADD CALLER PUSH20 0xFFFFFFFFFFFFFFFFFFFFFFFFFFFFFFFFFFFFFFFF AND DUP2 MSTORE PUSH1 0x20 ADD DUP5 DUP2 MSTORE PUSH1 0x20 ADD TIMESTAMP DUP2 MSTORE PUSH1 0x20 ADD PUSH1 0x0 DUP2 MSTORE POP SWAP1 POP PUSH1 0x2 PUSH1 0x0 CALLER PUSH20 0xFFFFFFFFFFFFFFFFFFFFFFFFFFFFFFFFFFFFFFFF AND PUSH20 0xFFFFFFFFFFFFFFFFFFFFFFFFFFFFFFFFFFFFFFFF AND DUP2 MSTORE PUSH1 0x20 ADD SWAP1 DUP2 MSTORE PUSH1 0x20 ADD PUSH1 0x0 KECCAK256 DUP2 SWAP1 DUP1 PUSH1 0x1 DUP2 SLOAD ADD DUP1 DUP3 SSTORE DUP1 SWAP2 POP POP PUSH1 0x1 SWAP1 SUB SWAP1 PUSH1 0x0 MSTORE PUSH1 0x20 PUSH1 0x0 KECCAK256 SWAP1 PUSH1 0x5 MUL ADD PUSH1 0x0 SWAP1 SWAP2 SWAP1 SWAP2 SWAP1 SWAP2 POP PUSH1 0x0 DUP3 ADD MLOAD DUP2 PUSH1 0x0 ADD SSTORE PUSH1 0x20 DUP3 ADD MLOAD DUP2 PUSH1 0x1 ADD PUSH1 0x0 PUSH2 0x100 EXP DUP2 SLOAD DUP2 PUSH20 0xFFFFFFFFFFFFFFFFFFFFFFFFFFFFFFFFFFFFFFFF MUL NOT AND SWAP1 DUP4 PUSH20 0xFFFFFFFFFFFFFFFFFFFFFFFFFFFFFFFFFFFFFFFF AND MUL OR SWAP1 SSTORE POP PUSH1 0x40 DUP3 ADD MLOAD DUP2 PUSH1 0x2 ADD SWAP1 DUP2 PUSH2 0xA5D SWAP2 SWAP1 PUSH2 0x1EFE JUMP JUMPDEST POP PUSH1 0x60 DUP3 ADD MLOAD DUP2 PUSH1 0x3 ADD SSTORE PUSH1 0x80 DUP3 ADD MLOAD DUP2 PUSH1 0x4 ADD SSTORE POP POP DUP1 PUSH1 0x20 ADD MLOAD PUSH20 0xFFFFFFFFFFFFFFFFFFFFFFFFFFFFFFFFFFFFFFFF AND PUSH32 0x16FD3C13E9D46923E0A8BCE11C7B473EC508A72E6C96CD2404B29CE972AFC29E DUP3 PUSH1 0x0 ADD MLOAD DUP4 PUSH1 0x40 ADD MLOAD DUP5 PUSH1 0x60 ADD MLOAD PUSH1 0x40 MLOAD PUSH2 0xACE SWAP4 SWAP3 SWAP2 SWAP1 PUSH2 0x1FD0 JUMP JUMPDEST PUSH1 0x40 MLOAD DUP1 SWAP2 SUB SWAP1 LOG2 POP POP POP JUMP JUMPDEST PUSH1 0x0 DUP1 PUSH1 0x0 JUMPDEST PUSH1 0x2 PUSH1 0x0 DUP6 PUSH20 0xFFFFFFFFFFFFFFFFFFFFFFFFFFFFFFFFFFFFFFFF AND PUSH20 0xFFFFFFFFFFFFFFFFFFFFFFFFFFFFFFFFFFFFFFFF AND DUP2 MSTORE PUSH1 0x20 ADD SWAP1 DUP2 MSTORE PUSH1 0x20 ADD PUSH1 0x0 KECCAK256 DUP1 SLOAD SWAP1 POP DUP2 LT ISZERO PUSH2 0xBAE JUMPI PUSH1 0x2 PUSH1 0x0 DUP6 PUSH20 0xFFFFFFFFFFFFFFFFFFFFFFFFFFFFFFFFFFFFFFFF AND PUSH20 0xFFFFFFFFFFFFFFFFFFFFFFFFFFFFFFFFFFFFFFFF AND DUP2 MSTORE PUSH1 0x20 ADD SWAP1 DUP2 MSTORE PUSH1 0x20 ADD PUSH1 0x0 KECCAK256 DUP2 DUP2 SLOAD DUP2 LT PUSH2 0xB7C JUMPI PUSH2 0xB7B PUSH2 0x1BB1 JUMP JUMPDEST JUMPDEST SWAP1 PUSH1 0x0 MSTORE PUSH1 0x20 PUSH1 0x0 KECCAK256 SWAP1 PUSH1 0x5 MUL ADD PUSH1 0x4 ADD SLOAD DUP3 PUSH2 0xB99 SWAP2 SWAP1 PUSH2 0x1C7B JUMP JUMPDEST SWAP2 POP DUP1 DUP1 PUSH2 0xBA6 SWAP1 PUSH2 0x200E JUMP JUMPDEST SWAP2 POP POP PUSH2 0xAE1 JUMP JUMPDEST POP DUP1 SWAP2 POP POP SWAP2 SWAP1 POP JUMP JUMPDEST PUSH1 0x0 DUP1 PUSH1 0x0 SWAP1 SLOAD SWAP1 PUSH2 0x100 EXP SWAP1 DIV PUSH20 0xFFFFFFFFFFFFFFFFFFFFFFFFFFFFFFFFFFFFFFFF AND SWAP1 POP SWAP1 JUMP JUMPDEST PUSH1 0x0 PUSH1 0x1 PUSH1 0x0 SWAP1 SLOAD SWAP1 PUSH2 0x100 EXP SWAP1 DIV PUSH20 0xFFFFFFFFFFFFFFFFFFFFFFFFFFFFFFFFFFFFFFFF AND PUSH20 0xFFFFFFFFFFFFFFFFFFFFFFFFFFFFFFFFFFFFFFFF AND PUSH4 0xF53A470 CALLER PUSH1 0x40 MLOAD DUP3 PUSH4 0xFFFFFFFF AND PUSH1 0xE0 SHL DUP2 MSTORE PUSH1 0x4 ADD PUSH2 0xC3E SWAP2 SWAP1 PUSH2 0x18BA JUMP JUMPDEST PUSH1 0x0 PUSH1 0x40 MLOAD DUP1 DUP4 SUB DUP2 DUP7 GAS STATICCALL ISZERO DUP1 ISZERO PUSH2 0xC5B JUMPI RETURNDATASIZE PUSH1 0x0 DUP1 RETURNDATACOPY RETURNDATASIZE PUSH1 0x0 REVERT JUMPDEST POP POP POP POP PUSH1 0x40 MLOAD RETURNDATASIZE PUSH1 0x0 DUP3 RETURNDATACOPY RETURNDATASIZE PUSH1 0x1F NOT PUSH1 0x1F DUP3 ADD AND DUP3 ADD DUP1 PUSH1 0x40 MSTORE POP DUP2 ADD SWAP1 PUSH2 0xC84 SWAP2 SWAP1 PUSH2 0x1AFC JUMP JUMPDEST SWAP1 POP PUSH1 0x0 DUP2 PUSH1 0x0 ADD MLOAD MLOAD GT PUSH2 0xCCE JUMPI PUSH1 0x40 MLOAD PUSH32 0x8C379A000000000000000000000000000000000000000000000000000000000 DUP2 MSTORE PUSH1 0x4 ADD PUSH2 0xCC5 SWAP1 PUSH2 0x1B91 JUMP JUMPDEST PUSH1 0x40 MLOAD DUP1 SWAP2 SUB SWAP1 REVERT JUMPDEST DUP2 PUSH1 0x2 PUSH1 0x0 DUP6 PUSH20 0xFFFFFFFFFFFFFFFFFFFFFFFFFFFFFFFFFFFFFFFF AND PUSH20 0xFFFFFFFFFFFFFFFFFFFFFFFFFFFFFFFFFFFFFFFF AND DUP2 MSTORE PUSH1 0x20 ADD SWAP1 DUP2 MSTORE PUSH1 0x20 ADD PUSH1 0x0 KECCAK256 DUP4 DUP2 SLOAD DUP2 LT PUSH2 0xD20 JUMPI PUSH2 0xD1F PUSH2 0x1BB1 JUMP JUMPDEST JUMPDEST SWAP1 PUSH1 0x0 MSTORE PUSH1 0x20 PUSH1 0x0 KECCAK256 SWAP1 PUSH1 0x5 MUL ADD PUSH1 0x0 ADD SLOAD EQ PUSH2 0xD72 JUMPI PUSH1 0x40 MLOAD PUSH32 0x8C379A000000000000000000000000000000000000000000000000000000000 DUP2 MSTORE PUSH1 0x4 ADD PUSH2 0xD69 SWAP1 PUSH2 0x1C2C JUMP JUMPDEST PUSH1 0x40 MLOAD DUP1 SWAP2 SUB SWAP1 REVERT JUMPDEST PUSH1 0x0 PUSH1 0x2 PUSH1 0x0 DUP6 PUSH20 0xFFFFFFFFFFFFFFFFFFFFFFFFFFFFFFFFFFFFFFFF AND PUSH20 0xFFFFFFFFFFFFFFFFFFFFFFFFFFFFFFFFFFFFFFFF AND DUP2 MSTORE PUSH1 0x20 ADD SWAP1 DUP2 MSTORE PUSH1 0x20 ADD PUSH1 0x0 KECCAK256 DUP4 DUP2 SLOAD DUP2 LT PUSH2 0xDC5 JUMPI PUSH2 0xDC4 PUSH2 0x1BB1 JUMP JUMPDEST JUMPDEST SWAP1 PUSH1 0x0 MSTORE PUSH1 0x20 PUSH1 0x0 KECCAK256 SWAP1 PUSH1 0x5 MUL ADD PUSH1 0x4 ADD SLOAD GT PUSH2 0xE17 JUMPI PUSH1 0x40 MLOAD PUSH32 0x8C379A000000000000000000000000000000000000000000000000000000000 DUP2 MSTORE PUSH1 0x4 ADD PUSH2 0xE0E SWAP1 PUSH2 0x20A2 JUMP JUMPDEST PUSH1 0x40 MLOAD DUP1 SWAP2 SUB SWAP1 REVERT JUMPDEST PUSH1 0x1 PUSH1 0x2 PUSH1 0x0 DUP6 PUSH20 0xFFFFFFFFFFFFFFFFFFFFFFFFFFFFFFFFFFFFFFFF AND PUSH20 0xFFFFFFFFFFFFFFFFFFFFFFFFFFFFFFFFFFFFFFFF AND DUP2 MSTORE PUSH1 0x20 ADD SWAP1 DUP2 MSTORE PUSH1 0x20 ADD PUSH1 0x0 KECCAK256 DUP4 DUP2 SLOAD DUP2 LT PUSH2 0xE6A JUMPI PUSH2 0xE69 PUSH2 0x1BB1 JUMP JUMPDEST JUMPDEST SWAP1 PUSH1 0x0 MSTORE PUSH1 0x20 PUSH1 0x0 KECCAK256 SWAP1 PUSH1 0x5 MUL ADD PUSH1 0x4 ADD PUSH1 0x0 DUP3 DUP3 SLOAD PUSH2 0xE8A SWAP2 SWAP1 PUSH2 0x20C2 JUMP JUMPDEST SWAP3 POP POP DUP2 SWAP1 SSTORE POP CALLER PUSH20 0xFFFFFFFFFFFFFFFFFFFFFFFFFFFFFFFFFFFFFFFF AND PUSH32 0x273883C252143C4ABCE776697615E41CA9BC1AAC5968C585D1C8BA8FFAA8B3C1 DUP5 DUP5 PUSH1 0x2 PUSH1 0x0 DUP9 PUSH20 0xFFFFFFFFFFFFFFFFFFFFFFFFFFFFFFFFFFFFFFFF AND PUSH20 0xFFFFFFFFFFFFFFFFFFFFFFFFFFFFFFFFFFFFFFFF AND DUP2 MSTORE PUSH1 0x20 ADD SWAP1 DUP2 MSTORE PUSH1 0x20 ADD PUSH1 0x0 KECCAK256 DUP7 DUP2 SLOAD DUP2 LT PUSH2 0xF1C JUMPI PUSH2 0xF1B PUSH2 0x1BB1 JUMP JUMPDEST JUMPDEST SWAP1 PUSH1 0x0 MSTORE PUSH1 0x20 PUSH1 0x0 KECCAK256 SWAP1 PUSH1 0x5 MUL ADD PUSH1 0x4 ADD SLOAD PUSH1 0x40 MLOAD PUSH2 0xF3D SWAP4 SWAP3 SWAP2 SWAP1 PUSH2 0x1CAF JUMP JUMPDEST PUSH1 0x40 MLOAD DUP1 SWAP2 SUB SWAP1 LOG2 POP POP POP JUMP JUMPDEST PUSH2 0xF52 PUSH2 0x1296 JUMP JUMPDEST PUSH1 0x2 PUSH1 0x0 CALLER PUSH20 0xFFFFFFFFFFFFFFFFFFFFFFFFFFFFFFFFFFFFFFFF AND PUSH20 0xFFFFFFFFFFFFFFFFFFFFFFFFFFFFFFFFFFFFFFFF AND DUP2 MSTORE PUSH1 0x20 ADD SWAP1 DUP2 MSTORE PUSH1 0x20 ADD PUSH1 0x0 KECCAK256 DUP3 DUP2 SLOAD DUP2 LT PUSH2 0xFA3 JUMPI PUSH2 0xFA2 PUSH2 0x1BB1 JUMP JUMPDEST JUMPDEST SWAP1 PUSH1 0x0 MSTORE PUSH1 0x20 PUSH1 0x0 KECCAK256 SWAP1 PUSH1 0x5 MUL ADD PUSH1 0x40 MLOAD DUP1 PUSH1 0xA0 ADD PUSH1 0x40 MSTORE SWAP1 DUP2 PUSH1 0x0 DUP3 ADD SLOAD DUP2 MSTORE PUSH1 0x20 ADD PUSH1 0x1 DUP3 ADD PUSH1 0x0 SWAP1 SLOAD SWAP1 PUSH2 0x100 EXP SWAP1 DIV PUSH20 0xFFFFFFFFFFFFFFFFFFFFFFFFFFFFFFFFFFFFFFFF AND PUSH20 0xFFFFFFFFFFFFFFFFFFFFFFFFFFFFFFFFFFFFFFFF AND PUSH20 0xFFFFFFFFFFFFFFFFFFFFFFFFFFFFFFFFFFFFFFFF AND DUP2 MSTORE PUSH1 0x20 ADD PUSH1 0x2 DUP3 ADD DUP1 SLOAD PUSH2 0x102C SWAP1 PUSH2 0x19C9 JUMP JUMPDEST DUP1 PUSH1 0x1F ADD PUSH1 0x20 DUP1 SWAP2 DIV MUL PUSH1 0x20 ADD PUSH1 0x40 MLOAD SWAP1 DUP2 ADD PUSH1 0x40 MSTORE DUP1 SWAP3 SWAP2 SWAP1 DUP2 DUP2 MSTORE PUSH1 0x20 ADD DUP3 DUP1 SLOAD PUSH2 0x1058 SWAP1 PUSH2 0x19C9 JUMP JUMPDEST DUP1 ISZERO PUSH2 0x10A5 JUMPI DUP1 PUSH1 0x1F LT PUSH2 0x107A JUMPI PUSH2 0x100 DUP1 DUP4 SLOAD DIV MUL DUP4 MSTORE SWAP2 PUSH1 0x20 ADD SWAP2 PUSH2 0x10A5 JUMP JUMPDEST DUP3 ADD SWAP2 SWAP1 PUSH1 0x0 MSTORE PUSH1 0x20 PUSH1 0x0 KECCAK256 SWAP1 JUMPDEST DUP2 SLOAD DUP2 MSTORE SWAP1 PUSH1 0x1 ADD SWAP1 PUSH1 0x20 ADD DUP1 DUP4 GT PUSH2 0x1088 JUMPI DUP3 SWAP1 SUB PUSH1 0x1F AND DUP3 ADD SWAP2 JUMPDEST POP POP POP POP POP DUP2 MSTORE PUSH1 0x20 ADD PUSH1 0x3 DUP3 ADD SLOAD DUP2 MSTORE PUSH1 0x20 ADD PUSH1 0x4 DUP3 ADD SLOAD DUP2 MSTORE POP POP SWAP1 POP SWAP2 SWAP1 POP JUMP JUMPDEST PUSH2 0x10D1 PUSH2 0x114C JUMP JUMPDEST PUSH1 0x0 PUSH20 0xFFFFFFFFFFFFFFFFFFFFFFFFFFFFFFFFFFFFFFFF AND DUP2 PUSH20 0xFFFFFFFFFFFFFFFFFFFFFFFFFFFFFFFFFFFFFFFF AND SUB PUSH2 0x1140 JUMPI PUSH1 0x40 MLOAD PUSH32 0x8C379A000000000000000000000000000000000000000000000000000000000 DUP2 MSTORE PUSH1 0x4 ADD PUSH2 0x1137 SWAP1 PUSH2 0x2168 JUMP JUMPDEST PUSH1 0x40 MLOAD DUP1 SWAP2 SUB SWAP1 REVERT JUMPDEST PUSH2 0x1149 DUP2 PUSH2 0x11CA JUMP JUMPDEST POP JUMP JUMPDEST PUSH2 0x1154 PUSH2 0x128E JUMP JUMPDEST PUSH20 0xFFFFFFFFFFFFFFFFFFFFFFFFFFFFFFFFFFFFFFFF AND PUSH2 0x1172 PUSH2 0xBB8 JUMP JUMPDEST PUSH20 0xFFFFFFFFFFFFFFFFFFFFFFFFFFFFFFFFFFFFFFFF AND EQ PUSH2 0x11C8 JUMPI PUSH1 0x40 MLOAD PUSH32 0x8C379A000000000000000000000000000000000000000000000000000000000 DUP2 MSTORE PUSH1 0x4 ADD PUSH2 0x11BF SWAP1 PUSH2 0x21D4 JUMP JUMPDEST PUSH1 0x40 MLOAD DUP1 SWAP2 SUB SWAP1 REVERT JUMPDEST JUMP JUMPDEST PUSH1 0x0 DUP1 PUSH1 0x0 SWAP1 SLOAD SWAP1 PUSH2 0x100 EXP SWAP1 DIV PUSH20 0xFFFFFFFFFFFFFFFFFFFFFFFFFFFFFFFFFFFFFFFF AND SWAP1 POP DUP2 PUSH1 0x0 DUP1 PUSH2 0x100 EXP DUP2 SLOAD DUP2 PUSH20 0xFFFFFFFFFFFFFFFFFFFFFFFFFFFFFFFFFFFFFFFF MUL NOT AND SWAP1 DUP4 PUSH20 0xFFFFFFFFFFFFFFFFFFFFFFFFFFFFFFFFFFFFFFFF AND MUL OR SWAP1 SSTORE POP DUP2 PUSH20 0xFFFFFFFFFFFFFFFFFFFFFFFFFFFFFFFFFFFFFFFF AND DUP2 PUSH20 0xFFFFFFFFFFFFFFFFFFFFFFFFFFFFFFFFFFFFFFFF AND PUSH32 0x8BE0079C531659141344CD1FD0A4F28419497F9722A3DAAFE3B4186F6B6457E0 PUSH1 0x40 MLOAD PUSH1 0x40 MLOAD DUP1 SWAP2 SUB SWAP1 LOG3 POP POP JUMP JUMPDEST PUSH1 0x0 CALLER SWAP1 POP SWAP1 JUMP JUMPDEST PUSH1 0x40 MLOAD DUP1 PUSH1 0xA0 ADD PUSH1 0x40 MSTORE DUP1 PUSH1 0x0 DUP2 MSTORE PUSH1 0x20 ADD PUSH1 0x0 PUSH20 0xFFFFFFFFFFFFFFFFFFFFFFFFFFFFFFFFFFFFFFFF AND DUP2 MSTORE PUSH1 0x20 ADD PUSH1 0x60 DUP2 MSTORE PUSH1 0x20 ADD PUSH1 0x0 DUP2 MSTORE PUSH1 0x20 ADD PUSH1 0x0 DUP2 MSTORE POP SWAP1 JUMP JUMPDEST PUSH1 0x0 PUSH1 0x40 MLOAD SWAP1 POP SWAP1 JUMP JUMPDEST PUSH1 0x0 DUP1 REVERT JUMPDEST PUSH1 0x0 DUP1 REVERT JUMPDEST PUSH1 0x0 PUSH20 0xFFFFFFFFFFFFFFFFFFFFFFFFFFFFFFFFFFFFFFFF DUP3 AND SWAP1 POP SWAP2 SWAP1 POP JUMP JUMPDEST PUSH1 0x0 PUSH2 0x131A DUP3 PUSH2 0x12EF JUMP JUMPDEST SWAP1 POP SWAP2 SWAP1 POP JUMP JUMPDEST PUSH2 0x132A DUP2 PUSH2 0x130F JUMP JUMPDEST DUP2 EQ PUSH2 0x1335 JUMPI PUSH1 0x0 DUP1 REVERT JUMPDEST POP JUMP JUMPDEST PUSH1 0x0 DUP2 CALLDATALOAD SWAP1 POP PUSH2 0x1347 DUP2 PUSH2 0x1321 JUMP JUMPDEST SWAP3 SWAP2 POP POP JUMP JUMPDEST PUSH1 0x0 DUP2 SWAP1 POP SWAP2 SWAP1 POP JUMP JUMPDEST PUSH2 0x1360 DUP2 PUSH2 0x134D JUMP JUMPDEST DUP2 EQ PUSH2 0x136B JUMPI PUSH1 0x0 DUP1 REVERT JUMPDEST POP JUMP JUMPDEST PUSH1 0x0 DUP2 CALLDATALOAD SWAP1 POP PUSH2 0x137D DUP2 PUSH2 0x1357 JUMP JUMPDEST SWAP3 SWAP2 POP POP JUMP JUMPDEST PUSH1 0x0 DUP1 PUSH1 0x40 DUP4 DUP6 SUB SLT ISZERO PUSH2 0x139A JUMPI PUSH2 0x1399 PUSH2 0x12E5 JUMP JUMPDEST JUMPDEST PUSH1 0x0 PUSH2 0x13A8 DUP6 DUP3 DUP7 ADD PUSH2 0x1338 JUMP JUMPDEST SWAP3 POP POP PUSH1 0x20 PUSH2 0x13B9 DUP6 DUP3 DUP7 ADD PUSH2 0x136E JUMP JUMPDEST SWAP2 POP POP SWAP3 POP SWAP3 SWAP1 POP JUMP JUMPDEST PUSH2 0x13CC DUP2 PUSH2 0x134D JUMP JUMPDEST DUP3 MSTORE POP POP JUMP JUMPDEST PUSH2 0x13DB DUP2 PUSH2 0x130F JUMP JUMPDEST DUP3 MSTORE POP POP JUMP JUMPDEST PUSH1 0x0 DUP2 MLOAD SWAP1 POP SWAP2 SWAP1 POP JUMP JUMPDEST PUSH1 0x0 DUP3 DUP3 MSTORE PUSH1 0x20 DUP3 ADD SWAP1 POP SWAP3 SWAP2 POP POP JUMP JUMPDEST PUSH1 0x0 JUMPDEST DUP4 DUP2 LT ISZERO PUSH2 0x141B JUMPI DUP1 DUP3 ADD MLOAD DUP2 DUP5 ADD MSTORE PUSH1 0x20 DUP2 ADD SWAP1 POP PUSH2 0x1400 JUMP JUMPDEST PUSH1 0x0 DUP5 DUP5 ADD MSTORE POP POP POP POP JUMP JUMPDEST PUSH1 0x0 PUSH1 0x1F NOT PUSH1 0x1F DUP4 ADD AND SWAP1 POP SWAP2 SWAP1 POP JUMP JUMPDEST PUSH1 0x0 PUSH2 0x1443 DUP3 PUSH2 0x13E1 JUMP JUMPDEST PUSH2 0x144D DUP2 DUP6 PUSH2 0x13EC JUMP JUMPDEST SWAP4 POP PUSH2 0x145D DUP2 DUP6 PUSH1 0x20 DUP7 ADD PUSH2 0x13FD JUMP JUMPDEST PUSH2 0x1466 DUP2 PUSH2 0x1427 JUMP JUMPDEST DUP5 ADD SWAP2 POP POP SWAP3 SWAP2 POP POP JUMP JUMPDEST PUSH1 0x0 PUSH1 0xA0 DUP3 ADD SWAP1 POP PUSH2 0x1486 PUSH1 0x0 DUP4 ADD DUP9 PUSH2 0x13C3 JUMP JUMPDEST PUSH2 0x1493 PUSH1 0x20 DUP4 ADD DUP8 PUSH2 0x13D2 JUMP JUMPDEST DUP2 DUP2 SUB PUSH1 0x40 DUP4 ADD MSTORE PUSH2 0x14A5 DUP2 DUP7 PUSH2 0x1438 JUMP JUMPDEST SWAP1 POP PUSH2 0x14B4 PUSH1 0x60 DUP4 ADD DUP6 PUSH2 0x13C3 JUMP JUMPDEST PUSH2 0x14C1 PUSH1 0x80 DUP4 ADD DUP5 PUSH2 0x13C3 JUMP JUMPDEST SWAP7 SWAP6 POP POP POP POP POP POP JUMP JUMPDEST PUSH1 0x0 PUSH1 0x20 DUP3 DUP5 SUB SLT ISZERO PUSH2 0x14E1 JUMPI PUSH2 0x14E0 PUSH2 0x12E5 JUMP JUMPDEST JUMPDEST PUSH1 0x0 PUSH2 0x14EF DUP5 DUP3 DUP6 ADD PUSH2 0x1338 JUMP JUMPDEST SWAP2 POP POP SWAP3 SWAP2 POP POP JUMP JUMPDEST PUSH1 0x0 DUP2 MLOAD SWAP1 POP SWAP2 SWAP1 POP JUMP JUMPDEST PUSH1 0x0 DUP3 DUP3 MSTORE PUSH1 0x20 DUP3 ADD SWAP1 POP SWAP3 SWAP2 POP POP JUMP JUMPDEST PUSH1 0x0 DUP2 SWAP1 POP PUSH1 0x20 DUP3 ADD SWAP1 POP SWAP2 SWAP1 POP JUMP JUMPDEST PUSH2 0x152D DUP2 PUSH2 0x134D JUMP JUMPDEST DUP3 MSTORE POP POP JUMP JUMPDEST PUSH2 0x153C DUP2 PUSH2 0x130F JUMP JUMPDEST DUP3 MSTORE POP POP JUMP JUMPDEST PUSH1 0x0 DUP3 DUP3 MSTORE PUSH1 0x20 DUP3 ADD SWAP1 POP SWAP3 SWAP2 POP POP JUMP JUMPDEST PUSH1 0x0 PUSH2 0x155E DUP3 PUSH2 0x13E1 JUMP JUMPDEST PUSH2 0x1568 DUP2 DUP6 PUSH2 0x1542 JUMP JUMPDEST SWAP4 POP PUSH2 0x1578 DUP2 DUP6 PUSH1 0x20 DUP7 ADD PUSH2 0x13FD JUMP JUMPDEST PUSH2 0x1581 DUP2 PUSH2 0x1427 JUMP JUMPDEST DUP5 ADD SWAP2 POP POP SWAP3 SWAP2 POP POP JUMP JUMPDEST PUSH1 0x0 PUSH1 0xA0 DUP4 ADD PUSH1 0x0 DUP4 ADD MLOAD PUSH2 0x15A4 PUSH1 0x0 DUP7 ADD DUP3 PUSH2 0x1524 JUMP JUMPDEST POP PUSH1 0x20 DUP4 ADD MLOAD PUSH2 0x15B7 PUSH1 0x20 DUP7 ADD DUP3 PUSH2 0x1533 JUMP JUMPDEST POP PUSH1 0x40 DUP4 ADD MLOAD DUP5 DUP3 SUB PUSH1 0x40 DUP7 ADD MSTORE PUSH2 0x15CF DUP3 DUP3 PUSH2 0x1553 JUMP JUMPDEST SWAP2 POP POP PUSH1 0x60 DUP4 ADD MLOAD PUSH2 0x15E4 PUSH1 0x60 DUP7 ADD DUP3 PUSH2 0x1524 JUMP JUMPDEST POP PUSH1 0x80 DUP4 ADD MLOAD PUSH2 0x15F7 PUSH1 0x80 DUP7 ADD DUP3 PUSH2 0x1524 JUMP JUMPDEST POP DUP1 SWAP2 POP POP SWAP3 SWAP2 POP POP JUMP JUMPDEST PUSH1 0x0 PUSH2 0x160E DUP4 DUP4 PUSH2 0x158C JUMP JUMPDEST SWAP1 POP SWAP3 SWAP2 POP POP JUMP JUMPDEST PUSH1 0x0 PUSH1 0x20 DUP3 ADD SWAP1 POP SWAP2 SWAP1 POP JUMP JUMPDEST PUSH1 0x0 PUSH2 0x162E DUP3 PUSH2 0x14F8 JUMP JUMPDEST PUSH2 0x1638 DUP2 DUP6 PUSH2 0x1503 JUMP JUMPDEST SWAP4 POP DUP4 PUSH1 0x20 DUP3 MUL DUP6 ADD PUSH2 0x164A DUP6 PUSH2 0x1514 JUMP JUMPDEST DUP1 PUSH1 0x0 JUMPDEST DUP6 DUP2 LT ISZERO PUSH2 0x1686 JUMPI DUP5 DUP5 SUB DUP10 MSTORE DUP2 MLOAD PUSH2 0x1667 DUP6 DUP3 PUSH2 0x1602 JUMP JUMPDEST SWAP5 POP PUSH2 0x1672 DUP4 PUSH2 0x1616 JUMP JUMPDEST SWAP3 POP PUSH1 0x20 DUP11 ADD SWAP10 POP POP PUSH1 0x1 DUP2 ADD SWAP1 POP PUSH2 0x164E JUMP JUMPDEST POP DUP3 SWAP8 POP DUP8 SWAP6 POP POP POP POP POP POP SWAP3 SWAP2 POP POP JUMP JUMPDEST PUSH1 0x0 PUSH1 0x20 DUP3 ADD SWAP1 POP DUP2 DUP2 SUB PUSH1 0x0 DUP4 ADD MSTORE PUSH2 0x16B2 DUP2 DUP5 PUSH2 0x1623 JUMP JUMPDEST SWAP1 POP SWAP3 SWAP2 POP POP JUMP JUMPDEST PUSH1 0x0 PUSH2 0xFFFF DUP3 AND SWAP1 POP SWAP2 SWAP1 POP JUMP JUMPDEST PUSH2 0x16D1 DUP2 PUSH2 0x16BA JUMP JUMPDEST DUP2 EQ PUSH2 0x16DC JUMPI PUSH1 0x0 DUP1 REVERT JUMPDEST POP JUMP JUMPDEST PUSH1 0x0 DUP2 CALLDATALOAD SWAP1 POP PUSH2 0x16EE DUP2 PUSH2 0x16C8 JUMP JUMPDEST SWAP3 SWAP2 POP POP JUMP JUMPDEST PUSH1 0x0 PUSH1 0x20 DUP3 DUP5 SUB SLT ISZERO PUSH2 0x170A JUMPI PUSH2 0x1709 PUSH2 0x12E5 JUMP JUMPDEST JUMPDEST PUSH1 0x0 PUSH2 0x1718 DUP5 DUP3 DUP6 ADD PUSH2 0x16DF JUMP JUMPDEST SWAP2 POP POP SWAP3 SWAP2 POP POP JUMP JUMPDEST PUSH1 0x0 DUP1 REVERT JUMPDEST PUSH1 0x0 DUP1 REVERT JUMPDEST PUSH32 0x4E487B7100000000000000000000000000000000000000000000000000000000 PUSH1 0x0 MSTORE PUSH1 0x41 PUSH1 0x4 MSTORE PUSH1 0x24 PUSH1 0x0 REVERT JUMPDEST PUSH2 0x1763 DUP3 PUSH2 0x1427 JUMP JUMPDEST DUP2 ADD DUP2 DUP2 LT PUSH8 0xFFFFFFFFFFFFFFFF DUP3 GT OR ISZERO PUSH2 0x1782 JUMPI PUSH2 0x1781 PUSH2 0x172B JUMP JUMPDEST JUMPDEST DUP1 PUSH1 0x40 MSTORE POP POP POP JUMP JUMPDEST PUSH1 0x0 PUSH2 0x1795 PUSH2 0x12DB JUMP JUMPDEST SWAP1 POP PUSH2 0x17A1 DUP3 DUP3 PUSH2 0x175A JUMP JUMPDEST SWAP2 SWAP1 POP JUMP JUMPDEST PUSH1 0x0 PUSH8 0xFFFFFFFFFFFFFFFF DUP3 GT ISZERO PUSH2 0x17C1 JUMPI PUSH2 0x17C0 PUSH2 0x172B JUMP JUMPDEST JUMPDEST PUSH2 0x17CA DUP3 PUSH2 0x1427 JUMP JUMPDEST SWAP1 POP PUSH1 0x20 DUP2 ADD SWAP1 POP SWAP2 SWAP1 POP JUMP JUMPDEST DUP3 DUP2 DUP4 CALLDATACOPY PUSH1 0x0 DUP4 DUP4 ADD MSTORE POP POP POP JUMP JUMPDEST PUSH1 0x0 PUSH2 0x17F9 PUSH2 0x17F4 DUP5 PUSH2 0x17A6 JUMP JUMPDEST PUSH2 0x178B JUMP JUMPDEST SWAP1 POP DUP3 DUP2 MSTORE PUSH1 0x20 DUP2 ADD DUP5 DUP5 DUP5 ADD GT ISZERO PUSH2 0x1815 JUMPI PUSH2 0x1814 PUSH2 0x1726 JUMP JUMPDEST JUMPDEST PUSH2 0x1820 DUP5 DUP3 DUP6 PUSH2 0x17D7 JUMP JUMPDEST POP SWAP4 SWAP3 POP POP POP JUMP JUMPDEST PUSH1 0x0 DUP3 PUSH1 0x1F DUP4 ADD SLT PUSH2 0x183D JUMPI PUSH2 0x183C PUSH2 0x1721 JUMP JUMPDEST JUMPDEST DUP2 CALLDATALOAD PUSH2 0x184D DUP5 DUP3 PUSH1 0x20 DUP7 ADD PUSH2 0x17E6 JUMP JUMPDEST SWAP2 POP POP SWAP3 SWAP2 POP POP JUMP JUMPDEST PUSH1 0x0 PUSH1 0x20 DUP3 DUP5 SUB SLT ISZERO PUSH2 0x186C JUMPI PUSH2 0x186B PUSH2 0x12E5 JUMP JUMPDEST JUMPDEST PUSH1 0x0 DUP3 ADD CALLDATALOAD PUSH8 0xFFFFFFFFFFFFFFFF DUP2 GT ISZERO PUSH2 0x188A JUMPI PUSH2 0x1889 PUSH2 0x12EA JUMP JUMPDEST JUMPDEST PUSH2 0x1896 DUP5 DUP3 DUP6 ADD PUSH2 0x1828 JUMP JUMPDEST SWAP2 POP POP SWAP3 SWAP2 POP POP JUMP JUMPDEST PUSH1 0x0 PUSH1 0x20 DUP3 ADD SWAP1 POP PUSH2 0x18B4 PUSH1 0x0 DUP4 ADD DUP5 PUSH2 0x13C3 JUMP JUMPDEST SWAP3 SWAP2 POP POP JUMP JUMPDEST PUSH1 0x0 PUSH1 0x20 DUP3 ADD SWAP1 POP PUSH2 0x18CF PUSH1 0x0 DUP4 ADD DUP5 PUSH2 0x13D2 JUMP JUMPDEST SWAP3 SWAP2 POP POP JUMP JUMPDEST PUSH1 0x0 PUSH1 0x20 DUP3 DUP5 SUB SLT ISZERO PUSH2 0x18EB JUMPI PUSH2 0x18EA PUSH2 0x12E5 JUMP JUMPDEST JUMPDEST PUSH1 0x0 PUSH2 0x18F9 DUP5 DUP3 DUP6 ADD PUSH2 0x136E JUMP JUMPDEST SWAP2 POP POP SWAP3 SWAP2 POP POP JUMP JUMPDEST PUSH1 0x0 PUSH1 0xA0 DUP4 ADD PUSH1 0x0 DUP4 ADD MLOAD PUSH2 0x191A PUSH1 0x0 DUP7 ADD DUP3 PUSH2 0x1524 JUMP JUMPDEST POP PUSH1 0x20 DUP4 ADD MLOAD PUSH2 0x192D PUSH1 0x20 DUP7 ADD DUP3 PUSH2 0x1533 JUMP JUMPDEST POP PUSH1 0x40 DUP4 ADD MLOAD DUP5 DUP3 SUB PUSH1 0x40 DUP7 ADD MSTORE PUSH2 0x1945 DUP3 DUP3 PUSH2 0x1553 JUMP JUMPDEST SWAP2 POP POP PUSH1 0x60 DUP4 ADD MLOAD PUSH2 0x195A PUSH1 0x60 DUP7 ADD DUP3 PUSH2 0x1524 JUMP JUMPDEST POP PUSH1 0x80 DUP4 ADD MLOAD PUSH2 0x196D PUSH1 0x80 DUP7 ADD DUP3 PUSH2 0x1524 JUMP JUMPDEST POP DUP1 SWAP2 POP POP SWAP3 SWAP2 POP POP JUMP JUMPDEST PUSH1 0x0 PUSH1 0x20 DUP3 ADD SWAP1 POP DUP2 DUP2 SUB PUSH1 0x0 DUP4 ADD MSTORE PUSH2 0x1992 DUP2 DUP5 PUSH2 0x1902 JUMP JUMPDEST SWAP1 POP SWAP3 SWAP2 POP POP JUMP JUMPDEST PUSH32 0x4E487B7100000000000000000000000000000000000000000000000000000000 PUSH1 0x0 MSTORE PUSH1 0x22 PUSH1 0x4 MSTORE PUSH1 0x24 PUSH1 0x0 REVERT JUMPDEST PUSH1 0x0 PUSH1 0x2 DUP3 DIV SWAP1 POP PUSH1 0x1 DUP3 AND DUP1 PUSH2 0x19E1 JUMPI PUSH1 0x7F DUP3 AND SWAP2 POP JUMPDEST PUSH1 0x20 DUP3 LT DUP2 SUB PUSH2 0x19F4 JUMPI PUSH2 0x19F3 PUSH2 0x199A JUMP JUMPDEST JUMPDEST POP SWAP2 SWAP1 POP JUMP JUMPDEST PUSH1 0x0 DUP1 REVERT JUMPDEST PUSH1 0x0 DUP1 REVERT JUMPDEST PUSH1 0x0 PUSH2 0x1A17 PUSH2 0x1A12 DUP5 PUSH2 0x17A6 JUMP JUMPDEST PUSH2 0x178B JUMP JUMPDEST SWAP1 POP DUP3 DUP2 MSTORE PUSH1 0x20 DUP2 ADD DUP5 DUP5 DUP5 ADD GT ISZERO PUSH2 0x1A33 JUMPI PUSH2 0x1A32 PUSH2 0x1726 JUMP JUMPDEST JUMPDEST PUSH2 0x1A3E DUP5 DUP3 DUP6 PUSH2 0x13FD JUMP JUMPDEST POP SWAP4 SWAP3 POP POP POP JUMP JUMPDEST PUSH1 0x0 DUP3 PUSH1 0x1F DUP4 ADD SLT PUSH2 0x1A5B JUMPI PUSH2 0x1A5A PUSH2 0x1721 JUMP JUMPDEST JUMPDEST DUP2 MLOAD PUSH2 0x1A6B DUP5 DUP3 PUSH1 0x20 DUP7 ADD PUSH2 0x1A04 JUMP JUMPDEST SWAP2 POP POP SWAP3 SWAP2 POP POP JUMP JUMPDEST PUSH1 0x0 PUSH1 0x40 DUP3 DUP5 SUB SLT ISZERO PUSH2 0x1A8A JUMPI PUSH2 0x1A89 PUSH2 0x19FA JUMP JUMPDEST JUMPDEST PUSH2 0x1A94 PUSH1 0x40 PUSH2 0x178B JUMP JUMPDEST SWAP1 POP PUSH1 0x0 DUP3 ADD MLOAD PUSH8 0xFFFFFFFFFFFFFFFF DUP2 GT ISZERO PUSH2 0x1AB4 JUMPI PUSH2 0x1AB3 PUSH2 0x19FF JUMP JUMPDEST JUMPDEST PUSH2 0x1AC0 DUP5 DUP3 DUP6 ADD PUSH2 0x1A46 JUMP JUMPDEST PUSH1 0x0 DUP4 ADD MSTORE POP PUSH1 0x20 DUP3 ADD MLOAD PUSH8 0xFFFFFFFFFFFFFFFF DUP2 GT ISZERO PUSH2 0x1AE4 JUMPI PUSH2 0x1AE3 PUSH2 0x19FF JUMP JUMPDEST JUMPDEST PUSH2 0x1AF0 DUP5 DUP3 DUP6 ADD PUSH2 0x1A46 JUMP JUMPDEST PUSH1 0x20 DUP4 ADD MSTORE POP SWAP3 SWAP2 POP POP JUMP JUMPDEST PUSH1 0x0 PUSH1 0x20 DUP3 DUP5 SUB SLT ISZERO PUSH2 0x1B12 JUMPI PUSH2 0x1B11 PUSH2 0x12E5 JUMP JUMPDEST JUMPDEST PUSH1 0x0 DUP3 ADD MLOAD PUSH8 0xFFFFFFFFFFFFFFFF DUP2 GT ISZERO PUSH2 0x1B30 JUMPI PUSH2 0x1B2F PUSH2 0x12EA JUMP JUMPDEST JUMPDEST PUSH2 0x1B3C DUP5 DUP3 DUP6 ADD PUSH2 0x1A74 JUMP JUMPDEST SWAP2 POP POP SWAP3 SWAP2 POP POP JUMP JUMPDEST PUSH32 0x55736572204E6F74205265676973746572656421000000000000000000000000 PUSH1 0x0 DUP3 ADD MSTORE POP JUMP JUMPDEST PUSH1 0x0 PUSH2 0x1B7B PUSH1 0x14 DUP4 PUSH2 0x13EC JUMP JUMPDEST SWAP2 POP PUSH2 0x1B86 DUP3 PUSH2 0x1B45 JUMP JUMPDEST PUSH1 0x20 DUP3 ADD SWAP1 POP SWAP2 SWAP1 POP JUMP JUMPDEST PUSH1 0x0 PUSH1 0x20 DUP3 ADD SWAP1 POP DUP2 DUP2 SUB PUSH1 0x0 DUP4 ADD MSTORE PUSH2 0x1BAA DUP2 PUSH2 0x1B6E JUMP JUMPDEST SWAP1 POP SWAP2 SWAP1 POP JUMP JUMPDEST PUSH32 0x4E487B7100000000000000000000000000000000000000000000000000000000 PUSH1 0x0 MSTORE PUSH1 0x32 PUSH1 0x4 MSTORE PUSH1 0x24 PUSH1 0x0 REVERT JUMPDEST PUSH32 0x547765657420446F65736E277420457869737421000000000000000000000000 PUSH1 0x0 DUP3 ADD MSTORE POP JUMP JUMPDEST PUSH1 0x0 PUSH2 0x1C16 PUSH1 0x14 DUP4 PUSH2 0x13EC JUMP JUMPDEST SWAP2 POP PUSH2 0x1C21 DUP3 PUSH2 0x1BE0 JUMP JUMPDEST PUSH1 0x20 DUP3 ADD SWAP1 POP SWAP2 SWAP1 POP JUMP JUMPDEST PUSH1 0x0 PUSH1 0x20 DUP3 ADD SWAP1 POP DUP2 DUP2 SUB PUSH1 0x0 DUP4 ADD MSTORE PUSH2 0x1C45 DUP2 PUSH2 0x1C09 JUMP JUMPDEST SWAP1 POP SWAP2 SWAP1 POP JUMP JUMPDEST PUSH32 0x4E487B7100000000000000000000000000000000000000000000000000000000 PUSH1 0x0 MSTORE PUSH1 0x11 PUSH1 0x4 MSTORE PUSH1 0x24 PUSH1 0x0 REVERT JUMPDEST PUSH1 0x0 PUSH2 0x1C86 DUP3 PUSH2 0x134D JUMP JUMPDEST SWAP2 POP PUSH2 0x1C91 DUP4 PUSH2 0x134D JUMP JUMPDEST SWAP3 POP DUP3 DUP3 ADD SWAP1 POP DUP1 DUP3 GT ISZERO PUSH2 0x1CA9 JUMPI PUSH2 0x1CA8 PUSH2 0x1C4C JUMP JUMPDEST JUMPDEST SWAP3 SWAP2 POP POP JUMP JUMPDEST PUSH1 0x0 PUSH1 0x60 DUP3 ADD SWAP1 POP PUSH2 0x1CC4 PUSH1 0x0 DUP4 ADD DUP7 PUSH2 0x13D2 JUMP JUMPDEST PUSH2 0x1CD1 PUSH1 0x20 DUP4 ADD DUP6 PUSH2 0x13C3 JUMP JUMPDEST PUSH2 0x1CDE PUSH1 0x40 DUP4 ADD DUP5 PUSH2 0x13C3 JUMP JUMPDEST SWAP5 SWAP4 POP POP POP POP JUMP JUMPDEST PUSH32 0x547765657420697320746F6F206C6F6E67210000000000000000000000000000 PUSH1 0x0 DUP3 ADD MSTORE POP JUMP JUMPDEST PUSH1 0x0 PUSH2 0x1D1C PUSH1 0x12 DUP4 PUSH2 0x13EC JUMP JUMPDEST SWAP2 POP PUSH2 0x1D27 DUP3 PUSH2 0x1CE6 JUMP JUMPDEST PUSH1 0x20 DUP3 ADD SWAP1 POP SWAP2 SWAP1 POP JUMP JUMPDEST PUSH1 0x0 PUSH1 0x20 DUP3 ADD SWAP1 POP DUP2 DUP2 SUB PUSH1 0x0 DUP4 ADD MSTORE PUSH2 0x1D4B DUP2 PUSH2 0x1D0F JUMP JUMPDEST SWAP1 POP SWAP2 SWAP1 POP JUMP JUMPDEST PUSH1 0x0 DUP2 SWAP1 POP DUP2 PUSH1 0x0 MSTORE PUSH1 0x20 PUSH1 0x0 KECCAK256 SWAP1 POP SWAP2 SWAP1 POP JUMP JUMPDEST PUSH1 0x0 PUSH1 0x20 PUSH1 0x1F DUP4 ADD DIV SWAP1 POP SWAP2 SWAP1 POP JUMP JUMPDEST PUSH1 0x0 DUP3 DUP3 SHL SWAP1 POP SWAP3 SWAP2 POP POP JUMP JUMPDEST PUSH1 0x0 PUSH1 0x8 DUP4 MUL PUSH2 0x1DB4 PUSH32 0xFFFFFFFFFFFFFFFFFFFFFFFFFFFFFFFFFFFFFFFFFFFFFFFFFFFFFFFFFFFFFFFF DUP3 PUSH2 0x1D77 JUMP JUMPDEST PUSH2 0x1DBE DUP7 DUP4 PUSH2 0x1D77 JUMP JUMPDEST SWAP6 POP DUP1 NOT DUP5 AND SWAP4 POP DUP1 DUP7 AND DUP5 OR SWAP3 POP POP POP SWAP4 SWAP3 POP POP POP JUMP JUMPDEST PUSH1 0x0 DUP2 SWAP1 POP SWAP2 SWAP1 POP JUMP JUMPDEST PUSH1 0x0 PUSH2 0x1DFB PUSH2 0x1DF6 PUSH2 0x1DF1 DUP5 PUSH2 0x134D JUMP JUMPDEST PUSH2 0x1DD6 JUMP JUMPDEST PUSH2 0x134D JUMP JUMPDEST SWAP1 POP SWAP2 SWAP1 POP JUMP JUMPDEST PUSH1 0x0 DUP2 SWAP1 POP SWAP2 SWAP1 POP JUMP JUMPDEST PUSH2 0x1E15 DUP4 PUSH2 0x1DE0 JUMP JUMPDEST PUSH2 0x1E29 PUSH2 0x1E21 DUP3 PUSH2 0x1E02 JUMP JUMPDEST DUP5 DUP5 SLOAD PUSH2 0x1D84 JUMP JUMPDEST DUP3 SSTORE POP POP POP POP JUMP JUMPDEST PUSH1 0x0 SWAP1 JUMP JUMPDEST PUSH2 0x1E3E PUSH2 0x1E31 JUMP JUMPDEST PUSH2 0x1E49 DUP2 DUP5 DUP5 PUSH2 0x1E0C JUMP JUMPDEST POP POP POP JUMP JUMPDEST JUMPDEST DUP2 DUP2 LT ISZERO PUSH2 0x1E6D JUMPI PUSH2 0x1E62 PUSH1 0x0 DUP3 PUSH2 0x1E36 JUMP JUMPDEST PUSH1 0x1 DUP2 ADD SWAP1 POP PUSH2 0x1E4F JUMP JUMPDEST POP POP JUMP JUMPDEST PUSH1 0x1F DUP3 GT ISZERO PUSH2 0x1EB2 JUMPI PUSH2 0x1E83 DUP2 PUSH2 0x1D52 JUMP JUMPDEST PUSH2 0x1E8C DUP5 PUSH2 0x1D67 JUMP JUMPDEST DUP2 ADD PUSH1 0x20 DUP6 LT ISZERO PUSH2 0x1E9B JUMPI DUP2 SWAP1 POP JUMPDEST PUSH2 0x1EAF PUSH2 0x1EA7 DUP6 PUSH2 0x1D67 JUMP JUMPDEST DUP4 ADD DUP3 PUSH2 0x1E4E JUMP JUMPDEST POP POP JUMPDEST POP POP POP JUMP JUMPDEST PUSH1 0x0 DUP3 DUP3 SHR SWAP1 POP SWAP3 SWAP2 POP POP JUMP JUMPDEST PUSH1 0x0 PUSH2 0x1ED5 PUSH1 0x0 NOT DUP5 PUSH1 0x8 MUL PUSH2 0x1EB7 JUMP JUMPDEST NOT DUP1 DUP4 AND SWAP2 POP POP SWAP3 SWAP2 POP POP JUMP JUMPDEST PUSH1 0x0 PUSH2 0x1EEE DUP4 DUP4 PUSH2 0x1EC4 JUMP JUMPDEST SWAP2 POP DUP3 PUSH1 0x2 MUL DUP3 OR SWAP1 POP SWAP3 SWAP2 POP POP JUMP JUMPDEST PUSH2 0x1F07 DUP3 PUSH2 0x13E1 JUMP JUMPDEST PUSH8 0xFFFFFFFFFFFFFFFF DUP2 GT ISZERO PUSH2 0x1F20 JUMPI PUSH2 0x1F1F PUSH2 0x172B JUMP JUMPDEST JUMPDEST PUSH2 0x1F2A DUP3 SLOAD PUSH2 0x19C9 JUMP JUMPDEST PUSH2 0x1F35 DUP3 DUP3 DUP6 PUSH2 0x1E71 JUMP JUMPDEST PUSH1 0x0 PUSH1 0x20 SWAP1 POP PUSH1 0x1F DUP4 GT PUSH1 0x1 DUP2 EQ PUSH2 0x1F68 JUMPI PUSH1 0x0 DUP5 ISZERO PUSH2 0x1F56 JUMPI DUP3 DUP8 ADD MLOAD SWAP1 POP JUMPDEST PUSH2 0x1F60 DUP6 DUP3 PUSH2 0x1EE2 JUMP JUMPDEST DUP7 SSTORE POP PUSH2 0x1FC8 JUMP JUMPDEST PUSH1 0x1F NOT DUP5 AND PUSH2 0x1F76 DUP7 PUSH2 0x1D52 JUMP JUMPDEST PUSH1 0x0 JUMPDEST DUP3 DUP2 LT ISZERO PUSH2 0x1F9E JUMPI DUP5 DUP10 ADD MLOAD DUP3 SSTORE PUSH1 0x1 DUP3 ADD SWAP2 POP PUSH1 0x20 DUP6 ADD SWAP5 POP PUSH1 0x20 DUP2 ADD SWAP1 POP PUSH2 0x1F79 JUMP JUMPDEST DUP7 DUP4 LT ISZERO PUSH2 0x1FBB JUMPI DUP5 DUP10 ADD MLOAD PUSH2 0x1FB7 PUSH1 0x1F DUP10 AND DUP3 PUSH2 0x1EC4 JUMP JUMPDEST DUP4 SSTORE POP JUMPDEST PUSH1 0x1 PUSH1 0x2 DUP9 MUL ADD DUP9 SSTORE POP POP POP JUMPDEST POP POP POP POP POP POP JUMP JUMPDEST PUSH1 0x0 PUSH1 0x60 DUP3 ADD SWAP1 POP PUSH2 0x1FE5 PUSH1 0x0 DUP4 ADD DUP7 PUSH2 0x13C3 JUMP JUMPDEST DUP2 DUP2 SUB PUSH1 0x20 DUP4 ADD MSTORE PUSH2 0x1FF7 DUP2 DUP6 PUSH2 0x1438 JUMP JUMPDEST SWAP1 POP PUSH2 0x2006 PUSH1 0x40 DUP4 ADD DUP5 PUSH2 0x13C3 JUMP JUMPDEST SWAP5 SWAP4 POP POP POP POP JUMP JUMPDEST PUSH1 0x0 PUSH2 0x2019 DUP3 PUSH2 0x134D JUMP JUMPDEST SWAP2 POP PUSH32 0xFFFFFFFFFFFFFFFFFFFFFFFFFFFFFFFFFFFFFFFFFFFFFFFFFFFFFFFFFFFFFFFF DUP3 SUB PUSH2 0x204B JUMPI PUSH2 0x204A PUSH2 0x1C4C JUMP JUMPDEST JUMPDEST PUSH1 0x1 DUP3 ADD SWAP1 POP SWAP2 SWAP1 POP JUMP JUMPDEST PUSH32 0x547765657420486173204E6F204C696B65732100000000000000000000000000 PUSH1 0x0 DUP3 ADD MSTORE POP JUMP JUMPDEST PUSH1 0x0 PUSH2 0x208C PUSH1 0x13 DUP4 PUSH2 0x13EC JUMP JUMPDEST SWAP2 POP PUSH2 0x2097 DUP3 PUSH2 0x2056 JUMP JUMPDEST PUSH1 0x20 DUP3 ADD SWAP1 POP SWAP2 SWAP1 POP JUMP JUMPDEST PUSH1 0x0 PUSH1 0x20 DUP3 ADD SWAP1 POP DUP2 DUP2 SUB PUSH1 0x0 DUP4 ADD MSTORE PUSH2 0x20BB DUP2 PUSH2 0x207F JUMP JUMPDEST SWAP1 POP SWAP2 SWAP1 POP JUMP JUMPDEST PUSH1 0x0 PUSH2 0x20CD DUP3 PUSH2 0x134D JUMP JUMPDEST SWAP2 POP PUSH2 0x20D8 DUP4 PUSH2 0x134D JUMP JUMPDEST SWAP3 POP DUP3 DUP3 SUB SWAP1 POP DUP2 DUP2 GT ISZERO PUSH2 0x20F0 JUMPI PUSH2 0x20EF PUSH2 0x1C4C JUMP JUMPDEST JUMPDEST SWAP3 SWAP2 POP POP JUMP JUMPDEST PUSH32 0x4F776E61626C653A206E6577206F776E657220697320746865207A65726F2061 PUSH1 0x0 DUP3 ADD MSTORE PUSH32 0x6464726573730000000000000000000000000000000000000000000000000000 PUSH1 0x20 DUP3 ADD MSTORE POP JUMP JUMPDEST PUSH1 0x0 PUSH2 0x2152 PUSH1 0x26 DUP4 PUSH2 0x13EC JUMP JUMPDEST SWAP2 POP PUSH2 0x215D DUP3 PUSH2 0x20F6 JUMP JUMPDEST PUSH1 0x40 DUP3 ADD SWAP1 POP SWAP2 SWAP1 POP JUMP JUMPDEST PUSH1 0x0 PUSH1 0x20 DUP3 ADD SWAP1 POP DUP2 DUP2 SUB PUSH1 0x0 DUP4 ADD MSTORE PUSH2 0x2181 DUP2 PUSH2 0x2145 JUMP JUMPDEST SWAP1 POP SWAP2 SWAP1 POP JUMP JUMPDEST PUSH32 0x4F776E61626C653A2063616C6C6572206973206E6F7420746865206F776E6572 PUSH1 0x0 DUP3 ADD MSTORE POP JUMP JUMPDEST PUSH1 0x0 PUSH2 0x21BE PUSH1 0x20 DUP4 PUSH2 0x13EC JUMP JUMPDEST SWAP2 POP PUSH2 0x21C9 DUP3 PUSH2 0x2188 JUMP JUMPDEST PUSH1 0x20 DUP3 ADD SWAP1 POP SWAP2 SWAP1 POP JUMP JUMPDEST PUSH1 0x0 PUSH1 0x20 DUP3 ADD SWAP1 POP DUP2 DUP2 SUB PUSH1 0x0 DUP4 ADD MSTORE PUSH2 0x21ED DUP2 PUSH2 0x21B1 JUMP JUMPDEST SWAP1 POP SWAP2 SWAP1 POP JUMP INVALID LOG2 PUSH5 0x6970667358 0x22 SLT KECCAK256 SWAP16 0xD9 0xD3 SWAP13 SSTORE 0xE1 SWAP9 0xD3 NOT ADDRESS DUP4 0xC7 0xE6 SWAP6 0xC 0xB9 0x1E 0xD1 0xA7 MOD BALANCE CHAINID ADDRESS PUSH12 0x7102E1AD6125F66664736F6C PUSH4 0x43000812 STOP CALLER "
				},
				"gasEstimates": {
					"creation": {
						"codeDepositCost": "1749200",
						"executionCost": "infinite",
						"totalCost": "infinite"
					},
					"external": {
						"changeTweetLength(uint16)": "27038",
						"createTweet(string)": "infinite",
						"getAllTweets(address)": "infinite",
						"getTotalLikes(address)": "infinite",
						"getTweet(uint256)": "infinite",
						"likeTweet(address,uint256)": "infinite",
						"owner()": "2566",
						"renounceOwnership()": "30487",
						"transferOwnership(address)": "30854",
						"tweets(address,uint256)": "infinite",
						"unLikeTweet(address,uint256)": "infinite"
					}
				},
				"methodIdentifiers": {
					"changeTweetLength(uint16)": "58bfa4ab",
					"createTweet(string)": "7c9cd2bc",
					"getAllTweets(address)": "12e7ee1c",
					"getTotalLikes(address)": "820785cc",
					"getTweet(uint256)": "c3ad5ecb",
					"likeTweet(address,uint256)": "63378216",
					"owner()": "8da5cb5b",
					"renounceOwnership()": "715018a6",
					"transferOwnership(address)": "f2fde38b",
					"tweets(address,uint256)": "05a1b4a9",
					"unLikeTweet(address,uint256)": "9ef8633f"
				}
			},
			"storageLayout": {
				"storage": [
					{
						"astId": 7,
						"contract": "Twitter_Contract.sol:TwitterContract",
						"label": "_owner",
						"offset": 0,
						"slot": "0",
						"type": "t_address"
					},
					{
						"astId": 156,
						"contract": "Twitter_Contract.sol:TwitterContract",
						"label": "MAX_TWEET_LENGTH",
						"offset": 20,
						"slot": "0",
						"type": "t_uint16"
					},
					{
						"astId": 159,
						"contract": "Twitter_Contract.sol:TwitterContract",
						"label": "createProfileContract",
						"offset": 0,
						"slot": "1",
						"type": "t_contract(IProfile)151"
					},
					{
						"astId": 215,
						"contract": "Twitter_Contract.sol:TwitterContract",
						"label": "tweets",
						"offset": 0,
						"slot": "2",
						"type": "t_mapping(t_address,t_array(t_struct(TweetStruct)209_storage)dyn_storage)"
					}
				],
				"types": {
					"t_address": {
						"encoding": "inplace",
						"label": "address",
						"numberOfBytes": "20"
					},
					"t_array(t_struct(TweetStruct)209_storage)dyn_storage": {
						"base": "t_struct(TweetStruct)209_storage",
						"encoding": "dynamic_array",
						"label": "struct TwitterContract.TweetStruct[]",
						"numberOfBytes": "32"
					},
					"t_contract(IProfile)151": {
						"encoding": "inplace",
						"label": "contract IProfile",
						"numberOfBytes": "20"
					},
					"t_mapping(t_address,t_array(t_struct(TweetStruct)209_storage)dyn_storage)": {
						"encoding": "mapping",
						"key": "t_address",
						"label": "mapping(address => struct TwitterContract.TweetStruct[])",
						"numberOfBytes": "32",
						"value": "t_array(t_struct(TweetStruct)209_storage)dyn_storage"
					},
					"t_string_storage": {
						"encoding": "bytes",
						"label": "string",
						"numberOfBytes": "32"
					},
					"t_struct(TweetStruct)209_storage": {
						"encoding": "inplace",
						"label": "struct TwitterContract.TweetStruct",
						"members": [
							{
								"astId": 200,
								"contract": "Twitter_Contract.sol:TwitterContract",
								"label": "id",
								"offset": 0,
								"slot": "0",
								"type": "t_uint256"
							},
							{
								"astId": 202,
								"contract": "Twitter_Contract.sol:TwitterContract",
								"label": "author",
								"offset": 0,
								"slot": "1",
								"type": "t_address"
							},
							{
								"astId": 204,
								"contract": "Twitter_Contract.sol:TwitterContract",
								"label": "content",
								"offset": 0,
								"slot": "2",
								"type": "t_string_storage"
							},
							{
								"astId": 206,
								"contract": "Twitter_Contract.sol:TwitterContract",
								"label": "timestamp",
								"offset": 0,
								"slot": "3",
								"type": "t_uint256"
							},
							{
								"astId": 208,
								"contract": "Twitter_Contract.sol:TwitterContract",
								"label": "likes",
								"offset": 0,
								"slot": "4",
								"type": "t_uint256"
							}
						],
						"numberOfBytes": "160"
					},
					"t_uint16": {
						"encoding": "inplace",
						"label": "uint16",
						"numberOfBytes": "2"
					},
					"t_uint256": {
						"encoding": "inplace",
						"label": "uint256",
						"numberOfBytes": "32"
					}
				}
			},
			"userdoc": {
				"kind": "user",
				"methods": {},
				"version": 1
			}
		}
	}
}